:100000000C9467070C949F070C949F070C943F294E
:100010000C949F070C949F070C949F070C949F07C8
:100020000C949F070C949F070C94E5170C94A11750
:100030000C9446220C949F070C949F070C949F07E6
:100040000C949F070C949F070C949F070C949F0798
:100050000C949F070C94BE180C949F070C949F0758
:100060000C949F070C949F070C949F070C949F0778
:100070000C949F070C949F070C949F070C949F0768
:100080000C949F070C949F070C949F070C949F0758
:100090000C949F070C949F070C949F070C949F0748
:1000A0000C949F070C949F070C949F07000000007E
:1000B0001700150008001A001400290000000000B5
:1000C0000A0009000700160004002A00E1002C4184
:1000D0000500190006001B001D00E10022522C4102
:1000E0002800E0000000E300000000000000000025
:1000F0001C0018000C00120013003100000000006A
:100100000B000D000E000F003300340033002B00F5
:10011000110010003600370038002D0023522B004C
:100120004C00E4000000E3000000000000000000BC
:10013000310230022F021F021E02290000000000BF
:10014000350027022602210200002A0000002C00B0
:10015000230230002F0000000000E10000002C000E
:100160002002E0000000E3000000000000000000AA
:10017000000000000000000000000000000000007F
:1001800024022E022D0025022202000000002B0076
:1001900035022E00360037003800000000002B002A
:1001A0004C00E4000000E30000000000000000003C
:1001B0002200210020001F001E0029000000000076
:1001C000A900BB00AE00BC0000002A0000002C000B
:1001D000AA00D100D200D3000000E10000002C00F2
:1001E0002824E0000000E300000000000000000000
:1001F00023002400250026002700DD000000000069
:100200005000510052004F000000DE0000002B00A3
:10021000CF00CE00CD00D0000000DF0000002B009A
:100220004C00E4000000E3000000000000000000BB
:1002300027782978257821783D003A0000000000D1
:1002400028782A78267822783E003B0000002C008F
:1002500000000000000000003F003C0000002C00F7
:10026000A600E0000000E300000000000000000025
:100270002B782C782D782F78400043000000000068
:100280003278317830782F784100440000002B001C
:1002900000000000000000004200450000002B00AC
:1002A000A700E4000000E3000000000000DA128173
:1002B000FFD9F1DB20A4A62EAF00A0C000A1C8008A
:1002C000AED580A83FD300408D1420000000000070
:1002D0000000000000000000008080C0E0F07078A6
:1002E000383C1C1E0E0E0E070707070707070707F7
:1002F000070707070707070E0E0E1E1C3C3878700D
:10030000F0E0C0808000000000000000000000005D
:1003100000000000000000000000000000000000DD
:1003200000000000000000000000000000000000CD
:1003300000000000000000000000000000000000BD
:1003400000000000000000000000000000000000AD
:10035000000000C0E0F07C3E1F0F07030180C0E0FA
:10036000F078383C1C1E0E0E070787E77F1FFFFF43
:100370001F7FE78707070E0E1E1C3C3878F0E0C091
:10038000800103070F1F3E7CF0E0C000000000006A
:10039000000000000000000000000000000000005D
:1003A000000000000000000000000000000000004D
:1003B000000000000000000000000000000000003D
:1003C000000000000000000000000000000000002D
:1003D000F0FCFF1F07010000C0F0FCFEFFF7F3B1C7
:1003E000B03030303030303078FE87010000FFFF11
:1003F00000000187FE7830303030303030B0B1F35B
:10040000F7FFFEFCF0C0000001071FFFFCF000003A
:1004100000000000000000000000000000000000DC
:1004200000000000000000000000000000000000CC
:1004300000000000000000000000000000000000BC
:10044000000000000000000000000000000000FFAD
:10045000FFFF0000000000FEFFFF0101071E78E122
:1004600081838386868C8C9898B1B7FEF8E0FFFF75
:10047000E0F8FEB7B198988C8C8686838381E1780A
:100480001E070101FFFFFE0000000000FFFFFF004C
:10049000000000FFFF0000C0C030300000F0F0009E
:1004A0000000000000F0F00000F0F0C0C03030307C
:1004B00030C0C000003030F3F30000000000003016
:1004C0003030303030C0C00000000000000000FFBD
:1004D000FFFF00000000007FFFFF8080E0781E87A4
:1004E00081C1C16161313119198DED7F1F07FFFF96
:1004F000071F7FED8D191931316161C1C181871EDF
:1005000078E08080FFFF7F0000000000FFFFFF0019
:100510000000003F3F03030C0C30300000000033AC
:1005200033333333330F0F00003F3F000000000030
:10053000000000000030303F3F303000000C0C3332
:1005400033333333333F3F0000000000000000002E
:100550000F3FFFF8E0800000030F3F7FFFEFCF8DDC
:100560000D0C0C0C0C0C0C0C1E7FE1800000FFFF2E
:10057000000080E17F1E0C0C0C0C0C0C0C0D8DCFC0
:10058000EFFF7F3F0F03000080E0F8FF3F0F000008
:10059000000000000000000000000000000000005B
:1005A000000000000000000000000000000000004B
:1005B000000000000000000000000000000000003B
:1005C000000000000000000000000000000000002B
:1005D00000000003070F3E7CF8F0E0C08001030735
:1005E0000F1E1C3C38787070E0E0E1E7FEF8FFFF7A
:1005F000F8FEE7E1E0E0707078383C1C1E0F07035E
:100600000180C0E0F0F87C3E0F070300000000000E
:1006100000000000000000000000000000000000DA
:1006200000000000000000000000000000000000CA
:1006300000000000000000000000000000000000BA
:1006400000000000000000000000000000000000AA
:10065000000000000000000000010103070F0E1E53
:100660001C3C3878707070E0E0E0E0E0E0E0E0E052
:10067000E0E0E0E0E0E0E070707078383C1C1E0ED6
:100680000F0703010100000000000000000000004F
:10069000000000000000000000000000000000005A
:1006A000000000000000000000000000000000004A
:1006B000000000000000000000000000000000003A
:1006C00000000000000000000000000020202020AA
:1006D000202020005343524C434B20002020202058
:1006E000202020004341504C434B2000202020205C
:1006F000202020004E554D4C434B2000556E646524
:1007000066696E65640A0041646A7573740A00461E
:10071000756E6374696F6E0A0053796D0A004E61DD
:10072000760A00436F6C656D616B2D44480A004486
:10073000766F72616B0A005157455254590A004C4A
:10074000617965723A2000726576320A0A004B7947
:100750007269612000808182838485868788898A86
:100760008B8C8D8E8F9091929394A0A1A2A3A4A51F
:10077000A6A7A8A9AAABACADAEAFB0B1B2B3B4C096
:10078000C1C2C3C4C5C6C7C8C9CACBCCCDCECFD0E1
:10079000D1D2D3D400000101010101010101010204
:1007A0000202020202020202030303030303030321
:1007B00004040404040404050505050506060606EC
:1007C00006070707070708080808090909090A0AA8
:1007D0000A0B0B0B0C0C0C0D0D0D0E0E0E0F0F0F4C
:1007E00010101111111212131314141515161617D7
:1007F00017181819191A1A1B1B1C1D1D1E1E1F2045
:1008000020212222232424252626272829292A2B91
:100810002C2D2D2E2F3031323233343536373839B6
:100820003A3B3C3D3E3F40414243444546474849B0
:100830004A4C4D4E4F50515354555658595A5B5D82
:100840005E5F616264656668696B6C6D6F70727320
:100850007577787A7B7D7E8082838587888A8C8E87
:100860008F91939596989A9C9EA0A2A3A5A7A9ABB9
:10087000ADAFB1B3B5B7BABCBEC0C2C4C6C9CBCDAB
:10088000CFD1D4D6D8DBDDDFE2E4E7E9EBEEF0F35D
:10089000F5F8FAFDFF00AF00AE05010980A1018562
:1008A0000319012AB700150126B7009501751081BB
:1008B00000C0050C0901A101850419012AA0021537
:1008C0000126A002950175108100C005010906A14D
:1008D00001050719E029E715002501950875018133
:1008E000029501750881010507190029FF150026E9
:1008F000FF00950675088100050819012905950571
:1009000075019102950175039101C009023B000236
:100910000100A0FA090400000103010100092111EE
:1009200001000122400007058103080001090401BC
:10093000000103000000092111010001223200071B
:1009400005820320000112010002000000081D8D35
:100950009D9D00010102000116034B007900720009
:10096000690061002000720065007600320000001E
:100970001803730070006C00690074006B00620063
:100980002E0063006F006D000000040309040708D7
:100990007F0807003E5B4F5B3E003E6B4F6B3E00A7
:1009A0001C3E7C3E1C00183C7E3C18001C577D57AA
:1009B0001C001C5E7F5E1C0000183C180000FFE756
:1009C000C3E7FF00001824180000FFE7DBE7FF0083
:1009D00030483A060E00262979292600407F050571
:1009E0000700407F05253F005A3CE73C5A007F3E08
:1009F0001C1C0800081C1C3E7F0014227F221400CF
:100A00005F5F005F5F0006097F017F0000668995D8
:100A10006A0060606060600094A2FFA29400080415
:100A20007E04080010207E20100008082A1C080000
:100A3000081C2A0808001E10101010000C1E0C1EA6
:100A40000C0030383E383000060E3E0E0600000026
:100A50000000000000005F00000000070007000029
:100A6000147F147F1400242A7F2A120023130864A1
:100A70006200364956205000000807030000001CA1
:100A8000224100000041221C00002A1C7F1C2A0079
:100A900008083E08080000807030000008080808B8
:100AA00008000000606000002010080402003E51B1
:100AB00049453E0000427F400000724949494600D6
:100AC0002141494D33001814127F10002745454538
:100AD00039003C4A49493100412111090700364992
:100AE00049493600464949291E000000140000000B
:100AF00000403400000000081422410014141414B3
:100B000014000041221408000201590906003E4168
:100B10005D594E007C1211127C007F494949360014
:100B20003E41414122007F4141413E007F494949C8
:100B300041007F09090901003E41415173007F08CE
:100B400008087F0000417F4100002040413F010034
:100B50007F08142241007F40404040007F021C0279
:100B60007F007F0408107F003E4141413E007F0925
:100B7000090906003E4151215E007F0919294600FE
:100B800026494949320003017F0103003F404040AC
:100B90003F001F2040201F003F4038403F006314AB
:100BA000081463000304780403006159494D4300AD
:100BB000007F4141410002040810200000414141F2
:100BC0007F00040201020400404040404000000356
:100BD000070800002054547840007F28444438001F
:100BE000384444442800384444287F00385454543E
:100BF000180000087E09020018A4A49C78007F0851
:100C00000404780000447D4000002040403D000086
:100C10007F102844000000417F4000007C047804DD
:100C200078007C0804047800384444443800FC18F8
:100C30002424180018242418FC007C08040408004C
:100C400048545454240004043F4424003C404020B1
:100C50007C001C2040201C003C4030403C004428CC
:100C6000102844004C9090907C004464544C440004
:100C700000083641000000007700000000413608FF
:100C800000000201020402003C2623263C00000072
:100C900000000000404040F0F8F8FF38FFF8F83F4F
:100CA000F8F8FF38FFF8F8F040404000000000007E
:100CB0000080C0C0C0800000C0C08000000080C0B4
:100CC000C000C0C0000080C0C00000000000C0C064
:100CD000C0C0C000C0C00000000000000000000054
:100CE0000000000000000000000000000000000004
:100CF00000000000000000000000000000000000F4
:100D000000000000000000000000000000C0F0F83B
:100D1000FC3E1E06010000007F4141417F007F41F3
:100D200041417F000080C0E07E5B4F5BFEC0000061
:100D3000C000DCD7DEDEDED7DC00C0000000000033
:100D400000000000000000000000000000000000A3
:100D500000000000494949FFFFFFFFE0DFBFBF007F
:100D6000BFBFDFE0FFFFFFFF49494900000000006F
:100D70001F3F6060E0BF1F007F7F071E381E077F98
:100D80007F007F7F0E1F3B716000000000007F7FAF
:100D90000C0C0C007E7E007F7E0303007F7E03032D
:100DA0007E7E03037F7E000F3E703C063C703E0F4C
:100DB00000327B49493F7E007F7E0303001E3F696E
:100DC000696F2600000000000000000000030F1FF4
:100DD0003F3C7870600000007F4141417F007F41CF
:100DE00041417F00307B7F7830202030787F3B008E
:100DF00003000F7F0F0F0F7F0F00030000000000A4
:100E000000000000000000000000000000000000E2
:100E100000000000010101070F0F7F0F7F0F0F7E01
:100E20000F0F7F0F7F0F0F0701010100000000006F
:100E300000000000000101000000000000000000B0
:100E400000000000000000000000000000000000A2
:100E50000000000000000000000000000000000092
:100E60000000000000000000000000000000000082
:100E70000000000000000000000000000000000072
:100E80000000000000000000000000000000000062
:100E90000000000000000000000000000000000052
:100EA0000000000000000000000000000000000042
:100EB0000000000000000000000000000000000032
:100EC00000000000000000000000000000001124ED
:100ED0001FBECFEFDAE0DEBFCDBF04B603FE18C001
:100EE0008091620790916307A0916407B0916507B4
:100EF0008730904BA740B04B59F410926207109284
:100F000063071092640710926507E0E0F8E3099523
:100F100011E0A0E0B1E0E0E2F7E502C005900D923B
:100F2000AA3CB107D9F727E0AAECB1E001C01D92B5
:100F3000A236B207E1F70E946D220C94332B0C9479
:100F40000000E8EDF0E080818E7F80831092E20067
:100F50001092DA001092E100A0EEB0E08C91816076
:100F60008C9380818F77808319BCA7EDB0E08C9142
:100F70008E7F8C9380818F7E808310923D030895B5
:100F80002091E4003091E50095E6A9012091EC0064
:100F9000822F817020FF06C08091E80080FF06C08C
:100FA00080E008952091E80022FD1AC080914A0354
:100FB000882389F0853089F08091EB0085FD0FC092
:100FC0002091E4003091E50042175307F9F2915067
:100FD000E1F684E0089582E0089583E0089581E0D9
:100FE000089580914C0387FF13C08091E80082FF31
:100FF00006C08091E8008B778093E80004C0809160
:101000004A038111F2CF089580914A038823D9F3CE
:101010008091E80080FFF8CF8091E8008E77ECCFD8
:10102000982F9093E900242F762F50E0891731F004
:101030007091EC002091ED005091F00021FD07C06F
:101040009F5F973071F78093E90081E008953091B8
:10105000EB003E7F3093EB003091ED003D7F30930D
:10106000ED003091EB0031603093EB007093EC00B9
:101070002093ED005093F0002091EE0027FDE0CF8B
:1010800080E00895B0E0A0E0E8E4F8E00C94792A6C
:10109000C8EDD0E088818F7E8883E7EDF0E0808125
:1010A0008160808384E082BF81E080933D038881FA
:1010B0008E7F888302EE10E0F80110821092DA0031
:1010C00081EEC82ED12CF601108288818F7788831B
:1010D00088818068888388818F7D888319BC10927D
:1010E0004A0310924B03109249031092480390EE6A
:1010F000E92EF12CF70180818B7F808388818160CC
:10110000888342E060E080E00E941008F601808160
:101110008E7F8083F80180818160808380818860F8
:101120008083F70180818E7F8083888180618883BE
:10113000CDB7DEB7E8E00C94952AFC01809152030C
:101140009091530386179707A0F06115710529F454
:101150009091E8009E779093E80090E0611571050A
:1011600051F4911108C08091E80082FF34C080E002
:101170000895BC01F2CF80914A038823C1F18530E4
:10118000C1F18091E80083FD30C08091E80082FDCC
:10119000EACF8091E80080FFE1CF8091F3002091B9
:1011A000F200382F6115710519F02830310558F01B
:1011B00091E02830310509F090E02091E8002E7789
:1011C0002093E800CBCF81918093F10061507109A9
:1011D0002F5F3F4FE7CF80914A03882341F085304E
:1011E00041F08091E80083FFBECF81E0089582E066
:1011F000089583E00895089580913F0308952FB7DF
:10120000F8946091390370913A0380913B03909177
:101210003C032FBF08959C01FC0132969FEF80E0B4
:101220004191461751F09F3F19F4411101C0982F89
:101230008F5F8630A9F79F3F09F40895290F311D6C
:1012400097FD3A95F90162830895A3E0B0E0EBE2DF
:10125000F9E00C947F2A2091360330913703281748
:101260003907A1F09093370380933603E09134035C
:10127000F0913503309751F024E029839B838A83D2
:101280000680F781E02DCE01019609952396E2E0D4
:101290000C949B2AA3E0B0E0E0E5F9E00C947F2AEF
:1012A000209132033091330328173907A1F090932E
:1012B000330380933203E0913403F0913503309788
:1012C00051F023E029839B838A830680F781E02DF8
:1012D000CE01019609952396E2E00C949B2AFC012D
:1012E000680F791F8FEF91E32191822728E030E08A
:1012F00087FF09C0880F892721503109C9F7E617F0
:10130000F70791F70895880FF7CFFA01811101C00F
:10131000FB010995089580912703982F9E7F39F44A
:101320008091270381708260809327030895843021
:10133000B8F7089580E00895F894E82FE295EF70EB
:10134000F0E031A1282F2F7081E090E001C0880FDC
:101350002A95EAF7982F9095932391A392A1892B30
:1013600082A3789408959091830292FF06C0282F5B
:1013700028712830F9F4877F846093FF06C0282FF6
:1013800028712831F1F4877E84612091840220FF46
:1013900006C0382F38713830D9F4877F816021FF3B
:1013A00006C0282F28712831D1F4877E816194FDF1
:1013B000877E0895282F24712430F9F68B7F88606A
:1013C000DCCF282F2471243101F78B7E8861DDCF9B
:1013D000382F3171313019F78E7F8860E0CF282F98
:1013E0002171213121F78E7E8861E1CF823891050C
:1013F000B9F1B0F48133910509F47DC048F4893224
:10140000910509F46DC08A32910509F47BC00895F5
:101410008533910509F45FC08933910509F1089579
:10142000833E9105D9F138F4803E910529F1823E41
:10143000910579F10895863E9105D9F1873E910590
:1014400009F43EC0843E910541F52091840221FFBC
:1014500024C08091830284FD19C087EE90E0089536
:1014600020918302237009F05AC02091840223FF47
:1014700014C089E290E008952091830220FD38C0D5
:101480003091840230FF09C024FF43C090E080E027
:1014900008952091830222FDF7CF089520918302C1
:1014A00022FD3AC03091840230FD39C024FFF5CFCF
:1014B000EDCF2091830223FFF0CF24FDE7CFCDCFE6
:1014C0002091830223FD2EC03091840231FFEECFA4
:1014D00084EE90E008952091830225FFDECFC9CFEE
:1014E0002091830225FD21C02091840223FFD5CFC6
:1014F00089E390E0D2CF2091830226FFCECF8AE20B
:1015000090E008952091830226FFC7CF81E390E009
:10151000089583EE90E0089582EE90E0089580EEC5
:1015200090E0089586EE90E0089585E390E00895B8
:101530007830C0F46830B0F48430B8F498E0899F13
:10154000F0011124E70FF11D83E0EE0FFF1F8A95D4
:10155000E1F7E60FF11DEE0FFF1FE455FF4F8591F8
:101560009491089580E090E0089581E0FCCF1F936E
:10157000CF93DF930E94F609EC01C11580E5D807EF
:10158000F0F5C11580E4D80708F09CC0C03ED10535
:1015900020F5CD3CD10508F082C0C83AD10578F4D9
:1015A000C53AD10508F073C0C130D10519F12097B3
:1015B00009F1C430D105F0F4D0E0C0E01BC0C33C59
:1015C000D105D0F7C85AD0E0CC0FDD1FC959DE4F86
:1015D0000990D881C02DD4640DC0C11580E2D80710
:1015E00008F0D1C0C11581E0D80708F05AC0C83E44
:1015F000D10510F7CE01DF91CF911F910895C0362C
:1016000082E5D80718F5C03482E5D80708F06BC02A
:10161000C03282E5D80708F05FC0C11582E5D8075F
:1016200008F497C02C2F2695269580E2289F9001DC
:1016300011248C2F8370C1E0D0E002C0CC0FDD1FDD
:101640008A95E2F7C22BD32BDD68D4CFC03A82E56E
:10165000D80760F4C03882E5D80708F459C0CF71C4
:10166000D0E0DC2FCC27C46FD06AC4CFC03C82E569
:10167000D80708F462C0C03E82E5D80708F09CCFC6
:10168000DC2FCC27CC27DF71C06FD06AB3CFC55A0F
:10169000D0E0CC59DE4FC881D0E0D064ABCFD0656C
:1016A000A9CF8D2F0E94B309182FCE0199270E9430
:1016B000F609C12FD0E0DC2FCC27CC27DF71C82B57
:1016C000D92B98CFCE0199270E94F609CC27DF703D
:1016D000C82BD92BD06A8ECFCF71D0E0DC2FCC278E
:1016E000C16FD06A87CF2C2F26952695277080E270
:1016F000289F900111248C2F8370C1E0D0E002C09C
:10170000CC0FDD1F8A95E2F7C22BD32BDC6872CF9A
:101710002C2F26952695277080E2289F9001112472
:101720008C2F8370C1E0D0E002C0CC0FDD1F8A9502
:10173000E2F7C22BD32BDA685DCF8C2F8F710E941A
:10174000B309C82FD0E0DC2FCC27CC27DF71D062C3
:1017500051CF8C2F8F710E94B30955E0D695C79554
:101760005A95E1F7CF70D0E0DC2FCC27282F30E05E
:1017700084FF05C044E0220F331F4A95E1F7C22BD6
:10178000D32BD06937CF8D2F8F710E94B309182FBB
:10179000CE0199270E94F609C12FD0E0DC2FCC277B
:1017A000CC27DF71C82BD92BD2CF0E94FF08089518
:1017B000809138028111109238020895809590919D
:1017C0003702982390933702089520912C0290912C
:1017D000FB0156E0291302C080E0089530E0529FDB
:1017E000F001539FF00D1124E450FE4F71817613E8
:1017F00006C07081781303C07281741304C02F5F18
:101800003F4F2770E7CF81E0089580912C0290919F
:10181000FB01981301C008958F5F8770FACFB0E085
:10182000A0E0E5E1FCE00C94782A7C010091A102A3
:101830001091A20280919F029091A002082B192B77
:10184000CFE0D0E0CC24C394D12CBC2EC6010C2E0A
:1018500002C0880F991F0A94E2F780239123892BF5
:1018600049F4219790F7B12C8B2DCDB7DEB7E9E085
:101870000C94942AB7018C2F0E94980A0E94B70AF0
:10188000019779F3F1CFCF93DF93EC010E940F0C16
:10189000BE010E94980A0E94B70ADF91CF91089575
:1018A000983070F5883060F528E0929FF00111249F
:1018B000E80FF11D6E2F677083E0F695E7958A9526
:1018C000E1F7EE0FFF1FEE0FFF1FEB52FE4F50E050
:1018D00040E080E0219130E0062E02C03695279549
:1018E0000A94E2F721703327042E01C0220F0A94D4
:1018F000EAF7822B4F5F5F4F4430510559F7089547
:1019000080E00895983090F5883080F528E0929F27
:10191000F0011124E80FF11D2E2F277041E001C0C6
:10192000440F2A95EAF783E0F695E7958A95E1F763
:10193000EE0FFF1FEE0FFF1FEB52FE4F30E020E0D7
:1019400070E05191DF011197CB01022E02C09695F4
:1019500087950A94E2F781708195852784238527EE
:101960008C932F5F3F4F2430310559F708959093A2
:10197000A2028093A102089521E030E002C0220F6C
:10198000331F8A95E2F7209530958091A1029091BE
:10199000A202822393230E94B70C089590912D02F6
:1019A0008095892380932D02282F277091F4282F6A
:1019B000082E000C330B9217130659F090918402F5
:1019C00092FF07C08595859585950E94BC0C109265
:1019D0002D02089521E030E002C0220F331F8A95C6
:1019E000E2F78091A1029091A202822B932B0E9498
:1019F000B70C08959093A00280939F020895FC0174
:101A000083819481892B29F08081918189238F3F63
:101A100051F480E00895843FE1F717C0883EA8F0B4
:101A2000813FB9F712C0808191810E94430C929549
:101A30009F70963099F358F4925F9F70923048F7F8
:101A4000803F19F040F7883E20F781E008959A5FC3
:101A5000F4CFCF93DF93C0916007D09161078A30B4
:101A6000C1F420915703CE018A559340622F70E054
:101A70000E945B2A281B822F66E00E94A62AC82F9C
:101A8000C15018F4DF91CF91089580E20E94290D92
:101A9000F7CF8D30E9F4CA55D34020915703622F18
:101AA00070E0CE010E945B2A281B822F9E01280F26
:101AB000311D2115344018F080E0D0E0C0E0C80F9F
:101AC000D11DC65ADC4FD0936107C0936007DACFAF
:101AD00096E0FE01AAE5B7E001900D929A95E1F734
:101AE000803E08F458C086E0FE0111928A95E9F71D
:101AF000C0916007D091610746E050E0BE018AE5E1
:101B000097E00E94D52A9E012A553340892B41F146
:101B1000C90146E0969587954A95E1F741E050E086
:101B2000BA0102C0660F771F8A95E2F7CB01609178
:101B3000580370915903862B972BB9016B5F7F4F28
:101B4000E6E076956795EA95E1F702C0440F551FE8
:101B50006A95E2F7842B952B909359038093580351
:101B60002A5F3F4F40915703642F70E0C9010E94E4
:101B70005B2A481B463010F4240F311D211574E0F8
:101B8000370710F030E020E0265A3C4F30936107D1
:101B90002093600777CFF6E08F9FB0011124625742
:101BA000764F46E050E0CE010E94CC2AA1CFCF93E1
:101BB000DF93EC01FE018491811103C0DF91CF918D
:101BC00008950E94290D2196F5CF809137029091BA
:101BD0003602892B8093CC0190913802992391F0A1
:101BE000892B8093CC0120E08EEC91E0FC013191B7
:101BF000CF0131112F5FF1E0843D9F07B9F721112B
:101C00000E94D80B48E050E06EE272E08CEC91E06C
:101C10000E94D52A892BA9F088E0ECECF1E0AEE235
:101C2000B2E001900D928A95E1F7E0913403F091D2
:101C30003503309731F00280F381E02D8CEC91E098
:101C40000995089510923702EEECF1E086E0DF018D
:101C50001D928A95E9F790E080E00E944A0990E0A1
:101C600080E00E942509109236020E94E50D089539
:101C7000AAE2B0E0EEE3FEE00C947E2A8CE493E06E
:101C80002091F100FC012193CF01F3E084359F07FF
:101C9000B9F780914D03833009F470C0B8F48130F6
:101CA00009F447C0823009F4B1C08091E80083FF95
:101CB0007EC280914C0390914D039A3008F077C218
:101CC000E92FF0E0EB5CF44D0C94C62A8A3009F45D
:101CD0008CC08B3009F46FC0893039F780914C0388
:101CE000813219F780915003909151030297E8F6E1
:101CF0008091E800877F8093E8008091E80082FF70
:101D000038C09091F3008091F200029731F48091F5
:101D1000F100813011F0863021F48091F100809340
:101D20003F038091E8008B778093E8000E94F107E1
:101D3000BCCF80914C03813A09F0B7CF8091E80085
:101D4000877F8093E8008091500390915103892B05
:101D500061F468E080E493E070E00E949D08809167
:101D6000E8008B778093E800A0CF60E090E080E00F
:101D7000F3CF80914A038111C0CF97CF80914C035C
:101D8000813A09F092CF8091500390915103892BB1
:101D900009F08BCF8091E800877F8093E8008091E5
:101DA000E80080FFFCCF80915B018093F10080917F
:101DB000E8008E77B9CF80914C03813209F075CF5E
:101DC0008091500390915103892B09F06ECF80913F
:101DD000E800877F8093E8000E94F10780914E031E
:101DE00080935B010E94220E60CF80914C03813270
:101DF00009F05BCF8091E800877F8093E8000E9424
:101E0000F10780914F0380933E034FCF80914C03A5
:101E1000813A09F04ACF8091E800877F8093E800FB
:101E20008091E80080FFFCCF80913E03BECF8038D8
:101E300099F0823809F0BBC1809150038F708730D0
:101E400008F0B5C18093E9008091EB0085FB8827FD
:101E500080F91092E90006C08091480390914903EF
:101E6000911182609091E800977F9093E8008093B1
:101E7000F1001092F1008091E8008E7794C18823E0
:101E800009F482C1823009F092C180914E03811120
:101E900085C1809150038F702FEF280F263008F0F6
:101EA00086C18093E9002091EB0020FF77C1933039
:101EB00031F48091EB0080628093EB006FC19091D0
:101EC000EB0090619093EB0021E030E001C0220F25
:101ED0008A95EAF72093EA001092EA008091EB00DD
:101EE0008860EACF811163C110914E031F77809102
:101EF000E3008078812B8093E3008091E800877F66
:101F00008093E8000E94F1078091E80080FFFCCFF9
:101F10008091E30080688093E30082E0111183E008
:101F200080934A0344C18058823008F040C18091B8
:101F30004E0390914F038C3D23E09207A1F583E07F
:101F40008A838AE289834FB7F894DE01139620E0F2
:101F50003EE051E2E32FF0E050935700E49120FF80
:101F600003C0E295EF703F5FEF708E2F90E0EA3094
:101F7000C0F0C7968D939D932F5F243159F74FBFC3
:101F80008091E800877F8093E8006AE270E0CE01EC
:101F900001960E949D088091E8008B778093E8006D
:101FA00006C1C096E7CF4091500350915103292FAD
:101FB00033272330310509F444C078F52130310549
:101FC00009F46FC08BE390E0EBE0F9E022303105DB
:101FD00009F0EDC02091E800277F2093E8002091D0
:101FE0005203309153038217930708F49C0140E099
:101FF0002115310509F064C0411162C08091E800EB
:1020000082FDC9CF80914A03882329F2853019F2D5
:102010008091E80083FFF2CFBECF21323105A9F1D4
:102020002232310509F0C3C04115510509F443C0FE
:102030004130510509F0BBC082E390E0E9E9F8E0E6
:10204000C9CF992781309105C1F0009759F00297C7
:1020500009F0ADC0E8E5F9E0E4918E2F90E0E8E505
:10206000F9E007C0EAE8F9E0E4918E2F90E0EAE8B1
:10207000F9E0009709F49BC0ADCFE0E7F9E0E49107
:102080008E2F90E0E0E7F9E0F4CF4115510571F0B3
:102090004130510509F08BC089E090E0E6E3F9E0BA
:1020A00099CF82E190E0E6E4F9E094CF89E090E016
:1020B000EDE1F9E08FCF80E490E0EBECF8E08ACF3F
:1020C00080914A03882309F466CF853009F463CFF1
:1020D0008091E80083FD5FCF8091E80082FD8ECF84
:1020E0008091E80080FF84CF9091F3008091F2000E
:1020F0002115310519F08830910550F041E008971D
:1021000009F040E08091E8008E778093E80070CF7E
:1021100044914093F1003196215031090196E8CF66
:10212000803809F044C08091E800877F8093E80000
:1021300080914B038093F1009ECE811138C01091A5
:102140004E031230A0F58091E800877F8093E8006D
:1021500010934B030E94F107112311F084E005C096
:102160008091E30087FDFACF81E080934A0342E04B
:1021700061EC81E00E94100842E261EC82E00E9482
:10218000100880914A0313C080914E03813079F486
:1021900081E0933009F080E0809349031092E900D8
:1021A0008091E800877F8093E8000E94F10780918A
:1021B000E80083FF0AC08091E800877F8093E800F1
:1021C0008091EB0080628093EB00AA96E3E00C9490
:1021D0009A2A882321F00E94DE0B0E94E50D0895C3
:1021E000882339F090913702982B909337020E9400
:1021F000E50D0895882391F19CEF980F913A80F4B2
:10220000EEECF1E024ED31E09191891303C0DF01A0
:1022100011971C922E173F07B9F70E94E50D0895FC
:1022200090E2980F983050F4877091E001C0990FB8
:102230008A95EAF7892F0E94DE0BEFCF9BE5980F76
:10224000933028F490E080E00E944A090895885A6B
:102250008B3120F490E080E00E9425090895CF930F
:10226000C82F8823B1F08CEF8C0F813A00F5EEEC8B
:10227000F1E084ED91E0DF012D91C21761F08A1742
:102280009B07D1F76C2F8CEC91E00E940B090E9408
:10229000E50DCF9108952191C21303C0DF0111977D
:1022A0001C928E179F07B9F70E94E50DEBCF80E2D5
:1022B0008C0F883068F4C77021E030E001C0220F35
:1022C000CA95EAF780913702822B80933702DFCFDD
:1022D000EBE5EC0FE33040F4F0E0EC59FE4F808189
:1022E00090E00E944A09D5CFC85ACB3190F6EC2F26
:1022F000F0E0EE0FFF1FE959FE4F808191810E94AF
:102300002509C7CFB0E0A0E0E8E8F1E10C94792A14
:102310006C017B0164E670E088E70E94B927EC015C
:1023200097FD12C010E000E0F601E00FF11F84916C
:1023300064E670E00E942528EC01892B29F40F5FE8
:102340001F4F0E151F0581F70E949B28CE01CDB7A8
:10235000DEB7E8E00C94952A809130039091310328
:10236000911103C091E089270895882369F062E004
:1023700070E087E998E00E948211892B19F0809122
:10238000300308951092300380913003EBCFCF9348
:10239000C0913003809131038823D1F00E94FF085F
:1023A000605A75418F4F9F4F60932C0370932D039C
:1023B00080932E0390932F03C11108C062E070E058
:1023C00085E998E00E948211892B29F0C0913003A1
:1023D0008C2FCF91089581E080933003F7CF0F9336
:1023E0001F93CF93DF938B01EA0190914A039430BE
:1023F00061F58093E9008FEF9091E800815095FDA1
:1024000006C095ED9A95F1F700008111F5CF809106
:10241000E80085FF1AC00E94C007811111C0809199
:10242000E80085FD06C08091E8008E778093E80083
:10243000F2CFF80181918F018093F100219779F714
:102440008091E8008E778093E800DF91CF911F9113
:102450000F91089543E050E0BC0182E00E94EF112B
:102460000895CF93DF93EC0148E050E0BC0181E098
:102470000E94EF1188E0FE01A0E4B3E001900D920C
:102480008A95E1F7DF91CF9108956091570180918E
:10249000270380FF20C08091560143E0849FC00144
:1024A000112485519D4F539A2BB1277F3BB1386042
:1024B0005FB7F894FC01649FE00DF11D1124BF018A
:1024C00068177907D1F45FBF8FE594E00197F1F7C2
:1024D00000C000000895809158019091590123E0B7
:1024E000829FF0011124E551FD4F8917A0F611825A
:1024F000108212828F5F3396F8CFFC014191CF0199
:10250000E8E03BB9000000C047FF2BB9440F0000D2
:1025100000C000C000C02BB900C0EA9591F7D0CF31
:10252000B0E0A0E0E6E9F2E10C94772A7C015B01DF
:102530006A018091720201E010E08A3010F40AE032
:1025400010E0C1E0D0E0B501C701F60109958111A5
:1025500004C021960C171D072CF4CDB7DEB7EAE0B6
:102560000C94932ACC9F9001CD9F300D300D1124F7
:1025700090E080E045E34A95F1F70000019682176C
:102580009307C1F7E0CF80914502811110C080917F
:10259000D80080618093D8008AE18A95F1F700C065
:1025A0008091D90080FF0AC081E08093450281E0DC
:1025B00090914502913009F080E0089582E0809387
:1025C00045020E94A10710924A03F1CF0E94C31254
:1025D000882359F0E0913403F0913503309729F0C6
:1025E0000190F081E02D0995089580E008951F93F2
:1025F000CF93DF93182FEB010E942F11209739F40E
:10260000812F0E94FA10DF91CF911F9108958FE9D9
:102610009FE00197F1F700C000002197EFCF8111F3
:102620000CC070E0662331F060E089EA0E94F71286
:1026300081E0089560E08AEAF9CF8130C9F770E05F
:10264000662319F060E08EE4F1CF60E08BE4EECF1A
:102650000E94220E2FEF84E39CE0215080409040A6
:10266000E1F700C0000088E19CE00FB6F894A8955F
:10267000809360000FBE90936000FFCFCF92DF92F7
:10268000EF92FF926B017C010E948B09B701A601BA
:1026900088E090E00E94112BFF90EF90DF90CF90A8
:1026A0000895B0E0A0E0E7E5F3E10C94752AD82F97
:1026B000C62F142F822E0091270300FF49C080915E
:1026C00028038D1308C080912903861304C08091CC
:1026D0002A03841729F08091EA0282608093EA023B
:1026E000E02FE695F0E0E953FE4F80818093E80209
:1026F000802F8E7F8230D1F4E12FF0E0EB56F84F3F
:10270000C1112BC02491F22FE22F00FF0FC0809146
:1027100058019091590133E0839FD0011124A551B4
:10272000BD4F891708F48EC00E944512D09328032C
:10273000C093290310932A03882051F06091270346
:10274000709128038091290390912A030E943E13DF
:10275000CDB7DEB7ECE00C94912AEC2EF12CE4918D
:102760009E2ECE2ED12C26E0D29FC00111242FEF19
:1027700030E0B9010E945B2A8D2F90E0880F991FED
:10278000F5E5F69FA001F79F500D1124841B950BD2
:10279000B82EBB0CB80EA9014E195F094C9DC001A3
:1027A0004D9D900D5C9D900D1124F92FCB9DA001A6
:1027B0001124452F5527D901A41BB50BAC9DA001B1
:1027C000AD9D500DBC9D500D1124D901AB19B1091F
:1027D0005D01AE9CD001AF9CB00DBE9CB00D11242C
:1027E000AB2FBB272A1B3B0B2C9DD0012D9DB00D81
:1027F0003C9DB00D11242B2F62307105A1F050F4D7
:102800006115710509F481CF6130710581F0292FBF
:10281000F52F7BCF6430710569F080F0663071056B
:1028200009F473CFF4CF2E2FE92FFB2F6ECF2E2F6D
:10283000E52F6BCF292FFE2FEB2F67CFE92FF92D37
:10284000252F63CF1196EC9311972C931296FC933E
:1028500012978F5F139665CFE7E2F3E0438121E1A2
:10286000421B08F440E021E0628181810E94511303
:102870000895E7E2F3E0438121E1420F08F44FEFCE
:1028800021E0628181810E9451130895E7E2F3E023
:10289000628121E1621B08F460E021E043818181D3
:1028A0000E9451130895E7E2F3E0628121E1620F93
:1028B00008F46FEF21E0438181810E945113089554
:1028C000E7E2F3E0818121E04381628188500E9448
:1028D00051130895E7E2F3E0818121E043816281B1
:1028E000885F0E945113089580912B03882319F06B
:1028F000815080932B03609127037091280380916E
:10290000290390912A030E943E13089580912B037E
:10291000833018F48F5F80932B03609127037091AD
:1029200028038091290390912A030E943E13089561
:102930008091270380FF1EC08170826080932703EF
:102940008091EA0281608093EA02662351F06091EF
:102950002703709128038091290390912A030E94F4
:102960003E1320E040912A036091290380912803BF
:102970000E9451130895809127038695815009F490
:1029800081E061E00E949814089561E081E00E9476
:1029900098140895E7E2F3E083E0808311828FEFDB
:1029A000828383831482A8EEB2E012968C911297F0
:1029B000836012968C9360817181828193810E94E1
:1029C0003E130895A4E0B0E0E8EEF4E10C947D2A13
:1029D00040916602509167026091680270916902AD
:1029E0002FB7F8948091390390913A03A0913B035B
:1029F000B0913C032FBF841B950BA60BB70B11E0C6
:102A000084369105A105B10590F10E94C312882377
:102A100099F10E94FF086E5F7F4F8F4F9F4F698330
:102A20007A838B839C8380912101909122018E5A1D
:102A30009D4F4091200150E04530510510F044E099
:102A400050E0BE016F5F7F4F0E94E22A84E090E079
:102A50000E94E529182F882351F00E94FF086093F7
:102A60006602709367028093680290936902812FD7
:102A70002496E4E00C94992A0E94FF0800917302C6
:102A8000109174022091750230917602600F711FCF
:102A9000821F931FC0CF4F925F926F927F928F924F
:102AA0009F92AF92BF92EF92FF920F931F93CF939B
:102AB000DF937B01FB0140805180628073809FB770
:102AC000F8948090390390903A03A0903B03B09023
:102AD0003C039FBF84189508A608B708F4E68F1634
:102AE0009104A104B10418F4C1E0442329F1C82FD2
:102AF000880FDD0BFE0183E0EE0FFF1F8A95E1F7E3
:102B0000E050FF4F818192818E5A9D4F408150E06D
:102B10000417150708F4A801B9010E94E22ACE01A2
:102B20000E94E529C82F882339F00E94FF08F70189
:102B300060837183828393838C2FDF91CF911F9168
:102B40000F91FF90EF90BF90AF909F908F907F90EC
:102B50006F905F904F900895A1E0B0E0E2EBF5E157
:102B60000C947D2A8091300389832091650290E046
:102B700041E02817190609F440E001E010E09E0149
:102B80002F5F3F4F6EE672E086E00E944B15219664
:102B9000E4E00C94992AA8E0B0E0E1EDF5E10C94B2
:102BA0007D2A85E0E7E2F3E0DE01119601900D92C7
:102BB0008A95E1F78091E8029091E902A091EA02FA
:102BC0008E839F83A88741E08885811101C040E002
:102BD00008E010E09E012F5F3F4F6AE672E085E05B
:102BE0000E944B1581111092EA022896E4E00C94A1
:102BF000992A4F925F927F928F929F92AF92BF924B
:102C0000CF92DF92EF92FF920F931F93CF93DF93B8
:102C10000F92CDB7DEB7C62E4A015901482E880F54
:102C20005508C2010E94E529782E882309F480C046
:102C3000C20133E0880F991F3A95E1F7FC01E0509B
:102C4000FF4F438150E04115510511F041E050E044
:102C500080509F4FFC01648175816E5A7D4FCE017B
:102C600001960E94E22AF4014081518162817381C0
:102C70002FB7F8948091390390913A03A0913B03C8
:102C8000B0913C032FBF841B950BA60BB70B84366A
:102C90009105A105B10540F4B701C8010E946F0973
:102CA0009981891709F444C00C2C000CDD08C60179
:102CB0000E94E529782E811113C0712C872D0F9069
:102CC000DF91CF911F910F91FF90EF90DF90CF9008
:102CD000BF90AF909F908F907F905F904F9008959E
:102CE000C60123E0880F991F2A95E1F7FC01E05007
:102CF000FF4F438150E0E416F50608F4A701805029
:102D00009F4FFC01648175816E5A7D4FC5010E9401
:102D1000E22AB701C8010E946F0999818913CDCFBA
:102D20000E94FF08F4016083718382839383C6CF7E
:102D3000A701B801C5010E94E22AC0CFA1E0B0E01E
:102D4000E4EAF6E10C94782AEE24E394F12C08E509
:102D500012E09E012F5F3F4F4EE452E063E082E0BD
:102D60000E94F915C82E882339F100E080E01DC0CB
:102D7000D0907802D00E2D2D30E0A90149565D4F3C
:102D80007A01E1E0F0E0EC0FFD1FE00FF11D108192
:102D9000FA019081191BB12E1B149CF0912F17FD85
:102DA00090E0191B111118C00F5F9091770209175D
:102DB000F8F281110E94D50B8C2D2196E9E00C943C
:102DC000942ABA94F70180818F5F808360E08D2D13
:102DD0000E940F138C2DE0CF1F5FF701808181507F
:102DE000808361E08D2D0E940F138C2DDBCFA4E03A
:102DF000B0E0EDEFF6E10C94792A6B0184E0E82E67
:102E0000F12C03E512E09E012F5F3F4F4AE452E0B0
:102E100061E080E00E94F915882361F049815A81C0
:102E20006B817C8140934602509347026093480235
:102E300070934902409146025091470260914802C6
:102E400070914902F6014083518362837383249613
:102E5000E8E00C94952A9091840292FB222720F9B5
:102E6000281779F080FB92F9909384026091830295
:102E70007091840284E090E00E941D2B82E00E9409
:102E8000CE0C089567EE7EEF90E080E00E941D2B4F
:102E900060E082E090E00E94FF2A60E083E090E042
:102EA0000E94FF2A1092A00210929F0260E074E13B
:102EB00084E090E00E941D2B60E086E090E00E949C
:102EC000FF2A6FEF87E090E00E94FF2A40E050E089
:102ED000BA0188E090E00E94112B60E08DE090E064
:102EE0000E94FF2A40E050E0BA0188E190E00E9491
:102EF000112B60E087E190E00E94FF2A40E050E063
:102F0000BA018CE190E00E94112B70E060E080E259
:102F100090E00E941D2B40E050E0BA0188E190E073
:102F20000E94112B40E050E0BA018FE090E00E9437
:102F3000112B40E050E0BA0183E190E00E94112B98
:102F400008951F920F920FB60F9211242F933F9363
:102F50004F935F936F937F938F939F93AF93BF93A1
:102F6000CF93DF93EF93FF93D091E900DF708091CF
:102F7000EC00C82FC17080FDC0E81092E90080917C
:102F8000F000877F8093F00078940E94380E1092B2
:102F9000E9008091F00088608093F000CD2BCF7025
:102FA000C093E900FF91EF91DF91CF91BF91AF9175
:102FB0009F918F917F916F915F914F913F912F9151
:102FC0000F900FBE0F901F9018951F920F920FB683
:102FD0000F9211242F933F934F935F936F937F939F
:102FE0008F939F93AF93BF93EF93FF938091E100F3
:102FF00082FF09C08091E20082FF05C08091E1005C
:103000008B7F8093E1008091DA0080FF24C0809163
:10301000D80080FF20C08091DA008E7F8093DA0094
:103020008091D90080FF9DC080E189BD82E189BD8A
:1030300009B400FEFDCF81E080934A0380913D03F7
:10304000811109C00E94A1070E9442088091E200FC
:1030500084608093E2008091E10080FF17C080913E
:10306000E20080FF13C08091E2008E7F8093E20037
:103070008091E20080618093E2008091D8008062BC
:103080008093D80019BC85E080934A038091E100C9
:1030900084FF2BC08091E20084FF27C080E189BDBE
:1030A00082E189BD89B5982F917080FFFBCF809117
:1030B000D8008F7D8093D8008091E1008F7E80932F
:1030C000E1008091E2008F7E8093E2008091E20037
:1030D00081608093E20080914B03882309F447C00C
:1030E00084E080934A0380914A038091E10083FF4A
:1030F00027C08091E20083FF23C08091E100877F99
:103100008093E10082E080934A0310924B03809108
:10311000E1008E7F8093E1008091E2008E7F8093BA
:10312000E2008091E20080618093E20042E060E092
:1031300080E00E9410088091F00088608093F00089
:10314000FF91EF91BF91AF919F918F917F916F917F
:103150005F914F913F912F910F900FBE0F901F9055
:10316000189519BC10924A0310923D0374CF8091B8
:10317000E30087FD93E090934A03B5CF78941F92C4
:103180001FB61F9211248F939F93AF93BF9380918B
:10319000390390913A03A0913B03B0913C0301960F
:1031A000A11DB11D8093390390933A03A0933B0373
:1031B000B0933C03BF91AF919F918F911F901FBE21
:1031C0001F9018959C014FB7F89480913903909106
:1031D0003A03A0913B03B0913C034FBF821B930B7A
:1031E00008952FB7F8948091390390913A03A091F4
:1031F0003B03B0913C032FBF08950F931F93CF93D0
:10320000DF93C62FD42F022FFC0182818823A9F0DF
:10321000609356030E94F1189093550380935403D2
:10322000C77081E001C0880FCA95EAF70E94F010CC
:10323000DF91CF911F910F910895809156036813EC
:1032400034C080915403909155030E94E218883C49
:10325000910558F510E21D0FCD17B9F080E28C0FE3
:10326000883040F4C77081E001C0880FCA95EAF742
:103270000E94E910183048F481E09D2F977001C03A
:10328000880F9A95EAF70E94F01070E060E0802FB6
:103290000E94F712183060F6D77081E001C0880FE5
:1032A000DA95EAF70E94E910C3CFC77081E001C048
:1032B000880FCA95EAF7F6CFA5E0B0E0E2E6F9E1BB
:1032C0000C94752A7C01FC0183819481892B31F057
:1032D0008081918189238F3F09F02DC42596ECE0F0
:1032E0000C94912A0E940F0C182F682F89819A81C3
:1032F0000E94820C69817A81812F0E94980A8C0138
:10330000FC01E851FC47E730F10588F5E15CF44D3C
:103310000C94C62A26E241EE61EEC7010E94FD1818
:1033200080912D028770D1F2F70182818823B1F25A
:103330008091840282FFD2CF82E00E94CE0CCECF59
:1033400027E245EE65EEE9CF26E241EE60EEE5CFFD
:1033500027E245EE64EEE1CF26E241EE62EEDDCFFC
:1033600027E245EE66EED9CF28E241E0EBCFF70148
:103370008281882309F406C410925603C80190572D
:10338000839708F0E9C384E090E00E94F92A9093C3
:10339000840280938302F801E150F047E232F105A4
:1033A00020F4EA5BF44D0C94C62A8091830281607C
:1033B0008093830295C08091840288608093840208
:1033C0008FC0809183028260F3CF809183028460FA
:1033D000EFCF809183028860EBCF8091840281607F
:1033E000EDCF809184028260E9CF80918302806179
:1033F000DFCF809183028062DBCF80918302806483
:10340000D7CF0E94220E809183028068D1CF809115
:1034100083028C60CDCF809184028360CFCF809176
:1034200083028E7FC5CF80918402877FC7CF809132
:1034300083028D7FBDCF809183028B7FB9CF809136
:103440008302877FB5CF809184028E7FB7CF809132
:1034500084028D7FB3CF809183028F7EA9CF80912C
:1034600083028F7DA5CF809183028F7BA1CF0E94A5
:10347000220E809183028F779BCF80918302837F7E
:1034800097CF809184028C7F99CF8091830282FBB9
:10349000992790F921E0922790FB82F990FB83F91C
:1034A00087CF80918402982F909591708E7F892B81
:1034B00090FB81F983CF90918302892F8F7B96FFB8
:1034C000806476CF0E94220E90918302892F97FB11
:1034D00087F980586DCF61E08EE090E00E94FF2A6E
:1034E000609183027091840284E090E00E941D2B21
:1034F0000E94220E15CF60E0EFCF90918302892FBA
:103500008F7E94FF806154CF90918302892F8E7FAC
:1035100090FF81604DCF90918402892F877F93FF28
:1035200088604CCF8091D40181110FC089E2EEEC0C
:10353000F1E024ED31E09191891303C0DF0111978F
:103540001C922E173F07B9F71AC385E3F0CF80917D
:10355000270380FF15C08E7F809327036091270388
:10356000709128038091290390912A030E943E13B1
:103570008091EA0281608093EA020E944512D0CED7
:1035800081608093270361E086950E949814C8CEDD
:103590004BEB54E165EC74E10E948509C1CE45EC2A
:1035A00054E16BEB74E1F8CF40E654E16AE674E174
:1035B000F3CF4AE654E160E674E1EECF46E454E12D
:1035C00063E574E1E9CF43E554E166E474E1E4CFF7
:1035D0004CE254E169E374E1DFCF49E354E16CE28A
:1035E00074E1DACF44E754E166E874E1D5CF46E808
:1035F00054E164E774E1D0CF61E081E0C6CF0E947E
:10360000220EFFEF24E33CE0F15020403040E1F790
:1036100000C0000081E08093E00080E28093D80049
:103620001092C9008FE19EE40197F1F700C00000FD
:1036300087E090EBDC018093620790936307A0938F
:103640006407B093650788E19CE00FB6F894A895ED
:10365000809360000FBE90936000FFCF6FEF7FEF0D
:1036600090E080E00E941D2B0E942813809184022C
:1036700082FB882780F991E089270E942B17F701A8
:10368000828100811181882309F449C0C8010E9408
:103690000F0CD82E682FC8010E94820CB8018D2D06
:1036A0000E94980A0E94B70A8C01882EF701A28016
:1036B000958092943FE0932280912D028770F1F0E3
:1036C000CA2CAA20E1F0812F807F803451F080E263
:1036D000800F883098F0911004C0812F807E803256
:1036E00069F08091840282FF09C082E00E94CE0CC2
:1036F00080912D028770CC24C3948111C12CB12EEE
:10370000B2942FE0B222FBE0FB1508F474C0EB2D5D
:10371000F0E0E859F44D0C94C62A80E0AECFC80121
:103720000E94500CD82EBACF212F2F70D22E107F8E
:1037300019F0D29490EFD922AA20B9F0DD2069F0D7
:1037400080E2800F883010F0811009C0809137022C
:10375000D82AD09237020E94E50D802F4AC080916E
:103760003602D82AD0923602F6CF802F0E94FA1065
:10377000DD2009F440C0005E083010F0811004C064
:103780008D2D0E94DE0B06C0D09480913602D82287
:10379000D09236020E94E50D2EC0312F3F70D32EFD
:1037A000107F103219F0D29480EFD822882089F04F
:1037B00081E0881609F47CC0AA2009F486C099200B
:1037C00009F47CC0F701858180FFC7CF8F708583A6
:1037D00075C02091840222FD43C0AA20D9F1DD20CA
:1037E00039F080913702D82AD09237020E94E50D35
:1037F00080E00E942F11EB2DE850FF0B349710F45E
:103800000E94E612CC20A9F080912D0280FD11C00B
:10381000F70112828595859585950E94EA0CC7016E
:103820000E945C1980912D028595859585950E9451
:10383000BC0C85E0F701DE01119601900D928A958E
:10384000E1F709811A81C8010E94500CB8010E9459
:10385000980A44CD80E00E94FA10DD2061F290CFFA
:10386000AA20A1F0909138028D2D892B911003C0D0
:103870000E94F010C0CFE1E09E12FACF22FFBBCF32
:10388000891709F4B8CF80933802B5CF911006C0DC
:103890000E94D80B8D2D0E94E910ADCFF1E09F164C
:1038A00009F4A9CF8D2D0E94E9100E94D80BA3CF57
:1038B000AA2031F025E0291508F49DCF8D2DD8CF11
:1038C00034E0391508F497CFE5CF992019F3F9E3DF
:1038D0008F122AC12FEF37EE83E021503040804015
:1038E000E1F700C0000020C1812F86958695837086
:1038F00061F0813009F07FCFC8019370A11002C040
:1039000080E090E00E94250976CFC8019370A11055
:1039100002C080E090E00E944A096DCF812F837041
:1039200009F03FC0A11067CF402F429546954770E0
:10393000440F440F802F8F7090E0042E02C0880F38
:10394000991F0A94E2F730E020E004FF09C02FE05D
:1039500030E002C0220F331F4A95E2F720953095E0
:10396000169516951370123099F078F440919F02D5
:103970005091A002113039F0822B932B8423952390
:103980000E94FA0C38CF842B952B822B932BF8CFE7
:10399000822B932B20919F023091A00282279327A4
:1039A000EFCF8695AA2011F0812F8170882309F42A
:1039B00022CF402F429546954770440F440F802FE9
:1039C0008F7090E0042E02C0880F991F0A94E2F7CE
:1039D00030E020E004FF09C02FE030E002C0220FF9
:1039E000331F4A95E2F7209530951695169513707A
:1039F000123099F078F44091A1025091A202113056
:103A000039F0822B932B842395230E94B70CF3CE9D
:103A1000842B952B822B932BF8CF822B932B2091E9
:103A2000A1023091A20282279327EFCF1F70AA2014
:103A300029F0812F0E94EA0C802F1ACF802F0E943C
:103A4000E910812F0E94BC0CD6CE802F92EF8916F0
:103A500099F1981570F0E0EF8E16D1F0F1EF8F1616
:103A600091F0AA2009F45BC0911077CE812F8F715D
:103A700027C023EF821639F134EF8312F2CF809101
:103A8000840282FD2EC0812F8F71AA20D9F218C026
:103A9000AA2069F084E0891508F4ADCE1F7181E099
:103AA00090E002C0880F991F1A95E2F7B8CF95E011
:103AB000991508F4A0CEF2CF812F8F71A110C2CF3B
:103AC0000E94EA0C98CE90E080E0AA2009F49DCFF5
:103AD0001F7181E090E002C0880F991F1A95E2F7EC
:103AE00094CFAA2089F01F71812F0E94EA0C809147
:103AF000840282FF07C0E8E01E9FC001112483609A
:103B000080932D02812FDCCF81E00E94CE0CF1E06A
:103B1000F91508F070CE82E00E94CE0C6CCE992090
:103B200039F0893309F4D6CE802F0E94FA1063CE83
:103B3000812F8F7187CF85E0DE01119601900D9264
:103B40008A95E1F7F701228189819A812111CACBF7
:103B50000E94500C182FCECB0631FCE71F0729F529
:103B6000809137028A7A91E009F490E09093D40131
:103B700069E2811165E38CEC91E00E940B090E94DF
:103B8000E50DCECB06312CE7120709F4CBCC8091A2
:103B900037028272F801E052F847E531F10508F08A
:103BA0006ECDEC58F44D0C94C62A03303CE7130755
:103BB00009F454CD50F401159CE7190709F41FCD01
:103BC00001301C4709F450CD5ACD0B35FCE71F07D7
:103BD00009F4A3CD0C352CE7120709F447CD0A35BB
:103BE0001C4709F04CCD81E048CD1F93CF93DF9364
:103BF0008091FA01807F09F04BC08091F701882302
:103C000009F446C080912C02C091FB014091F5015E
:103C10005091F6016091F8017091F901D42FD523EC
:103C200016E0C817A9F190E061157105A9F1DF3F11
:103C300099F1189FF001199FF00D1124DF01A45094
:103C4000BE4F11962C911197251326C02C91241349
:103C500023C012962C91129721111EC013962D91FC
:103C60003C91261B370B283C3105B0F48091FA01BA
:103C70008F7080618093FA01EF5FFD4F80818F70BC
:103C80008061808385EF91E00E945C190E94050CA1
:103C9000DF91CF911F91089501968770C2CFA1E166
:103CA000B0E0E5E5FEE10C94752A8C0185E0F801B1
:103CB000DE011D9601900D928A95E1F7F801E280F0
:103CC00085EF882E81E0982E4091F8015091F901FE
:103CD0004115510509F430C19091F5012091F6018B
:103CE000892F82238F3F09F427C1D080C180A38010
:103CF000B480F090F701B501641B750BFF2009F447
:103D0000E7C08091FA01382F307F683C710508F0D8
:103D1000ABC0311178C0FE2C2C1114C09D1112C003
:103D2000E11010C08F7080618093FA01C4010E947D
:103D30005C198091FA01F80185838F2D6196ECE082
:103D40000C94912AA114B104C9F18D2D8C218F3FBF
:103D5000A9F181E08E2580FF05C04E2D6C2D8D2DA3
:103D60000E94E50BA114B10459F18D2D8C218F3FD8
:103D700039F181E08E25F82FF170BF2E80FF39C018
:103D80004E2D6C2D8D2D0E94E50BA82E811131C07A
:103D9000DD86CE868D859E850E94430C292F229537
:103DA0002F70243078F49F702230A8F09923B9F056
:103DB000F8019581907F99F4FA2CBFCF80E0CBCFAA
:103DC00080E0D9CF2A5F2F70223068F0C8010E94AE
:103DD0005C19AB2CF1CF992311F0882369F3805E35
:103DE000883050F3F3CF803F38F3815F833070F732
:103DF000E3CFEE2009F4A1CF8091FA018160809396
:103E0000FA01F12C9ACF2C1105C09D1103C0EE20B0
:103E100009F477C0C8010E94FF0C882309F1EE2045
:103E2000F9F08091FA01803270F02091F501309123
:103E3000F60138872F831986BB86AA868C87CE0128
:103E400007960E945C1986E0F801A5EFB1E00190A9
:103E50000D928A95E1F70E94F51DFF24F3946DCF32
:103E6000C8010E945C19F9CF31110AC085EF91E0B9
:103E70000E945C1986E0F40111928A95E9F7C1CF9E
:103E80002C110EC09D110CC0E1100AC08583C80121
:103E90000E945C1986E0F40111928A95E9F74DCFF2
:103EA000C8010E94FF0C8823D9F2EE20C9F280914C
:103EB000FA01803240F22091F5013091F6013A8307
:103EC00029831B82BD82AC828E83CE010196B9CF3D
:103ED000683C7105F8F6FE2CEE2011F22C111EC084
:103EE0009D111CC08091FA0180FD0FC0982F907F1A
:103EF00061F08583903F31F0982F907F905F8F70B5
:103F0000892B8583C8010E945C1986E0F801A5EF22
:103F1000B1E001900D928A95E1F70FCFC8010E94A0
:103F2000FF0C811190CF8091FA0181608093FA019A
:103F3000C8010E945C1901CFEE2009F491CFC8019D
:103F40000E94FF0CF82E882309F48ACF86E0F8013E
:103F5000A5EFB1E001900D928A95E1F78091F5010E
:103F60009091F6010E94430C0E94F51DE6CEA7E158
:103F7000B0E0EDEBFFE10C947E2A4B8B5C8B6D8BFC
:103F80007E8B8F8B6111109236021A8A198A85E016
:103F9000FE017396DE011D9601900D928A95E1F760
:103FA00086E0FE013D96DE01179601900D928A95FE
:103FB000E1F7CE0107960E944F1E811112C086E0E4
:103FC000FE013796DE01119601900D928A95E1F778
:103FD0008A859B85892B29F088859F8189238F3F3E
:103FE00081F516E080912C029091FB01891317C096
:103FF0006796E3E00C949A2A96E0929FD001939FF3
:10400000B00D1124A450BE4FFE01319601900D92C7
:104010009A95E1F78093FB010E94050CE2CF819F06
:10402000C001112484509E4F0E944F1E882301F32B
:1040300080912C0290E001968770992780932C0242
:10404000D1CF2091FB0130E0C901019687709927FB
:1040500040912C024817190679F60E94220E109200
:10406000FB0110922C0286E0E5EFF1E0DF011D92EA
:104070008A95E9F7B6CFA0E1B0E0E1E4F0E20C9474
:10408000742A8E01075F1F4F88E0D8011D928A9520
:10409000E9F780E4C82E81E0D82EF12CE12CAA2487
:1040A000A394B12C20E4822E21E0922EF60181917E
:1040B0006F018F3F09F442C0F894E82FE295EF704A
:1040C000F0E021A18F70A50102C0440F551F8A9511
:1040D000E2F7CA01922F982B91A392A18095892390
:1040E00082A3789400C0E8E3F1E0712C31E02191E3
:1040F0002F3F09F46BC0A22FA295AF70B0E090964D
:104100008C9190E02F7002C0959587952A95E2F7E3
:1041100080FD5CC0832F782A330F8E169F0639F7F7
:10412000F601319780818F3F11F00E949C0950EA7F
:104130005A95F1F7F801EE0DFF1D70828FEFE81A26
:10414000F80AA4E0EA16F10409F0B0CF48E050E024
:10415000B80189E792E00E94D52A009741F028E053
:10416000F801A9E7B2E001900D922A95E1F70091DC
:104170008202892B69F181E080933D020E94F1184F
:1041800090933C0280933B0280913B0290913C02D1
:104190000E94E218059700F110E00A571D4F44E015
:1041A00050E069E772E0C8010E94D52AF12C892B02
:1041B00051F084E0E9E7F2E0D80101900D928A9590
:1041C000E1F7FF24F39410923D0207C080E0A3CFF3
:1041D00080913D028111D8CFF12C0E94C312E82EAC
:1041E000E0918202882309F494C019821A821B820A
:1041F0001C820E2F10E00A571D4F809172028A30E8
:1042000008F051C047EF56E1BE016F5F7F4FC80114
:104210000E949012882309F46BC04EE956E1BE015A
:104220006F5F7F4FC8010E949012882309F460C01D
:1042300042EE54E1BE016F5F7F4FC8010E949012B1
:10424000882309F455C04BEC55E1BE016F5F7F4FE9
:10425000C8010E949012882309F44AC04CEA55E133
:10426000BE016F5F7F4FC8010E949012882309F43E
:104270003FC0109272028091810290E044E050E0D1
:10428000BE016F5F7F4F8A579D4F0E94D52A21E064
:1042900020934402892BF1F4E12C8E2D8F29609616
:1042A000EDE00C94902A80913E0290913F020E9492
:1042B000E218843F914008F0A5CF80914402882302
:1042C00059F384E0FE013196DF011D928A95E9F7EA
:1042D00010924402E0918102F0E0EA57FD4F89819B
:1042E0009A81AB81BC8180839183A283B383D5CF34
:1042F000809172028F3F31F08F5F809372028A301B
:1043000008F4B9CF0E94F11890933F0280933E02C7
:10431000D4CFF0E0EA57FD4F84E0A3E5B2E001908E
:104320000D928A95E1F764E070E083E592E00E94E7
:104330006F098093520240919C0250E060919B0271
:1043400070E069567D4FCE0101960E94E22A898174
:104350008093580261E070E0CE0101960E946F09DF
:10436000809357028090590290905A02A0905B026D
:10437000B0905C028091400290914102A091420273
:10438000B091430288169906AA06BB06D1F0809226
:10439000400290924102A0924202B09243020E94D7
:1043A000C31281110EC00E94FF08861A970AA80A3C
:1043B000B90A8092730290927402A0927502B09230
:1043C000760288E0EDE5F2E0DE01119601900D92B3
:1043D0008A95E1F72981822F86950A81DB80CC803E
:1043E0001885109264021123A1F010FF0AC0909169
:1043F000270320FF15C091609093270360E00E947F
:10440000981411FF06C020E04C2D6D2D802F0E94C6
:10441000511380916502882371F00E94C7113DCF2E
:104420009E7F909327038091EA0281608093EA0245
:104430000E944512E6CF0E94AC112FCFA5E0B0E05C
:10444000E4E2F2E20C947D2A0E94F1188C01809142
:10445000390290913A0280179107A1F08FEF89837A
:104460008A831B820E94F1188160782F9D838C8340
:1044700049815A816B818D810E94B71F10933A0246
:10448000009339022596E4E00C94992A1F921FB6F6
:104490001F9211248F939F93AF93BF938091380302
:1044A000811113C08091390390913A03A0913B038D
:1044B000B0913C034196A11DB11D809339039093A7
:1044C0003A03A0933B03B0933C03BF91AF919F91FC
:1044D0008F911F901FBE1F901895CDB7DEB72A97FA
:1044E0000FB6F894DEBF0FBECDBF85B7806885BF1D
:1044F00085B7806885BF84B7877F84BF0FB6F8947F
:10450000A89580916000886180936000109260009F
:104510000FBE80E890E00FB6F8948093610090930E
:1045200061000FBE8AE999E09093CB018093CA01A4
:104530000E94A1070E9442088091E200846080935B
:10454000E200789480914A038823A1F01091E90059
:104550001F709091EC00892F817090FD80E8182BDE
:104560001092E9008091E80083FD0E94380E1F70D0
:104570001093E90082E084BD93E095BD9AEF97BD6A
:1045800080936E0010927302109274021092750262
:104590001092760223982B9A6E9A769825E02A95A7
:1045A000F1F7000083B183FB882780F96E98769A33
:1045B00030EA3A95F1F780934401809144018823D1
:1045C00009F461C0109256018AE0809357010E945D
:1045D000C31281110E94F9289091440181E098272B
:1045E00090939B02482F491B40937802909144017D
:1045F00080939C02909144018093770280914401C2
:10460000811106C085EF80934E0184EF80934D01A8
:1046100020914E01E22FE295EF70F0E061A12F7042
:1046200081E090E0AC0101C0440F2A95EAF7342FF5
:104630003095362331A322A1242B22A320914D01B2
:10464000E22FE295EF70F0E031A12F7001C0880FEA
:104650002A95EAF7982F9095932391A392A1892BFD
:1046600082A38FE891E00197F1F700C0000010915C
:104670009C026DE972E04EE451E08DE4E82E81E0A9
:10468000F82EFB012CC08AE0809356019ECFDA0100
:104690002D91AD01822F82958F7090E0DC01909674
:1046A0008C9190E02F7002C0959587952A95E2F73E
:1046B0008170D7019D917D01292F22952F7030E0C7
:1046C000D90190962C9130E09F7002C035952795C6
:1046D0009A95E2F790E020FD92E0892B81938E2F4E
:1046E000861B8117A0F280914401811120C084E9CA
:1046F0008093400186E68093410187E980934201DF
:1047000086EC8093430188E0ECE5F1E0DE01119650
:1047100001900D928A95E1F7FE013196A8E3B1E090
:10472000CE01099621912D938E179F07D9F780917D
:10473000440194E0811190E09093820284E0891B0F
:104740008093810200E411E0F80181918F018F3F95
:1047500011F00E949C09F1E004341F07A9F708E357
:1047600011E0D8018D918D018F3F11F00E949C09BD
:10477000B1E000341B07A9F788E0E6E8F2E0DF01CA
:10478000282F1D922A95E9F7E9E7F2E0DF011D9253
:104790008A95E9F790E080E00E94F92A873E9E4FD3
:1047A00011F00E94421782E090E00E94EB2A809371
:1047B0008E0284E090E00E94F92A90938402809314
:1047C000830283E090E00E94EB2A90E00E94FA0CC2
:1047D00082E08093E30280E8809357030E94B3272E
:1047E0006DE070E08FEB92E00E948211892BE9F579
:1047F0008091E30263E070E081FDEAC08CEB92E01F
:104800000E948211892B89F56DE070E08CEA92E0BC
:104810000E948211892B49F50E94FF08605A754158
:104820008F4F9F4F60932C0370932D0380932E0323
:1048300090932F03EAE5F3E080E094E0DF019C0130
:104840001D9221503040E1F7F0936107E09360073B
:104850008FEF9FEF909359038093580381E08093EB
:104860003103809330031092E4028091850281111C
:1048700039C090E080E00E94F92A873E9E4F21F0E7
:104880000E9442170E94CA1488E090E00E94F32A16
:1048900060932703709328038093290390932A033E
:1048A0008091EA0283608093EA026E7F71F40E9435
:1048B000CA1488E090E00E94F32A60932703709363
:1048C00028038093290390932A030E948B098091E7
:1048D000270380FF04C060E086950E94981481E061
:1048E000809385020E94C312811102C00E94FC289D
:1048F00085E491E0909335038093340360E4C62E01
:1049000044244394512C80914A0300E112E1853004
:1049100009F49DC00E943B203FE8E32E32E0F32ED5
:1049200046E8842E42E0942E5FE9A52E51E0B52E94
:10493000B5019401F7019191D9018D919D01DB01A0
:104940004D91BD01842347E952E04E175F0709F4FA
:1049500088C0981781F30E94C312282E00E0D4016A
:104960001D914D01F50181915F011823D7013D9003
:104970007D01311629F1D12C772473943126832DB2
:104980008721B1F02220A1F0D9820A8391E0872DFE
:10499000812309F490E09B830E94F1188160782FB5
:1049A0009D838C8349815A816B818D810E94B71FC1
:1049B000D394770CB8E0DB12E2CFF7013197108384
:1049C0000F5F083061F60E94FF08BB24B3944EC00D
:1049D00089EB92E015CF80914A03843029F10E943F
:1049E000AC111092380348E150E00FB6F894A89546
:1049F000409360000FBEC092600083B7817F8460E7
:104A000083BF83B7816083BF7894889583B78E7F97
:104A100083BF0FB6F894A895809160008861809359
:104A20006000109260000FBE80914903882379F0E6
:104A30000E943B20E6E8F2E0AFE9B1E081919D9170
:104A4000892309F07AC252E0EE38F507B9F7809170
:104A50004A03853009F4BFCF0E94220E0E94E6125D
:104A600059CF981378CF0E941E22B12C0E94C312F6
:104A7000E12CD12C80919C02E81608F468C0D1107A
:104A80000E94D50B80913103882309F41EC18091C7
:104A9000E5029091E6020E94E218C29708F4F5C080
:104AA0000E94F1189093E6028093E5028AE593E074
:104AB00090936107809360070E94C312882309F4D2
:104AC00027C185E597E00E94D70D8EE497E00E940C
:104AD000D70D87E497E00E94D70D8FE397E00E94FF
:104AE000D70D8091A1029091A20220919F02309156
:104AF000A002822B932B292F3327E0E021153105CB
:104B000011F0C901E8E09C0104E0369527950A956B
:104B1000E1F72115310511F0EC5FC9019C013695D3
:104B20002795369527952115310511F0EE5FC901BE
:104B300096958795892B09F0EF5F8CEF96E0E7302B
:104B400008F086C0F0E0E757F44D0C94C62A0E2D0D
:104B500010E0F801E25BFE4F8081E82FE295EF70F4
:104B6000F0E0E0A1F0E08F7002C0F595E7958A953E
:104B7000E2F7E170D801A35BBE4F2C91A22FA29562
:104B8000AF70B0E090968C9190E02F7002C0959538
:104B900087952A95E2F780FD51C080E08E2BD801E1
:104BA000A356BD4FEC919E2F9370891709F444C012
:104BB000EE0FEE0FE82BEC93F0909B02FE0CEF70E3
:104BC000F0E0E955FE4F07561D4F8081F8019081B6
:104BD000890F8083A12C843084F0EF2DF0E0E9561A
:104BE000FD4F80818F5F80830E94C312A82E88238F
:104BF00039F160E08F2D0E940F13D8018C918D3F09
:104C000084F4EF2DF0E0E956FD4F808181508083E0
:104C10000E94C312A82E8823B1F061E08F2D0E945C
:104C20000F13F8018081082E000C990B64E070E0EE
:104C30000E94B22A8083DA28E3941CCF82E0AECFB0
:104C4000AA24A394DACFAA24A394EBCF87E397E016
:104C50000E94D70D0E94E612182F8CEE96E010FFEE
:104C600002C084EF96E00E94D70D8CED96E011FF14
:104C700002C084EE96E00E94D70D8CEC96E012FF05
:104C800002C084ED96E00E94D70D80915803909168
:104C90005903892B09F078C0809130038823A9F04B
:104CA0000E94FF0800912C0310912D0320912E03E8
:104CB00030912F03601B710B820B930B6F3F7F4F63
:104CC0008F4F9F4710F40E94AC11B11001C0D1105A
:104CD0000E94C7110E94E6129091E702891709F419
:104CE00012CE8093E7020E94FF080DCE8FE297E07C
:104CF000AFCF83E297E0ACCF8EE197E0A9CF89E117
:104D000097E0A6CF8FE097E0A3CF87E097E0A0CF12
:104D100080916007909161078A5593409C013C5FA8
:104D200021303440A0F020E034E0281B390B4091C2
:104D3000580350915903ECECF2E0280F391F821709
:104D4000930740F050935903409358039ECF20E0BF
:104D500034E0EDCF6491DC01A65ABC4F7C9167171B
:104D600081F06C93BC01A6E076956795AA95E1F772
:104D7000D20102C0AA0FBB1F6A95E2F7BD014A2B00
:104D8000572B01963196DBCF80913103882309F4AC
:104D900083CF8091E40281117FCF0E94C7112091BF
:104DA0005803309159032115310509F475CF80E07E
:104DB000082F10E07201082E02C0EE0CFF1C0A94AE
:104DC000E2F7A70142235323452B11F48F5FF0CF65
:104DD0009091E30290FF99C0880F880F880F80930D
:104DE000510110925401895F8093520187E08093B2
:104DF000550124E630E047E050E06FE471E088E7D9
:104E00000E945328892B09F047CFA80126E0440FC0
:104E1000551F2A95E1F78091E30280FF87C0E3EAFE
:104E2000F2E0DF012C2D1D922A95E9F78FEB91E03E
:104E30009A87898707EB11E0A985BA852D91BA87F2
:104E4000A987F80121908F01240E352E311CC10154
:104E5000865A9C4F1C01E22FF0E0ED55FD4F30E0EB
:104E600020E097E0992E921AA42C022E01C0AA0CE1
:104E70000A94EAF7310190E0D3018D913D018A2136
:104E8000692D691B6770862E062E000C770BB82FD4
:104E900001C0BB0F8A94EAF78B2E71956195710959
:104EA0006770772701C086956A95EAF7882A80811E
:104EB000882A80829F5F9830F9F62F5F3F4F3196A6
:104EC0002830310571F6E7ECF1E029853A85E217E3
:104ED000F30709F0B1CF04E610E020E430E043EA44
:104EE00052E060E488E70E947428892B09F0D4CE50
:104EF000E094F0948091580390915903E822F922AC
:104F0000F0925903E0925803C7CE8295880F880F1C
:104F10008074809351019801369527952093540110
:104F2000815C809352011092550163CF465A5C4FC9
:104F300004E610E020E430E0D4CF09BD19BD09B487
:104F400000FEFDCF8091D8008F7D8093D8008091A6
:104F5000E00082608093E0008091E00081FDFCCF62
:104F60000E94220E74CD1092B9008CE08093B8009C
:104F70000895B0E0A0E0EFEBF7E20C94762AB82EAB
:104F8000EB010E94F1186C01EE24E394F12CC43182
:104F9000D10560F025E0E22EF12CCF3FDC0731F0A7
:104FA000CE0164E170E00E945B2A7B0184EAA82EB6
:104FB00094E8992E1092BC00A092BC000E94F118B7
:104FC0008C018091BC0087FF0DC08091B900887F63
:104FD0008830F9F08091B900887F8031D1F00FEFEF
:104FE0001FEF08C0C8010E94E218E816F90648F74A
:104FF0000EEF1FEFCF3FDC07E9F2C6010E94E21877
:10500000C817D907B8F6C801CDB7DEB7EBE00C94E6
:10501000922AB092BB009092BC000E94F1188C01C1
:105020008091BC0087FF0AC08091B900887F8831D9
:1050300011F08034A1F610E000E0E5CFC8010E9435
:10504000E218E816F90660F7D3CF0F931F93CF93BA
:10505000DF93EB018093BB0084E88093BC000E9447
:10506000F1188C018091BC0087FF11C02091B9001C
:10507000287F81E090E0283211F490E080E0919563
:1050800081959109DF91CF911F910F910895CF3FA5
:10509000DC0741F3C8010E94E218C817D90710F7CE
:1050A0008EEF9FEFEFCFB0E0A0E0E9E5F8E20C94DF
:1050B000792A6B018A017901B9010E94B927E601B9
:1050C0000C0D1D1DC017D10711F097FF08C024E972
:1050D0002093BC00CDB7DEB7E8E00C94952AB70169
:1050E00089910E942528EECFB0E0A0E0EAE7F8E23F
:1050F0000C94792AC62F6A017901B8010E94B92758
:1051000097FD0CC0B8018C2F0E942528E601EC0CFD
:10511000FD1CCE15DF0511F097FF08C024E9209390
:10512000BC00CDB7DEB7E8E00C94952AB8018991B0
:105130000E942528EECF84E98093BC0008958EE17B
:105140004A9B02C08150E1F74A9BFECF08955A98CE
:1051500080E28A95F1F75A9A0895FC013BE03A956E
:10516000F1F798E020E080E031E040E14A95F1F786
:10517000880F4A9B02C08160232742E04A95F1F7DD
:10518000000040E14A95F1F7915079F790E19A9546
:10519000F1F799B132E03A95F1F7000040E14A9514
:1051A000F1F792FB992790F992272081920F908333
:1051B0000895A1E0B0E0EFEDF8E20C947B2A1982AB
:1051C0008C017C01E60EF11C0E151F0541F481E0F7
:1051D0009981911180E02196E6E00C94972A0E9433
:1051E0009F28CE0101960E94AD28F80181938F017E
:1051F000EBCF529A5A9A089552985A9AEA9AE9E647
:10520000F0E080818F7C808308956150770B91E07E
:1052100001C0990F6A95EAF720E031E0911108C0CA
:10522000222391F05A9A80E28A95F1F75A980895CC
:10523000492F482339F05A9A232740E24A95F1F73B
:105240009695ECCF5A98F9CF5A98EDCFFF920F93DD
:105250001F93CF93DF93EC018C01060F111DC01734
:10526000D10729F4CDB7DEB7E5E00C94982AF99080
:105270000E94A72868E08F2D0E940529F0CF1F9279
:105280000F920FB60F9211240F931F932F933F93FA
:105290004F935F936F937F938F939F93AF93BF933E
:1052A000EF93FF93CF93DF930F92CDB7DEB71982C1
:1052B0000E949F28CE0101960E94AD28082F0695D6
:1052C00006950695282F22952570902F9570290F09
:1052D000922F937026952695920F98279770898123
:1052E000982B09F05CC0083008F059C080E18A951D
:1052F000F1F75A9A529A82E08A95F1F700C05A98CB
:1053000088E0089F80011124D801A050BF4F169655
:10531000ED91FC9117973097A9F060919D017091E4
:105320009E0114962D913C911597260F371F1196CB
:105330008D919C911297680F791F13964C9113973A
:105340008C910995F801E050FF4F6381662351F07D
:1053500020919D0130919E0184819581820F931F40
:105360000E9426290E94A72880E18A95F1F75A9881
:1053700052985A9A80E18A95F1F7F801E050FF4F70
:105380006081662351F020919D0130919E018181C1
:105390009281820F931F0E94D9280E949F280F900C
:1053A000DF91CF91FF91EF91BF91AF919F918F913D
:1053B0007F916F915F914F913F912F911F910F912D
:1053C0000F900FBE0F901F9018950F931F93CF93C0
:1053D000DF93EC0108970CF04CC0F894529A5A985D
:1053E00085E08A95F1F700009C2F969595708C2F9B
:1053F0008570980F892F83709695969523E0CC0F32
:10540000DD1F2A95E1F7980F8E01092B0E94A7282E
:1054100000C068E0802F0E94052980E18A95F1F79D
:1054200052985A9A4A9B1EC087E090E04A991CC045
:10543000FE01E050FF4F63816623F9F020919D014A
:1054400030919E0184819581820F931F0E94D928FB
:10545000811113C0529A5A9A7894DF91CF911F917B
:105460000F91089500C0DECF019729F4529A5A9AFD
:10547000789480E0F2CF00C0D9CF0E949F2880E2CC
:105480008A95F1F75A98529A80E18A95F1F7C050BF
:10549000DF4F6881662351F020919D0130919E017C
:1054A00089819A81820F931F0E9426290E94A72832
:1054B000789481E0D2CFAA1BBB1B51E107C0AA1F81
:1054C000BB1FA617B70710F0A61BB70B881F991FA5
:1054D0005A95A9F780959095BC01CD0108952F921A
:1054E0003F924F925F926F927F928F929F92AF9274
:1054F000BF92CF92DF92EF92FF920F931F93CF93C1
:10550000DF93CDB7DEB7CA1BDB0B0FB6F894DEBF57
:105510000FBECDBF09942A88398848885F846E847D
:105520007D848C849B84AA84B984C884DF80EE80C7
:10553000FD800C811B81AA81B981CE0FD11D0FB6D0
:10554000F894DEBF0FBECDBFED010895991B79E041
:1055500004C0991F961708F0961B881F7A95C9F703
:105560008095089597FB072E16F4009407D077FDD9
:1055700009D00E945B2A07FC05D03EF490958195E6
:105580009F4F0895709561957F4F0895EE0FFF1F0F
:105590000590F491E02D0994FB01DC0102C0059017
:1055A0000D9241505040D8F70895FB01DC0104C032
:1055B0008D910190801921F441505040C8F7881B0B
:1055C000990B0895FB01DC0102C001900D9241503E
:1055D0005040D8F70895F999FECF92BD81BDF89A51
:1055E000992780B50895A6E1B0E044E050E00C941E
:1055F000252BA8E1B0E042E050E00C94252B262FAB
:10560000F999FECF92BD81BDF89A019700B40216B8
:1056100039F01FBA20BD0FB6F894FA9AF99A0FBE66
:1056200008950396272F0E94002B0E94FF2A252F02
:105630000E94002B242F0C94002B0196272F0E94F0
:10564000002B0C94FF2ADC01CB01FC01F999FECF61
:1056500006C0F2BDE1BDF89A319600B40D924150FA
:105660005040B8F70895F894FFCF170F3F0FD710A9
:105670003F0FD710720F930FD71090109D10A419E1
:10568000A8198A19A019AC19B019B4190F1A841ADB
:10569000171AE119E5191B1AE9191F1A2B1AF5191E
:1056A0007D1AF9192F1AFD19331A5B1A011A371AC4
:1056B000621A071A3D1A451AED19231AF119271A09
:1056C0000B1A411A511A6B1A7B1ADB19131A8B1A0F
:1056D000941B941BCD1BCD1B741CFB1BFB1BFB1BCA
:1056E0008E1C161D251D251DA71AC81ACF1AD41ADF
:1056F000D91ADE1AE31AE81AED1AF21AF71AFC1A86
:105700009019901990199019901990199019901951
:1057100090192626762679267C267F2682268526BF
:105720000000000100000000000000040100000073
:10573000000000010500000000000001060000005C
:105740000407000000000000080B0000000000003B
:10575000011300000000000032363534C69766940D
:10576000F6F7313301FC083112FB082A12F5F40078
:1057700021007F2200070014001414013435363252
:105780003331F7F6818283E200E900EA00B500B622
:1057900000B700CD008301CC008A01920194012161
:1057A00002230224022502260227022A02B300B4A1
:1057B000006F0070009F01CB019F02A0025202FC0B
:1057C000FCFF2FFCFCFF2F00FF0100010000FFFF8A
:1057D0000000010001FF00000810182028303838B0
:0A57E0003028201810080000010016
:00000001FF
