:100000000C9463070C949B070C949B070C94C429D5
:100010000C949B070C949B070C949B070C949B07D8
:100020000C949B070C949B070C94B9170C947517B0
:100030000C94C1220C949B070C949B070C949B0777
:100040000C949B070C949B070C949B070C949B07A8
:100050000C949B070C9492180C949B070C949B0790
:100060000C949B070C949B070C949B070C949B0788
:100070000C949B070C949B070C949B070C949B0778
:100080000C949B070C949B070C949B070C949B0768
:100090000C949B070C949B070C949B070C949B0758
:1000A0000C949B070C949B070C949B07000000008A
:1000B0001700150008001A001400290000000000B5
:1000C0000A0009000700160004002A00E1002C4184
:1000D0000500190006001B001D00E10002512C4123
:1000E0002800E0000000E300000000000000000025
:1000F0001C0018000C00120013003100000000006A
:100100000B000D000E000F003300340033002B00F5
:10011000110010003600370038002D0003512B006D
:100120004C00E4000000E7000000000000000000B8
:10013000310230022F021F001E00290000000000C3
:10014000350227022602210200002A0000002C00AE
:10015000230230002F0000000000E10000002C000E
:100160002002E0000000E3000000000000000000AA
:10017000000000000000000000000000000000007F
:1001800024022E022D0025022202000000002B0076
:1001900035022E00360037003800000000002B002A
:1001A0004C00E4000000E700000000000000000038
:1001B0002200210020001F001E0029000000000076
:1001C000A900BB00AE00BC0000002A0000002C000B
:1001D000AA00F100F200F3000000E10000002C0092
:1001E000A800E0000000E3000000000000000000A4
:1001F00023002400250026002700FD000000000049
:100200005000510052004F000000FE0000002B0083
:10021000EF00EE00ED00F0000000FF0000002B00FA
:100220004C00E4000000E7000000000000000000B7
:10023000CA5CCC5CC85CC45C3D003A0000000000B5
:10024000CB5CCD5CC95CC55C3E003B0000002C0073
:1002500000000000000000003F003C0000002C00F7
:10026000A600E0000000E300000000000000000025
:10027000CE5CCF5CD05CD15C40004300000000004D
:10028000D55CD45CD35CD25C4100440000002B0000
:1002900000000000000000004200450000002B00AC
:1002A000A700E4000000E7000000000000DA12816F
:1002B000FFD9F1DB20A4A62EAF00A0C000A1C8008A
:1002C000AED580A83FD300408D1420000000000070
:1002D0000000000000000000008080C0E0F07078A6
:1002E000383C1C1E0E0E0E070707070707070707F7
:1002F000070707070707070E0E0E1E1C3C3878700D
:10030000F0E0C0808000000000000000000000005D
:1003100000000000000000000000000000000000DD
:1003200000000000000000000000000000000000CD
:1003300000000000000000000000000000000000BD
:1003400000000000000000000000000000000000AD
:10035000000000C0E0F07C3E1F0F07030180C0E0FA
:10036000F078383C1C1E0E0E070787E77F1FFFFF43
:100370001F7FE78707070E0E1E1C3C3878F0E0C091
:10038000800103070F1F3E7CF0E0C000000000006A
:10039000000000000000000000000000000000005D
:1003A000000000000000000000000000000000004D
:1003B000000000000000000000000000000000003D
:1003C000000000000000000000000000000000002D
:1003D000F0FCFF1F07010000C0F0FCFEFFF7F3B1C7
:1003E000B03030303030303078FE87010000FFFF11
:1003F00000000187FE7830303030303030B0B1F35B
:10040000F7FFFEFCF0C0000001071FFFFCF000003A
:1004100000000000000000000000000000000000DC
:1004200000000000000000000000000000000000CC
:1004300000000000000000000000000000000000BC
:10044000000000000000000000000000000000FFAD
:10045000FFFF0000000000FEFFFF0101071E78E122
:1004600081838386868C8C9898B1B7FEF8E0FFFF75
:10047000E0F8FEB7B198988C8C8686838381E1780A
:100480001E070101FFFFFE0000000000FFFFFF004C
:10049000000000FFFF0000C0C030300000F0F0009E
:1004A0000000000000F0F00000F0F0C0C03030307C
:1004B00030C0C000003030F3F30000000000003016
:1004C0003030303030C0C00000000000000000FFBD
:1004D000FFFF00000000007FFFFF8080E0781E87A4
:1004E00081C1C16161313119198DED7F1F07FFFF96
:1004F000071F7FED8D191931316161C1C181871EDF
:1005000078E08080FFFF7F0000000000FFFFFF0019
:100510000000003F3F03030C0C30300000000033AC
:1005200033333333330F0F00003F3F000000000030
:10053000000000000030303F3F303000000C0C3332
:1005400033333333333F3F0000000000000000002E
:100550000F3FFFF8E0800000030F3F7FFFEFCF8DDC
:100560000D0C0C0C0C0C0C0C1E7FE1800000FFFF2E
:10057000000080E17F1E0C0C0C0C0C0C0C0D8DCFC0
:10058000EFFF7F3F0F03000080E0F8FF3F0F000008
:10059000000000000000000000000000000000005B
:1005A000000000000000000000000000000000004B
:1005B000000000000000000000000000000000003B
:1005C000000000000000000000000000000000002B
:1005D00000000003070F3E7CF8F0E0C08001030735
:1005E0000F1E1C3C38787070E0E0E1E7FEF8FFFF7A
:1005F000F8FEE7E1E0E0707078383C1C1E0F07035E
:100600000180C0E0F0F87C3E0F070300000000000E
:1006100000000000000000000000000000000000DA
:1006200000000000000000000000000000000000CA
:1006300000000000000000000000000000000000BA
:1006400000000000000000000000000000000000AA
:10065000000000000000000000010103070F0E1E53
:100660001C3C3878707070E0E0E0E0E0E0E0E0E052
:10067000E0E0E0E0E0E0E070707078383C1C1E0ED6
:100680000F0703010100000000000000000000004F
:10069000000000000000000000000000000000005A
:1006A000000000000000000000000000000000004A
:1006B000000000000000000000000000000000003A
:1006C00000000000000000000000000020202020AA
:1006D000202020005343524C434B20002020202058
:1006E000202020004341504C434B2000202020205C
:1006F000202020004E554D4C434B2000556E646524
:1007000066696E65640A0041646A7573740A00461E
:10071000756E6374696F6E0A0053796D0A004E61DD
:10072000760A00436F6C656D616B2D44480A004486
:10073000766F72616B0A005157455254590A004C4A
:10074000617965723A2000726576320A0A004B7947
:100750007269612000808182838485868788898A86
:100760008B8C8D8E8F9091929394A0A1A2A3A4A51F
:10077000A6A7A8A9AAABACADAEAFB0B1B2B3B4C096
:10078000C1C2C3C4C5C6C7C8C9CACBCCCDCECFD0E1
:10079000D1D2D3D400000101010101010101010204
:1007A0000202020202020202030303030303030321
:1007B00004040404040404050505050506060606EC
:1007C00006070707070708080808090909090A0AA8
:1007D0000A0B0B0B0C0C0C0D0D0D0E0E0E0F0F0F4C
:1007E00010101111111212131314141515161617D7
:1007F00017181819191A1A1B1B1C1D1D1E1E1F2045
:1008000020212222232424252626272829292A2B91
:100810002C2D2D2E2F3031323233343536373839B6
:100820003A3B3C3D3E3F40414243444546474849B0
:100830004A4C4D4E4F50515354555658595A5B5D82
:100840005E5F616264656668696B6C6D6F70727320
:100850007577787A7B7D7E8082838587888A8C8E87
:100860008F91939596989A9C9EA0A2A3A5A7A9ABB9
:10087000ADAFB1B3B5B7BABCBEC0C2C4C6C9CBCDAB
:10088000CFD1D4D6D8DBDDDFE2E4E7E9EBEEF0F35D
:10089000F5F8FAFDFF00AF00AE05010980A1018562
:1008A0000319012AB700150126B7009501751081BB
:1008B00000C0050C0901A101850419012AA0021537
:1008C0000126A002950175108100C005010906A14D
:1008D00001050719E029E715002501950875018133
:1008E000029501750881010507190029FF150026E9
:1008F000FF00950675088100050819012905950571
:1009000075019102950175039101C009023B000236
:100910000100A0FA090400000103010100092111EE
:1009200001000122400007058103080001090401BC
:10093000000103000000092111010001223200071B
:1009400005820320000112010002000000081D8D35
:100950009D9D02000102000116034B007900720008
:10096000690061002000720065007600320000001E
:100970001003730070006C00690074006B0062006B
:1009800000000403090407087F0807003E5B4F5B73
:100990003E003E6B4F6B3E001C3E7C3E1C00183CF4
:1009A0007E3C18001C577D571C001C5E7F5E1C009F
:1009B00000183C180000FFE7C3E7FF0000182418E8
:1009C0000000FFE7DBE7FF0030483A060E0026296B
:1009D00079292600407F05050700407F05253F0057
:1009E0005A3CE73C5A007F3E1C1C0800081C1C3E79
:1009F0007F0014227F2214005F5F005F5F00060902
:100A00007F017F00006689956A0060606060600019
:100A100094A2FFA2940008047E04080010207E2007
:100A2000100008082A1C0800081C2A0808001E10CC
:100A3000101010000C1E0C1E0C0030383E38300018
:100A4000060E3E0E060000000000000000005F00E1
:100A50000000000700070000147F147F1400242A00
:100A60007F2A120023130864620036495620500082
:100A7000000807030000001C224100000041221C66
:100A800000002A1C7F1C2A0008083E08080000807D
:100A900070300000080808080800000060600000CE
:100AA0002010080402003E5149453E0000427F40AC
:100AB00000007249494946002141494D330018144C
:100AC000127F10002745454539003C4A494931000D
:100AD000412111090700364949493600464949294B
:100AE0001E00000014000000004034000000000858
:100AF000142241001414141414000041221408009C
:100B00000201590906003E415D594E007C12111246
:100B10007C007F49494936003E41414122007F41E6
:100B200041413E007F49494941007F0909090100CF
:100B30003E41415173007F0808087F0000417F411A
:100B400000002040413F01007F08142241007F4007
:100B5000404040007F021C027F007F0408107F009D
:100B60003E4141413E007F09090906003E415121B5
:100B70005E007F09192946002649494932000301D0
:100B80007F0103003F4040403F001F2040201F00E6
:100B90003F4038403F0063140814630003047804A6
:100BA00003006159494D4300007F41414100020467
:100BB00008102000004141417F00040201020400AE
:100BC0004040404040000003070800002054547893
:100BD00040007F28444438003844444428003844C6
:100BE00044287F0038545454180000087E0902003D
:100BF00018A4A49C78007F080404780000447D4079
:100C000000002040403D00007F10284400000041CB
:100C10007F4000007C04780478007C08040478009D
:100C2000384444443800FC1824241800182424189C
:100C3000FC007C08040408004854545424000404B4
:100C40003F4424003C4040207C001C2040201C00ED
:100C50003C4030403C004428102844004C90909088
:100C60007C004464544C44000008364100000000FD
:100C70007700000000413608000002010204020073
:100C80003C2623263C00000000000000404040F0CD
:100C9000F8F8FF38FFF8F83FF8F8FF38FFF8F8F0F9
:100CA00040404000000000000080C0C0C080000044
:100CB000C0C08000000080C0C000C0C0000080C074
:100CC000C00000000000C0C0C0C0C000C0C0000024
:100CD0000000000000000000000000000000000014
:100CE0000000000000000000000000000000000004
:100CF00000000000000000000000000000000000F4
:100D00000000000000C0F0F8FC3E1E0601000000DC
:100D10007F4141417F007F4141417F000080C0E031
:100D20007E5B4F5BFEC00000C000DCD7DEDEDED79E
:100D3000DC00C00000000000000000000000000017
:100D4000000000000000000000000000494949FFC9
:100D5000FFFFFFE0DFBFBF00BFBFDFE0FFFFFFFF20
:100D600049494900000000001F3F6060E0BF1F00CC
:100D70007F7F071E381E077F7F007F7F0E1F3B711E
:100D80006000000000007F7F0C0C0C007E7E007F66
:100D90007E0303007F7E03037E7E03037F7E000FBE
:100DA0003E703C063C703E0F00327B49493F7E005E
:100DB0007F7E0303001E3F69696F2600000000006C
:100DC0000000000000030F1F3F3C7870600000002F
:100DD0007F4141417F007F4141417F00307B7F78EF
:100DE00030202030787F3B0003000F7F0F0F0F7FF4
:100DF0000F000300000000000000000000000000E1
:100E000000000000000000000000000001010107D8
:100E10000F0F7F0F7F0F0F7E0F0F7F0F7F0F0F07BB
:100E200001010100000000000000000000010100BD
:100E300000000000000000000000000000000000B2
:100E400000000000000000000000000000000000A2
:100E50000000000000000000000000000000000092
:100E60000000000000000000000000000000000082
:100E70000000000000000000000000000000000072
:100E80000000000000000000000000000000000062
:100E90000000000000000000000000000000000052
:100EA0000000000000000000000000000000000042
:100EB0000000000000000000000000000000000032
:100EC00000000000000011241FBECFEFDAE0DEBFFB
:100ED000CDBF04B603FE18C08091610790916207F0
:100EE000A0916307B09164078730904BA740B04B47
:100EF00059F41092610710926207109263071092E2
:100F00006407E0E0F8E3099511E0A0E0B1E0EEEA63
:100F1000F7E502C005900D92A63CB107D9F727E08E
:100F2000A6ECB1E001C01D92A136B207E1F70E9424
:100F3000E8220C94B82B0C940000E8EDF0E08081DE
:100F40008E7F80831092E2001092DA001092E1000E
:100F5000A0EEB0E08C9181608C9380818F7780834C
:100F600019BCA7EDB0E08C918E7F8C9380818F7E31
:100F7000808310923C0308952091E4003091E500B5
:100F800095E6A9012091EC00822F817020FF06C018
:100F90008091E80080FF06C080E008952091E8007D
:100FA00022FD1AC080914903882389F0853089F099
:100FB0008091EB0085FD0FC02091E4003091E500A9
:100FC00042175307F9F29150E1F684E0089582E068
:100FD000089583E0089581E00895EF92FF920F93C2
:100FE0001F93CF937C018B010E94BC07C82F8111F6
:100FF00017C08091E80085FD0BC08091E8008E77D6
:101000008093E8000E94BC07882399F3C82F08C08A
:10101000F70181917F018093F1000150110949F797
:101020008C2FCF911F910F91FF90EF900895809199
:101030004B0387FF13C08091E80082FF06C08091B8
:10104000E8008B778093E80004C080914903811108
:10105000F2CF0895809149038823D9F38091E80065
:1010600080FFF8CF8091E8008E77ECCF982F909397
:10107000E900242F762F50E0891731F07091EC00B1
:101080002091ED005091F00021FD07C09F5F973047
:1010900071F78093E90081E008953091EB003E7F85
:1010A0003093EB003091ED003D7F3093ED003091B7
:1010B000EB0031603093EB007093EC002093ED0077
:1010C0005093F0002091EE0027FDE0CF80E00895DE
:1010D000B0E0A0E0EEE6F8E00C94FE2AC8EDD0E027
:1010E00088818F7E8883E7EDF0E080818160808356
:1010F00084E082BF81E080933C0388818E7F888377
:1011000002EE10E0F80110821092DA0081EEC82E93
:10111000D12CF601108288818F778883888180683E
:10112000888388818F7D888319BC1092490310922F
:101130004A03109248031092470390EEE92EF12CD7
:10114000F70180818B7F808388818160888342E082
:1011500060E080E00E943608F60180818E7F808307
:10116000F801808181608083808188608083F701BD
:1011700080818E7F8083888180618883CDB7DEB750
:10118000E8E00C941A2BFC018091510390915203DA
:1011900086179707A0F06115710529F49091E80072
:1011A0009E779093E80090E06115710551F49111DC
:1011B00008C08091E80082FF34C080E00895BC013F
:1011C000F2CF809149038823C1F18530C1F180912C
:1011D000E80083FD30C08091E80082FDEACF809175
:1011E000E80080FFE1CF8091F3002091F200382FDA
:1011F0006115710519F02830310558F091E028305B
:10120000310509F090E02091E8002E772093E80066
:10121000CBCF81918093F100615071092F5F3F4FD7
:10122000E7CF80914903882341F0853041F08091D8
:10123000E80083FFBECF81E0089582E0089583E057
:1012400008950895089580913E0308952FB7F89466
:101250006091350370913603809137039091380384
:101260002FBF08959C01FC0132969FEF80E04191D1
:10127000461751F09F3F19F4411101C0982F8F5F1D
:101280008630A9F79F3F09F40895290F311D97FD76
:101290003A95F90162830895209132033091330326
:1012A0002817390771F09093330380933203E0914C
:1012B0003003F0913103309721F00084F185E02D67
:1012C0000995089520912E0330912F03281739078F
:1012D00071F090932F0380932E03E0913003F091EF
:1012E0003103309721F00680F781E02D09950895AC
:1012F000FC01680F791F8FEF91E32191822728E08D
:1013000030E087FF09C0880F892721503109C9F7CC
:10131000E617F70791F70895880FF7CFFA018111C3
:1013200001C0FB010995089580912303982F9E7FAA
:1013300039F48091230381708260809323030895A0
:101340008430B8F7089580E00895F894E82FE29586
:10135000EF70F0E031A1282F2F7081E090E001C004
:10136000880F2A95EAF7982F9095932391A392A13D
:10137000892B82A37894089590917B0292FF06C0F6
:10138000282F28712830F9F4877F846093FF06C0E6
:10139000282F28712831F1F4877E846120917C0206
:1013A00020FF06C0382F38713830D9F4877F81602C
:1013B00021FF06C0282F28712831D1F4877E816152
:1013C00094FD877E0895282F24712430F9F68B7FB1
:1013D0008860DCCF282F2471243101F78B7E88614F
:1013E000DDCF382F3171313019F78E7F8860E0CF33
:1013F000282F2171213121F78E7E8861E1CF78304D
:10140000B0F46830A0F498E0899FF0011124E70F50
:10141000F11D83E0EE0FFF1F8A95E1F7E60FF11D46
:10142000EE0FFF1FE455FF4F85919491089580E0E2
:1014300090E00895CF93DF93EC0182389105B1F1EC
:1014400008F040C08133910509F49DC048F5893208
:10145000910509F48DC08A9709F49CC0C11522E555
:10146000D20708F0BDC0C11531E5D30708F024C18B
:10147000C83ED10508F0A3C0C13ED10588F5C83AE1
:10148000D10508F08EC0C53AD10508F0F6C0C130CC
:10149000D10531F1209721F1C430D10508F545C0BF
:1014A0008533910509F45FC0C997C1F680917B022D
:1014B000837009F036C180917C0283FF11C0C9E2BC
:1014C000D0E00EC0833E910599F170F4803E910505
:1014D00001F1823E910511F680917B0282FD21C0CF
:1014E000CE01DF91CF910895863E910561F1873E4F
:1014F000910571F1843E910509F0B0CF80917C0295
:1015000081FFEECF80917B02C7EED0E084FD0DC05D
:10151000E7CF80917B0280FD33C090917C0290FFE9
:10152000DFCFC3EED0E084FFDBCFD0E0C0E0D8CF88
:1015300080917B0282FDF2C090917C0290FDF1C00F
:1015400084FFCECFF2CF80917B0283FDDDCFC8CF69
:1015500080917B0283FDE8C090917C0291FFF0CFE7
:10156000C4EED0E0BDCF80917B0285FFB9CFA7CF7D
:1015700080917B0285FDDBC080917C0283FFB0CF30
:10158000C9E3D0E0ADCF80917B0286FFA9CFCAE24C
:10159000D0E0A6CF80917B0286FFA2CFC1E3D0E04E
:1015A0009FCFCF3BD10508F6C85AD0E0CC0FDD1F46
:1015B000C559DE4F0990D881C02DD46491CFC11593
:1015C00040E5D40708F064C0C11580E4D80708F0EE
:1015D0005CC0CE019A9581159F4108F481CFA5CFBB
:1015E000C11536E5D30718F5C11545E5D40708F050
:1015F0007CC0C11584E5D80708F072C09E01237035
:1016000033279C2F96959695C115D34508F459C05C
:10161000C1E0D0E002C0CC0FDD1F2A95E2F730E236
:10162000939FC0011124C82BD92BDA6859CFC1155B
:101630008AE5D80778F4C11529E5D20708F060C01B
:10164000C11538E5D30708F470CFDC2FCC27C06F65
:10165000D06A46CFCE0190568115904208F065CFF2
:101660008D2F8F710E94BC0990E0982F88278827C2
:101670009F719C012C2BE90141C0C55AD0E0C8598B
:10168000DE4FC881D0E0D0642BCFDF70D06A28CF86
:10169000CE018370992721E030E002C0220F331F72
:1016A0008A95E2F7C695C69580E2C89FE0011124AD
:1016B000C22BD32BDD6814CFDC2FCC27C16FD06AAF
:1016C0000FCFC1E0D0E002C0CC0FDD1F2A95E2F7BA
:1016D00020E2929FC0011124C82BD92BDC6800CFD7
:1016E000DC2FCC27C46FD06AFBCE8C2F0E94BC09A4
:1016F000C82FD0E0DC2FCC27CC27DF71D062F0CE12
:101700008C2F8F700E94BC0934E0D695C7953A950E
:10171000E1F7CF709C2FEC01D069E2CEC2EED0E0B1
:10172000DFCEC0EED0E0DCCEC6EED0E0D9CEC5E351
:10173000D0E0D6CE0E94260908958091340281110E
:1017400010923402089580959091330298239093DB
:1017500033020895809128029091F701981301C0F7
:1017600008958F5F8770FACFB0E0A0E0EAEBFBE06E
:101770000C94FD2A7C0100919D0210919E028091A3
:101780009B0290919C02082B192BCFE0D0E0CC2437
:10179000C394D12CBC2EC6010C2E02C0880F991FF9
:1017A0000A94E2F780239123892B49F4219790F73B
:1017B000B12C8B2DCDB7DEB7E9E00C94192BB70116
:1017C0008C2F0E94FF090E941A0A019779F3F1CF2A
:1017D000CF93DF93EC010E94B40BBE010E94FF097E
:1017E0000E941A0ADF91CF910895983070F58830E1
:1017F00060F528E0929FF0011124E80FF11D6E2F93
:10180000677083E0F695E7958A95E1F7EE0FFF1F85
:10181000EE0FFF1FEF52FE4F50E040E080E02191BD
:1018200030E0062E02C0369527950A94E2F7217023
:101830003327042E01C0220F0A94EAF7822B4F5F50
:101840005F4F4430510559F7089580E0089598306E
:1018500090F5883080F528E0929FF0011124E80F80
:10186000F11D2E2F277041E001C0440F2A95EAF7A1
:1018700083E0F695E7958A95E1F7EE0FFF1FEE0FEF
:10188000FF1FEF52FE4F30E020E070E05191DF018A
:101890001197CB01022E02C0969587950A94E2F724
:1018A000817081958527842385278C932F5F3F4FF7
:1018B0002430310559F70895FC0183819481892BE7
:1018C00029F08081918189238F3F51F480E0089530
:1018D000843FE1F717C0883EA8F0813FB9F712C0F6
:1018E000808191810E94E80B92959F70963099F3C8
:1018F00058F4925F9F70923048F7803F19F040F79C
:10190000883E20F781E008959A5FF4CFCF93DF936C
:10191000C0915F07D09160078A30C1F420915603CF
:10192000CE0189559340622F70E00E94E02A281B67
:10193000822F66E00E942B2BC82FC15018F4DF9134
:10194000CF91089580E20E94860CF7CF8D30E9F4A4
:10195000C955D34020915603622F70E0CE010E94FA
:10196000E02A281B822F9E01280F311D21153440AB
:1019700018F080E0D0E0C0E0C80FD11DC75ADC4F9E
:10198000D0936007C0935F07DACF96E0FE01A9E528
:10199000B7E001900D929A95E1F7803E08F458C0A7
:1019A00086E0FE0111928A95E9F7C0915F07D09118
:1019B000600746E050E0BE0189E597E00E945A2B9F
:1019C0009E0129553340892B41F1C90146E0969586
:1019D00087954A95E1F741E050E0BA0102C0660FF1
:1019E000771F8A95E2F7CB016091570370915803F6
:1019F000862B972BB9016B5F7F4FE6E07695679555
:101A0000EA95E1F702C0440F551F6A95E2F7842B6F
:101A1000952B90935803809357032A5F3F4F409133
:101A20005603642F70E0C9010E94E02A481B46302B
:101A300010F4240F311D211574E0370710F030E049
:101A400020E0275A3C4F3093600720935F0777CF01
:101A5000F6E08F9FB00111246A57764F46E050E0C0
:101A6000CE010E94512BA1CFCF93DF93EC01FE0159
:101A70008491811103C0DF91CF9108950E94860C5B
:101A80002196F5CF8091330290913202892B809379
:101A9000C80190913402992391F0892B8093C80159
:101AA00020E08AEC91E0FC013191CF0131112F5FF0
:101AB000F1E0803D9F07B9F721110E949D0B48E09E
:101AC00050E06AE272E088EC91E00E945A2B892B88
:101AD000A9F088E0E8ECF1E0AAE2B2E001900D9212
:101AE0008A95E1F7E0913003F0913103309731F0BE
:101AF0000280F381E02D88EC91E00995089590E053
:101B000080E00E94620990E080E00E944C091092FF
:101B100032020E94420D089590939E0280939D028E
:101B20000E947F0D089521E030E002C0220F331F94
:101B30008A95E2F72095309580919D0290919E02C2
:101B4000822393230E948C0D089590912902809501
:101B5000892380932902282F277091F4282F082E9B
:101B6000000C330B9217130659F090917C0292FFF0
:101B700007C08595859585950E94930D1092290241
:101B8000089521E030E002C0220F331F8A95E2F76A
:101B900080919D0290919E02822B932B0E948C0D2E
:101BA000089590939C0280939B020E947F0D08955C
:101BB00010923302EAECF1E086E0DF011D928A9593
:101BC000E9F70E947F0D0895AAE2B0E0EAEEFDE099
:101BD0000C94032B8BE493E02091F100FC01219302
:101BE000CF01F3E083359F07B9F780914C03833031
:101BF00009F470C0B8F4813009F447C0823009F4A8
:101C0000B1C08091E80083FF7EC280914B03909128
:101C10004C039A3008F077C2E92FF0E0E654F44D17
:101C20000C944B2B8A3009F48CC08B3009F46FC0B4
:101C3000893039F780914B03813219F780914F0336
:101C4000909150030297E8F68091E800877F809397
:101C5000E8008091E80082FF38C09091F300809105
:101C6000F200029731F48091F100813011F086305A
:101C700021F48091F10080933E038091E8008B77FE
:101C80008093E8000E941708BCCF80914B03813AF3
:101C900009F0B7CF8091E800877F8093E8008091BA
:101CA0004F0390915003892B61F468E08FE393E038
:101CB00070E00E94C3088091E8008B778093E80071
:101CC000A0CF60E090E080E0F3CF809149038111E4
:101CD000C0CF97CF80914B03813A09F092CF80918A
:101CE0004F0390915003892B09F08BCF8091E8002E
:101CF000877F8093E8008091E80080FFFCCF80918F
:101D00005F018093F1008091E8008E77B9CF8091D8
:101D10004B03813209F075CF80914F0390915003AE
:101D2000892B09F06ECF8091E800877F8093E800CF
:101D30000E94170880914D0380935F010E94D80D87
:101D400060CF80914B03813209F05BCF8091E80036
:101D5000877F8093E8000E94170880914E0380934C
:101D60003D034FCF80914B03813A09F04ACF8091D8
:101D7000E800877F8093E8008091E80080FFFCCF37
:101D800080913D03BECF803899F0823809F0BBC105
:101D900080914F038F70873008F0B5C18093E900C0
:101DA0008091EB0085FB882780F91092E90006C03E
:101DB0008091470390914803911182609091E800CF
:101DC000977F9093E8008093F1001092F10080914A
:101DD000E8008E7794C1882309F482C1823009F02B
:101DE00092C180914D03811185C180914F038F7005
:101DF0002FEF280F263008F086C18093E90020914C
:101E0000EB0020FF77C1933031F48091EB008062CA
:101E10008093EB006FC19091EB0090619093EB0089
:101E200021E030E001C0220F8A95EAF72093EA0012
:101E30001092EA008091EB008860EACF811163C1C3
:101E400010914D031F778091E3008078812B809360
:101E5000E3008091E800877F8093E8000E941708E4
:101E60008091E80080FFFCCF8091E3008068809340
:101E7000E30082E0111183E08093490344C180585C
:101E8000823008F040C180914D0390914E038C3D0B
:101E900023E09207A1F583E08A838AE289834FB722
:101EA000F894DE01139620E03EE051E2E32FF0E0EB
:101EB00050935700E49120FF03C0E295EF703F5F1D
:101EC000EF708E2F90E0EA30C0F0C7968D939D930F
:101ED0002F5F243159F74FBF8091E800877F8093AF
:101EE000E8006AE270E0CE0101960E94C30880918A
:101EF000E8008B778093E80006C1C096E7CF409159
:101F00004F0350915003292F33272330310509F413
:101F100044C078F52130310509F46FC08BE390E0BF
:101F2000EBE0F9E02230310509F0EDC02091E80046
:101F3000277F2093E80020915103309152038217AC
:101F4000930708F49C0140E02115310509F064C0B5
:101F5000411162C08091E80082FDC9CF80914903A0
:101F6000882329F2853019F28091E80083FFF2CFAF
:101F7000BECF21323105A9F12232310509F0C3C0AB
:101F80004115510509F443C04130510509F0BBC06A
:101F900082E390E0E9E9F8E0C9CF99278130910523
:101FA000C1F0009759F0029709F0ADC0E8E5F9E0FB
:101FB000E4918E2F90E0E8E5F9E007C0E2E8F9E06F
:101FC000E4918E2F90E0E2E8F9E0009709F49BC0DD
:101FD000ADCFE0E7F9E0E4918E2F90E0E0E7F9E0A3
:101FE000F4CF4115510571F04130510509F08BC016
:101FF00089E090E0E6E3F9E099CF82E190E0E6E461
:10200000F9E094CF89E090E0EDE1F9E08FCF80E452
:1020100090E0EBECF8E08ACF80914903882309F443
:1020200066CF853009F463CF8091E80083FD5FCFF0
:102030008091E80082FD8ECF8091E80080FF84CF00
:102040009091F3008091F2002115310519F088304C
:10205000910550F041E0089709F040E08091E800D8
:102060008E778093E80070CF44914093F1003196D1
:10207000215031090196E8CF803809F044C08091A1
:10208000E800877F8093E80080914A038093F10005
:102090009ECE811138C010914D031230A0F5809171
:1020A000E800877F8093E80010934A030E94170896
:1020B000112311F084E005C08091E30087FDFACF81
:1020C00081E08093490342E061EC81E00E943608A0
:1020D00042E261EC82E00E9436088091490313C01D
:1020E00080914D03813079F481E0933009F080E0F4
:1020F000809348031092E9008091E800877F8093E5
:10210000E8000E9417088091E80083FF0AC08091D0
:10211000E800877F8093E8008091EB0080628093E5
:10212000EB00AA96E3E00C941F2B882321F00E9479
:10213000A30B0E94420D0895882339F09091330239
:10214000982B909333020E94420D0895882391F1B9
:102150009CEF980F913A80F4EAECF1E020ED31E049
:102160009191891303C0DF0111971C922E173F072D
:10217000B9F70E94420D089590E2980F983050F4FC
:10218000877091E001C0990F8A95EAF7892F0E9424
:10219000A30BEFCF9BE5980F933028F490E080E0FD
:1021A0000E9462090895885A873120F490E080E007
:1021B0000E944C090895CF93C82F8823B1F08CEF6B
:1021C0008C0F813A00F5EAECF1E080ED91E0DF015F
:1021D0002D91C21761F08A179B07D1F76C2F88ECFD
:1021E00091E00E9432090E94420DCF910895219101
:1021F000C21303C0DF0111971C928E179F07B9F716
:102200000E94420DEBCF80E28C0F883068F4C770DB
:1022100021E030E001C0220FCA95EAF78091330235
:10222000822B80933302DFCFEBE5EC0FE33040F4F9
:10223000F0E0E859FE4F808190E00E946209D5CF1E
:10224000C85AC73190F6EC2FF0E0EE0FFF1FE559AA
:10225000FE4F808191810E944C09C7CFB0E0A0E081
:10226000E4E3F1E10C94FE2A6C017B0164E670E08A
:1022700088E70E943E28EC0197FD12C010E000E0C4
:10228000F601E00FF11F849164E670E00E94AA2835
:10229000EC01892B29F40F5F1F4F0E151F0581F7E5
:1022A0000E942029CE01CDB7DEB7E8E00C941A2BAE
:1022B00080912C0390912D03911103C091E0892707
:1022C0000895882369F062E070E087E998E00E9451
:1022D0002E11892B19F080912C03089510922C0354
:1022E00080912C03EBCFCF93C0912C0380912D03D1
:1022F0008823D1F00E942609605A75418F4F9F4F65
:10230000609328037093290380932A0390932B03EF
:10231000C11108C062E070E085E998E00E942E11CA
:10232000892B29F0C0912C038C2FCF91089581E047
:1023300080932C03F7CF8093390370933B03609312
:102340003A0380914903843001F582E08093E900EB
:102350008FEF9091E800815095FD06C095ED9A951C
:10236000F1F700008111F5CF8091E80085FF0DC0E5
:1023700050E040E063E070E089E393E00E94ED0705
:102380008091E8008E778093E8000895BC0184E096
:102390000E949B110895BC0183E00E949B11089547
:1023A000CF93DF93EC0181E08093E9008FEF909170
:1023B000E800815095FD06C095ED9A95F1F7000073
:1023C0008111F5CF8091E80085FF14C050E040E016
:1023D00068E070E0CE010E94ED078091E8008E7702
:1023E0008093E80088E0FE01AFE3B3E001900D9236
:1023F0008A95E1F7DF91CF91089560915B0180911B
:10240000230380FF20C080915A0143E0849FC001D4
:10241000112489519D4F539A2BB1277F3BB13860CE
:102420005FB7F894FC01649FE00DF11D1124BF011A
:1024300068177907D1F45FBF8FE594E00197F1F752
:1024400000C00000089580915C0190915D0123E03F
:10245000829FF0011124E951FD4F8917A0F61182E6
:10246000108212828F5F3396F8CFFC014191CF0129
:10247000E8E03BB9000000C047FF2BB9440F000063
:1024800000C000C000C02BB900C0EA9591F7D0CFC2
:10249000B0E0A0E0EEE4F2E10C94FC2A7C015B01E8
:1024A0006A0180916C0201E010E08A3010F40AE0C9
:1024B00010E0C1E0D0E0B501C701F6010995811136
:1024C00004C021960C171D072CF4CDB7DEB7EAE047
:1024D0000C94182BCC9F9001CD9F300D300D112402
:1024E00090E080E045E34A95F1F7000001968217FD
:1024F0009307C1F7E0CF80913F02811110C0809116
:10250000D80080618093D8008AE18A95F1F700C0F5
:102510008091D90080FF0AC081E080933F0281E072
:1025200090913F02913009F080E0089582E080931D
:102530003F020E949D0710924903F1CF0E947B1237
:10254000882359F0E0913003F0913103309729F05E
:102550000190F081E02D0995089580E008951F9382
:10256000CF93DF93182FEB010E94DB10209739F4F3
:10257000812F0E94A610DF91CF911F9108958FE9BE
:102580009FE00197F1F700C000002197EFCF811184
:102590000CC070E0662331F060E089EA0E94AF125F
:1025A00081E0089560E08AEAF9CF8130C9F770E0F0
:1025B000662319F060E08EE4F1CF60E08BE4EECFAB
:1025C0000E94D80D2FEF84E39CE021508040904082
:1025D000E1F700C0000088E19CE00FB6F894A895F0
:1025E000809360000FBE90936000FFCFCF92DF9288
:1025F000EF92FF926B017C010E949409B701A60142
:1026000088E090E00E94962BFF90EF90DF90CF90B3
:102610000895B0E0A0E0EFE0F3E10C94FA2AD82F9F
:10262000C62F142F822E0091230300FF49C0E02FF4
:10263000E695F0E0ED53FE4F80818093E402802F19
:102640008E7F8230D1F4E42FF0E0EB56F84F611129
:102650003CC02491F22FE22F00FF0FC080915C015B
:1026600090915D0133E0839FD0011124A951BD4FAA
:10267000891708F49FC00E94FD11809124038D13D7
:1026800008C0809125038C1304C080912603811714
:1026900029F08091E60282608093E602D0932403C1
:1026A000C093250310932603882051F060912303E3
:1026B0007091240380912503909126030E94F612C5
:1026C000CDB7DEB7ECE00C94162BE62EF12CE4919E
:1026D0009E2ECE2ED12C26E0D29FC00111242FEFAA
:1026E00030E0B9010E94E02A8D2F90E0880F991FF9
:1026F000F5E5F69FA001F79F500D1124841B950B63
:10270000B82EBB0CB80EA9014E195F094C9DC00133
:102710004D9D900D5C9D900D1124F92FCB9DA00136
:102720001124452F5527D901A41BB50BAC9DA00141
:10273000AD9D500DBC9D500D1124D901AB19B109AF
:102740005D01AE9CD001AF9CB00DBE9CB00D1124BC
:10275000AB2FBB272A1B3B0B2C9DD0012D9DB00D11
:102760003C9DB00D11242B2F62307105A1F050F467
:102770006115710509F470CF6130710581F0292F61
:10278000F52F6ACF6430710569F080F0663071050D
:1027900009F462CFF4CF2E2FE92FFB2F5DCF2E2F20
:1027A000E52F5ACF292FFE2FEB2F56CFE92FF92DEA
:1027B000252F52CF1196EC9311972C931296FC93E0
:1027C00012978F5F139654CFE3E2F3E0438121E148
:1027D000421B08F440E021E0628181810E940913DC
:1027E0000895E3E2F3E0438121E1420F08F44FEF63
:1027F00021E0628181810E9409130895E3E2F3E000
:10280000628121E1621B08F460E021E04381818163
:102810000E9409130895E3E2F3E0628121E1620F6F
:1028200008F46FEF21E0438181810E94091308952C
:10283000E3E2F3E0818121E04381628188500E94DC
:1028400009130895E3E2F3E0818121E0438162818D
:10285000885F0E940913089580912703882319F047
:10286000815080932703609123037091240380910A
:102870002503909126030E94F61208958091270364
:10288000833018F48F5F8093270360912303709146
:10289000240380912503909126030E94F612089547
:1028A0008091230380FF1EC0817082608093230388
:1028B0008091E60281608093E602662351F0609188
:1028C00023037091240380912503909126030E9495
:1028D000F61220E0409126036091250380912403A5
:1028E0000E9409130895809123038695815009F46D
:1028F00081E061E00E945014089561E081E00E944F
:1029000050140895E3E2F3E083E0808311828FEFB7
:10291000828383831482A4EEB2E012968C91129784
:10292000836012968C9360817181828193810E9471
:10293000F6120895CF9384E090E00E94702BC82F88
:1029400082E290E00E94702B982F8C2FCF910895F7
:10295000A4E0B0E0EEEAF4E10C94022B40916002B6
:102960005091610260916202709163022FB7F894F6
:102970008091350390913603A0913703B0913803CD
:102980002FBF841B950BA60BB70B11E08436910566
:10299000A105B10590F10E947B12882399F10E9454
:1029A00026096E5F7F4F8F4F9F4F69837A838B839A
:1029B0009C838091210190912201845B9D4F4091E5
:1029C000200150E04530510510F044E050E0BE01D8
:1029D0006F5F7F4F0E94672B84E090E00E946A2A1D
:1029E000182F882351F00E9426096093600270938B
:1029F00061028093620290936302812F2496E4E047
:102A00000C941E2B0E94260900916D0210916E02FB
:102A100020916F0230917002600F711F821F931F0F
:102A2000C0CF4F925F926F927F928F929F92AF92A0
:102A3000BF92EF92FF920F931F93CF93DF937B018F
:102A4000FB0140805180628073809FB7F894809032
:102A5000350390903603A0903703B09038039FBFA2
:102A600084189508A608B708F4E68F169104A10407
:102A7000B10418F4C1E0442329F1C82F880FDD0BFD
:102A8000FE0183E0EE0FFF1F8A95E1F7E050FF4F54
:102A900081819281845B9D4F408150E0041715072E
:102AA00008F4A801B9010E94672BCE010E946A2A8E
:102AB000C82F882339F00E942609F70160837183AB
:102AC000828393838C2FDF91CF911F910F91FF9081
:102AD000EF90BF90AF909F908F907F906F905F909E
:102AE0004F900895A1E0B0E0E8E7F5E10C94022BE7
:102AF00080912C03898320915F0290E041E02817A8
:102B0000190609F440E001E010E09E012F5F3F4FFD
:102B100068E672E086E00E9411152196E4E00C94CC
:102B20001E2BA8E0B0E0E7E9F5E10C94022B85E06C
:102B3000E3E2F3E0DE01119601900D928A95E1F750
:102B40008091E4029091E502A091E6028E839F833A
:102B5000A88741E08885811101C040E008E010E0CD
:102B60009E012F5F3F4F64E672E085E00E941115E1
:102B700081111092E6022896E4E00C941E2B4F92ED
:102B80005F927F928F929F92AF92BF92CF92DF928D
:102B9000EF92FF920F931F93CF93DF930F92CDB7D6
:102BA000DEB7C62E4A015901482E880F5508C201CA
:102BB0000E946A2A782E882309F480C0C20133E07B
:102BC000880F991F3A95E1F7FC01E050FF4F4381D0
:102BD00050E04115510511F041E050E080509F4F09
:102BE000FC0164817581645B7D4FCE0101960E947A
:102BF000672BF40140815181628173812FB7F89472
:102C00008091350390913603A0913703B09138033A
:102C10002FBF841B950BA60BB70B84369105A1051E
:102C2000B10540F4B701C8010E947809998189175C
:102C300009F444C00C2C000CDD08C6010E946A2A6D
:102C4000782E811113C0712C872D0F90DF91CF91B9
:102C50001F910F91FF90EF90DF90CF90BF90AF90BA
:102C60009F908F907F905F904F900895C60123E0D2
:102C7000880F991F2A95E1F7FC01E050FF4F43812F
:102C800050E0E416F50608F4A70180509F4FFC01C0
:102C900064817581645B7D4FC5010E94672BB7011C
:102CA000C8010E94780999818913CDCF0E94260915
:102CB000F4016083718382839383C6CFA701B80137
:102CC000C5010E94672BC0CFA1E0B0E0EAE6F6E1C3
:102CD0000C94FD2AEE24E394F12C02E512E09E010F
:102CE0002F5F3F4F48E452E063E082E00E94BF154F
:102CF000C82E882339F100E080E01DC0D0907F020B
:102D0000D00E2D2D30E0A9014D565D4F7A01E1E046
:102D1000F0E0EC0FFD1FE00FF11D1081FA01908132
:102D2000191BB12E1B149CF0912F17FD90E0191B5D
:102D3000111118C00F5F90917E020917F8F28111EE
:102D40000E949A0B8C2D2196E9E00C94192BBA94D1
:102D5000F70180818F5F808360E08D2D0E94C71214
:102D60008C2DE0CF1F5FF70180818150808361E06F
:102D70008D2D0E94C7128C2DDBCFA4E0B0E0E3ECD8
:102D8000F6E10C94FE2A6B0184E0E82EF12C0DE4B0
:102D900012E09E012F5F3F4F44E452E061E080E08B
:102DA0000E94BF15882361F049815A816B817C8123
:102DB0004093400250934102609342027093430259
:102DC0004091400250914102609142027091430251
:102DD000F60140835183628373832496E8E00C9468
:102DE0001A2B68EE7EEF90E080E00E94A22B60E05C
:102DF00082E090E00E94842B60E083E090E00E94FB
:102E0000842B10929C0210929B0260E084E090E080
:102E10000E94842B64E082E290E00E94842B60E0B8
:102E200085E090E00E94842B60E086E090E00E94C4
:102E3000842B6FEF87E090E00E94842B40E050E00D
:102E4000BA0188E090E00E94962B60E08DE090E06F
:102E50000E94842B40E050E0BA0188E190E00E949B
:102E6000962B60E087E190E00E94842B40E050E0E8
:102E7000BA018CE190E00E94962B70E060E080E265
:102E800090E00E94A22B40E050E0BA0188E190E07F
:102E90000E94962B40E050E0BA018FE090E00E9443
:102EA000962B40E050E0BA0183E190E00E94962B1F
:102EB0000895CF93C0917C02C2FB992790F998178F
:102EC00091F080FBC2F9C0937C0260917B0284E0A8
:102ED00090E00E94842B6C2F82E290E00E94842B71
:102EE00082E00E94A50DCF9108951F920F920FB618
:102EF0000F9211242F933F934F935F936F937F9380
:102F00008F939F93AF93BF93CF93DF93EF93FF93F1
:102F1000D091E900DF708091EC00C82FC17080FD76
:102F2000C0E81092E9008091F000877F8093F00064
:102F300078940E94E40D1092E9008091F00088607E
:102F40008093F000CD2BCF70C093E900FF91EF91FB
:102F5000DF91CF91BF91AF919F918F917F916F91B1
:102F60005F914F913F912F910F900FBE0F901F9047
:102F700018951F920F920FB60F9211242F933F9323
:102F80004F935F936F937F938F939F93AF93BF9371
:102F9000EF93FF938091E10082FF09C08091E200EE
:102FA00082FF05C08091E1008B7F8093E1008091DA
:102FB000DA0080FF24C08091D80080FF20C080917B
:102FC000DA008E7F8093DA008091D90080FF9DC067
:102FD00080E189BD82E189BD09B400FEFDCF81E0B9
:102FE0008093490380913C03811109C00E949D0791
:102FF0000E9468088091E20084608093E2008091E2
:10300000E10080FF17C08091E20080FF13C0809133
:10301000E2008E7F8093E2008091E20080618093E5
:10302000E2008091D80080628093D80019BC85E0CE
:10303000809349038091E10084FF2BC08091E200DE
:1030400084FF27C080E189BD82E189BD89B5982FC1
:10305000917080FFFBCF8091D8008F7D8093D80046
:103060008091E1008F7E8093E1008091E2008F7E6D
:103070008093E2008091E20081608093E200809181
:103080004A03882309F447C084E080934903809170
:1030900049038091E10083FF27C08091E20083FF14
:1030A00023C08091E100877F8093E10082E08093DC
:1030B000490310924A038091E1008E7F8093E100E2
:1030C0008091E2008E7F8093E2008091E200806137
:1030D0008093E20042E060E080E00E943608809148
:1030E000F00088608093F000FF91EF91BF91AF9165
:1030F0009F918F917F916F915F914F913F912F9110
:103100000F900FBE0F901F90189519BC1092490395
:1031100010923C0374CF8091E30087FD93E090937D
:103120004903B5CF78941F921FB61F9211248F9335
:103130009F93AF93BF938091350390913603A091F5
:103140003703B09138030196A11DB11D809335035B
:1031500090933603A0933703B0933803BF91AF9198
:103160009F918F911F901FBE1F9018959C014FB784
:10317000F8948091350390913603A0913703B09174
:1031800038034FBF821B930B08952FB7F89480919B
:10319000350390913603A0913703B09138032FBFC8
:1031A00008950F931F93CF93DF93C62FD42F022F31
:1031B000FC0182818823A9F0609355030E94C51801
:1031C0009093540380935303C77081E001C0880F2C
:1031D000CA95EAF70E949C10DF91CF911F910F9141
:1031E000089580915503681334C0809153039091E2
:1031F00054030E94B618883C910558F510E21D0F43
:10320000CD17B9F080E28C0F883040F4C77081E0B0
:1032100001C0880FCA95EAF70E949510183048F44B
:1032200081E09D2F977001C0880F9A95EAF70E9460
:103230009C1070E060E0802F0E94AF12183060F6A2
:10324000D77081E001C0880FDA95EAF70E949510E7
:10325000C3CFC77081E001C0880FCA95EAF7F6CFE7
:10326000A5E0B0E0E6E3F9E10C94FA2A7C01FC0168
:1032700083819481892B31F08081918189238F3FD3
:1032800009F0AEC42596ECE00C94162B0E94B40B0A
:10329000182F682F89819A810E94270C69817A8171
:1032A000812F0E94FF098C01843FFCE59F0709F4F0
:1032B00083C018F5893D9C4509F47AC00A3D8CE528
:1032C000180709F489C0083D9CE5190709F526E2AD
:1032D00041EE61EEC7010E94D118809129028770EA
:1032E00089F2F7018281882369F280917C0282FF52
:1032F000C9CF82E00E94A50DC5CF863FECE59E07B1
:1033000009F462C008F45CC0873F9C4509F460C0C2
:10331000F7018281882309F474C4109255030430A4
:10332000FDE51F0708F05BC00B3F2CE5120730F4EA
:10333000C80182509C45449708F05CC00E949A14D2
:1033400090937C0280937B020231ECE51E0709F426
:103350005CC108F0A8C009302CE5120709F433C19C
:1033600008F072C005308CE5180709F41CC108F09C
:103370005EC00330ECE51E0709F40DC108F00FC173
:1033800080917B02816002302CE5120709F488C02D
:1033900060917B0210917C0284E090E00E94842B7B
:1033A000612F82E290E00E94842B0E94D80D95CF7D
:1033B00027E245EE65EE8ECF26E241EE60EE8ACF43
:1033C00027E245EE64EE86CF26E241EE62EE82CF42
:1033D00027E245EE66EE7ECF28E241E0EBCF063AEB
:1033E0003DE5130709F4AACFE0F402369DE519077D
:1033F00009F4A4CF06318CE5180709F084C4809144
:1034000033028A7A91E009F490E09093D00169E266
:10341000811165E388EC91E00E9432090E94420D1F
:103420005CCFC8018E5A9D45039720F787CF8091C6
:103430007B02806207303CE5130791F108F4BFC0BE
:1034400080917B0280642CC00D309CE5190709F443
:10345000C4C090F480917B028E7F0B30FCE51F0787
:10346000F9F080917B028C600C302CE51207C0F0E3
:1034700080917B028D7F14C00F303CE5130709F467
:10348000BCC008F4AEC000319CE5190709F4B9C00E
:1034900080917B028F7B0131ECE51E0709F078CF2C
:1034A00080937B0275CF0115FDE51F0709F4B7C0B6
:1034B000A8F50B3F3CE5130709F479C0C0F40431CB
:1034C0009CE5190709F4B9C008F4A5C00531FCE56D
:1034D0001F0709F05DCF80917B0282FB992790F94D
:1034E00021E0922790FB82F990FB83F9D9CF0D3F21
:1034F0002CE5120709F479C008F45DC00E3F8CE595
:10350000180709F476C080917C0283600F3F9CE528
:10351000190709F03DCF80937C023ACF0236EDE5E2
:103520001E0709F495C090F402302DE5120709F446
:103530008DC008F478C060E003308DE5180709F00D
:1035400027CF8EE090E00E94842B22CF0E3A9DE59B
:103550001907E9F060F490917B02892F8E7F90FF2C
:103560008160063AFDE51F0709F49ACF11CF0F3AA3
:103570002DE5120771F1003B3DE5130709F008CF77
:1035800090917C02892F877F93FF8860C4CF8091C0
:103590007C028860C0CF80917B02826081CF809165
:1035A0007B0284607DCF80917B02886079CF80919F
:1035B0007C028160B0CF80917C028260ACCF809130
:1035C0007B0280616DCF0E94D80D80917B02806864
:1035D00067CF80917C02877F9ECF80917B028B7F1B
:1035E0005FCF80917B02877F5BCF80917C028E7F53
:1035F00092CF80917C028D7F8ECF80917B028F7ED7
:103600004FCF80917B028F7D4BCF0E94D80D809150
:103610007B028F7745CF80917B02837F41CF809162
:103620007C028C7F78CF80917C02982F909591704E
:103630008E7F892B90FB81F96ECF0E94D80D9091DF
:103640007B02892F97FB87F980582ACF61E079CFD9
:1036500090917B02892F8F7E94FF806121CF809192
:10366000D00181110FC089E2EAECF1E020ED31E0F8
:103670009191891303C0DF0111971C922E173F0708
:10368000B9F7CCCE85E3F0CF81608093230361E06E
:1036900086950E94501421CE43E754E16DE774E112
:1036A0000E948E091ACE4DE754E163E774E1F8CF2A
:1036B00048E154E162E274E1F3CF44EE53E161EF9B
:1036C00073E1EECF61E081E0E4CF0E94D80D2FEFEF
:1036D00034E38CE0215030408040E1F700C000002E
:1036E00081E08093E00080E28093D8001092C900CE
:1036F000EFE1FEE43197F1F700C0000087E090EBC6
:10370000DC018093610790936207A0936307B093F5
:10371000640788E19CE00FB6F894A8958093600058
:103720000FBE90936000FFCF80917C0282FB8827C0
:1037300080F991E089270E945917F7018281008161
:103740001181882309F445C0C8010E94B40BD82E0A
:10375000682FC8010E94270CB8018D2D0E94FF0917
:103760000E941A0A8C01882EF701D280B580B2948B
:103770003FE0B322809129028770C1F0AD2CDD209B
:10378000B1F0812F807F803421F080E2800F88307B
:1037900068F080917C0282FF09C082E00E94A50D42
:1037A000809129028770AA24A3948111A12C912EC3
:1037B00092942FE09222FBE0F91508F476C0E92DEF
:1037C000F0E0EC53F44D0C944B2B81E0B4CF80E04F
:1037D000B2CFC8010E94F50BD82EBECF212F2F707B
:1037E000C22E107F19F0C29490EFC922DD20B9F0EB
:1037F000CC2069F080E2800F883010F0811009C081
:1038000080913302C82AC09233020E94420D802F59
:103810004AC080913202C82AC0923202F6CF802F6D
:103820000E94A610CC2009F440C0005E083010F0C1
:10383000811004C08C2D0E94A30B06C0C0948091FF
:103840003202C822C09232020E94420D2EC0312F95
:103850003F70C32E107F103219F0C29480EFC8223F
:10386000882089F081E0881609F477C0DD2009F40A
:1038700081C0BB2009F477C0F701858180FFC7CFE5
:103880008F70858370C020917C0222FD43C0DD20B3
:10389000D9F1CC2039F080913302C82AC09233028A
:1038A0000E94420D80E00E94DB10E92DE850FF0BE2
:1038B000349710F40E949E12AA20A9F08091290248
:1038C00080FD11C0F70112828595859585950E942E
:1038D000C10DC7010E9430198091290285958595F7
:1038E00085950E94930D85E0F701DE011196019008
:1038F0000D928A95E1F709811A81C8010E94F50BA2
:10390000B8010E94FF09BECC80E00E94A610CC2026
:1039100061F290CFDD20A1F0909134028C2D892BA3
:10392000B11003C00E949C10C0CFE1E0BE12FACFDC
:1039300022FFBBCF891709F4B8CF80933402B5CFEB
:10394000B11006C00E949D0B8C2D0E949510ADCF2A
:10395000F1E0BF1609F4A9CFF5CFDD2031F025E065
:103960002B1508F4A2CF8C2DDDCF34E03B1508F4E5
:103970009CCFEACFBB2041F3F9E38F122AC12FEF8E
:1039800037EE83E0215030408040E1F700C0000076
:1039900020C1812F86958695837061F0813009F072
:1039A00084CFC8019370D11002C090E080E00E94E3
:1039B0004C097BCFC8019370D11002C090E080E029
:1039C0000E94620972CF812F837009F03FC0D1102D
:1039D0006CCF402F429546954770440F440F802F7F
:1039E0008F7090E0042E02C0880F991F0A94E2F7AE
:1039F00030E020E004FF09C02FE030E002C0220FD9
:103A0000331F4A95E2F72095309516951695137059
:103A1000123099F078F440919B0250919C02113041
:103A200039F0822B932B842395230E94D10D3DCF17
:103A3000842B952B822B932BF8CF822B932B2091C9
:103A40009B0230919C0282279327EFCF8695DD2041
:103A500011F0812F8170882309F427CF402F4295E0
:103A600046954770440F440F802F8F7090E0042ECE
:103A700002C0880F991F0A94E2F730E020E004FFAB
:103A800009C02FE030E002C0220F331F4A95E2F751
:103A900020953095169516951370123099F078F49C
:103AA00040919D0250919E02113039F0822B932B50
:103AB000842395230E948C0DF8CE842B952B822B8A
:103AC000932BF8CF822B932B20919D0230919E0255
:103AD00082279327EFCF1F70DD2029F0812F0E94CE
:103AE000C10D802F1FCF802F0E949510812F0E9423
:103AF000930DDBCE802F92EF891699F1981570F017
:103B0000E0EF8E16D1F0F1EF8F1691F0DD2009F481
:103B10005BC0B1107CCE812F8F7127C023EF82163E
:103B200039F134EF8312F2CF80917C0282FD2EC0F6
:103B3000812F8F71DD20D9F218C0DD2069F084E07B
:103B40008B1508F4B2CE1F7181E090E002C0880F9F
:103B5000991F1A95E2F7B8CF95E09B1508F4A5CE0A
:103B6000F2CF812F8F71D110C2CF0E94C10D9DCE97
:103B700090E080E0DD2009F49DCF1F7181E090E0AE
:103B800002C0880F991F1A95E2F794CFDD2089F0C3
:103B90001F71812F0E94C10D80917C0282FF07C09E
:103BA000E8E01E9FC0011124836080932902812FC9
:103BB000DCCF81E00E94A50DF1E0FB1508F075CE89
:103BC00082E00E94A50D71CEBB2039F0893309F443
:103BD000D6CE802F0E94A61068CE812F8F7187CFFE
:103BE00085E0DE01119601900D928A95E1F7F701CB
:103BF000228189819A81211149CB0E94F50B182FCE
:103C00004DCB0631FCE51F0709F429CD8091330225
:103C100082720A3C2CE5120709F44FCD08F04BC024
:103C2000063C9CE5190709F443CD70F5043CFCE51E
:103C30001F0709F431CD08F036CD033C3CE51307EE
:103C400009F07BCD8091230380FF1ECD8E7F809372
:103C500023036091230370912403809125039091A5
:103C600026030E94F6128091E60281608093E602AC
:103C70009FEFE0E7F2E09150E040F040E1F700C054
:103C800000000E94FD1129CB4EEF53E16BE074E17F
:103C9000083C9CE5190709F403CD42E254E168E1D0
:103CA00074E1093CECE51E0708F4FACC4BE054E162
:103CB0006EEF73E1F5CC0E3CFCE51F0709F402CD75
:103CC000B8F44CE254E16EE374E10C3C3CE51307BC
:103CD00009F4E6CC41EF53E164EE73E10D3C9CE561
:103CE000190708F4DDCC4EE354E16CE274E1D8CC62
:103CF000073DECE51E0708F4F0CA0E35FDE51F0789
:103D000009F4EBCA1ACD0B352DE5120709F45DCD88
:103D100068F401158CE5180709F4D7CC0F3D1C4554
:103D200009F00BCD0E94F1160E94E0120D35EDE571
:103D30001E0709F4F9CC08F44ACD083A1D45A1F351
:103D4000FCCC1F93CF93DF938091F601807F09F025
:103D500049C08091F301882309F444C0809128026E
:103D6000D091F7016091F1017091F201A091F401FD
:103D7000B091F501C62FC72316E0D81799F190E04E
:103D8000109711F0CF3F19F401968770F6CF189F66
:103D90009001199F300D1124F901E850FE4F418127
:103DA0004713F2CF40814613EFCF42814111ECCF50
:103DB000438154814A1B5B0B483C510528F7809195
:103DC000F6018F7080618093F601F901E350FE4F98
:103DD00080818F708061808381EF91E00E94301933
:103DE0000E94AA0BDF91CF911F910895A1E1B0E04D
:103DF000ECEFFEE10C94FC2A8C0185E0F801DE0179
:103E00001D9601900D928A95E1F7F801E28081EF0D
:103E1000A82E81E0B82E6091F4017091F501611532
:103E2000710509F426C19091F1014091F201892FA9
:103E300084238F3F09F41DC120813181C380D48048
:103E4000F090F301F601E61BF70BFF2009F4DCC04C
:103E50008091F601582F507FE83CF10508F09FC093
:103E600051116BC0FE2C431314C0921312C0E11009
:103E700010C08F7080618093F601C5010E943019D7
:103E80008091F601F80185838F2D6196EAE00C940C
:103E9000182BC114D10429F0822F83238F3F09F0FE
:103EA00003C180E0F82FF170DF2E80FF3CC08091CD
:103EB00028024091F70156E0841315C02D873E87F4
:103EC0008D859E850E94E80B292F22952F70223028
:103ED000F0F0243018F59F70F1F0F8019581907F93
:103EE000D1F4D12C1EC090E0589FF001599FF00DE5
:103EF0001124E850FE4F6181361306C060812613FD
:103F000003C06281E6120FC001968770D5CF9F7003
:103F100011F0882331F3805E883018F3C8010E94C5
:103F20003019FD2CB1CFEE2009F4AECF8091F6010F
:103F300081608093F601F12CA7CF431306C0921342
:103F400004C0F801EE2009F479C0C8010E945C0C9D
:103F5000882309F1EE20F9F08091F601803270F0AB
:103F60002091F1013091F20138872F831986DB8689
:103F7000CA868C87CE0107960E94301986E0F80128
:103F8000A1EFB1E001900D928A95E1F70E94A11E88
:103F9000FF24F39479CFC8010E943019F9CF511151
:103FA0000AC081EF91E00E94301986E0F50111927C
:103FB0008A95E9F7C0CF43130FC092130DC0E110EB
:103FC0000BC0F8018583C8010E94301986E0F50115
:103FD00011928A95E9F758CFC8010E945C0C88239A
:103FE000D1F2EE20C1F28091F601803238F22091B8
:103FF000F1013091F2013A8329831B82DD82CC8268
:104000008E83CE010196B8CFE83CF105F8F6FE2C80
:10401000EE2009F243131FC092131DC08091F601D8
:1040200080FD10C0982F907F69F0F8018583903F44
:1040300031F0982F907F905F8F70892B8583C80116
:104040000E94301986E0F801A1EFB1E001900D92D5
:104050008A95E1F719CFC8010E945C0C81118ECFBF
:104060008091F60181608093F601C8010E943019A9
:104070000BCFEE2009F48FCFC8010E945C0CF82E04
:10408000882309F488CF86E0F801A1EFB1E0019020
:104090000D928A95E1F78091F1019091F2010E94D1
:1040A000E80B0E94A11EF0CE81E08E25FBCEA7E199
:1040B000B0E0EDE5F0E20C94032B4B8B5C8B6D8B49
:1040C0007E8B8F8B6111109232021A8A198A85E0D9
:1040D000FE017396DE011D9601900D928A95E1F71F
:1040E00086E0FE013D96DE01179601900D928A95BD
:1040F000E1F7CE0107960E94F61E811112C086E0FC
:10410000FE013796DE01119601900D928A95E1F736
:104110008A859B85892B29F088859F8189238F3FFC
:1041200081F516E0809128029091F701891317C05C
:104130006796E3E00C941F2B96E0929FD001939F2B
:10414000B00D1124A850BE4FFE01319601900D9282
:104150009A95E1F78093F7010E94AA0BE2CF819F25
:10416000C001112488509E4F0E94F61E882301F33F
:104170008091280290E00196877099278093280209
:10418000D1CF2091F70130E0C901019687709927BE
:10419000409128024817190679F60E94D80D10920E
:1041A000F7011092280286E0E1EFF1E0DF011D92B5
:1041B0008A95E9F7B6CFACE0B0E0E1EEF0E20C941E
:1041C000F92A8E010F5F1F4F88E0D8011D928A9552
:1041D000E9F780E4C82E81E0D82EF12CE12CAA2446
:1041E000A394B12C20E4822E21E0922EF60181913D
:1041F0006F018F3F09F442C0F894E82FE295EF7009
:10420000F0E021A18F70A50102C0440F551F8A95CF
:10421000E2F7CA01922F982B91A392A1809589234E
:1042200082A3789400C0E8E3F1E0712C31E02191A1
:104230002F3F09F46BC0A22FA295AF70B0E090960B
:104240008C9190E02F7002C0959587952A95E2F7A2
:1042500080FD5CC0832F782A330F8E169F0639F7B6
:10426000F601319780818F3F11F00E94A50950EA35
:104270005A95F1F7F801EE0DFF1D70828FEFE81AE5
:10428000F80A94E0E916F10409F0B0CF48E050E0F4
:10429000B80181E792E00E945A2B009741F028E094
:1042A000F801A1E7B2E001900D922A95E1F70091A3
:1042B0007A02892B69F181E0809337020E94C51848
:1042C00090933602809335028091350290913602A8
:1042D0000E94B618059700F110E00E571D4F44E0FC
:1042E00050E061E772E0C8010E945A2BF12C892B43
:1042F00051F084E0E1E7F2E0D80101900D928A9557
:10430000E1F7FF24F3941092370207C080E0A3CFB7
:10431000809137028111D8CFF12C0E947B12E82EB8
:10432000E0917A02882309F494C019861A861B86C4
:104330001C860E2F10E00E571D4F80916C028A30A4
:1043400008F051C04DEB56E1BE01675F7F4FC801D9
:104350000E944812882309F46BC044E656E1BE016E
:10436000675F7F4FC8010E944812882309F460C02C
:1043700048EA54E1BE01675F7F4FC8010E944812BE
:10438000882309F455C041E955E1BE01675F7F4FBD
:10439000C8010E944812882309F44AC042E755E147
:1043A000BE01675F7F4FC8010E944812882309F44D
:1043B0003FC010926C028091790290E044E050E09E
:1043C000BE01675F7F4F8E579D4F0E945A2B21E0A1
:1043D00020933E02892BF1F4E12C8E2D8F292C960F
:1043E000EDE00C94152B80913802909139020E94D7
:1043F000B618843F914008F0A5CF80913E028823F3
:1044000059F3FE01399684E0DF011D928A95E9F7A0
:1044100010923E02E0917902F0E0EE57FD4F89855F
:104420009A85AB85BC8580839183A283B383D5CFE6
:1044300080916C028F3F31F08F5F80936C028A30E5
:1044400008F4B9CF0E94C5189093390280933802BE
:10445000D4CFF0E0EE57FD4F84E0ADE4B2E0019040
:104460000D928A95E1F764E070E08DE492E00E949D
:10447000780980934C024091980250E06091970235
:1044800070E06D567D4FCE0109960E94672B89859D
:104490008093520261E070E0CE0109960E94780993
:1044A000809351028090530290905402A090550244
:1044B000B090560280913A0290913B02A0913C024A
:1044C000B0913D0288169906AA06BB06D1F08092EB
:1044D0003A0290923B02A0923C02B0923D020E94AE
:1044E0007B1281110EC00E942609861A970AA80A1B
:1044F000B90A80926D0290926E02A0926F02B09201
:10450000700280915E028823F1F080FF0DC08091DF
:1045100057029091230380FF1DC091609093230365
:1045200060E086950E94501480915E0281FF09C070
:1045300020E040915A0260915902809158020E94F5
:10454000091310925E0280915F028823B9F00E94E5
:10455000731143CF9E7F909323038091E602816085
:104560008093E602BFEFE0E7F2E0B150E040F040B8
:10457000E1F700C000000E94FD11D6CF0E94581143
:104580002CCF1F921FB61F9211248F939F93AF932E
:10459000BF9380913403811113C0809135039091B2
:1045A0003603A0913703B09138034196A11DB11D88
:1045B0008093350390933603A0933703B093380369
:1045C000BF91AF919F918F911F901FBE1F90189523
:1045D000CDB7DEB72F970FB6F894DEBF0FBECDBFB5
:1045E00085B7806885BF85B7806885BF84B7877FBA
:1045F00084BF0FB6F894A89580916000886180937D
:104600006000109260000FBE80E890E00FB6F89452
:1046100080936100909361000FBE83EA99E09093CC
:10462000C7018093C6010E949D070E94680880917F
:10463000E20084608093E2007894809149038823AB
:10464000A1F01091E9001F709091EC00892F81700A
:1046500090FD80E8182B1092E9008091E80083FD1E
:104660000E94E40D1F701093E90082E084BD93E086
:1046700095BD9AEF97BD80936E0010926D021092D7
:104680006E0210926F021092700223982B9A6E9A0B
:10469000769805E00A95F1F7000083B183FB88273F
:1046A00080F96E98769A10EA1A95F1F78093440192
:1046B00080914401882309F45EC110925A018AE076
:1046C00080935B010E947B1281110E947E29809160
:1046D0004401811120C084E98093400186E68093E3
:1046E000410187E98093420186EC8093430188E091
:1046F000E0E6F1E0DE01119601900D928A95E1F776
:10470000FE013196A8E3B1E0CE01099621912D93E7
:10471000E817F907D9F78091440194E0811190E0FE
:1047200090937A0284E0891B8093790200E411E07F
:10473000D8018D918D018F3F11F00E94A509B1E044
:1047400004341B07A9F708E311E0F80181918F01F8
:104750008F3F11F00E94A509F1E000341F07A9F76F
:1047600088E0E2E8F2E0DF01082F1D920A95E9F700
:10477000E1E7F2E0DF011D928A95E9F790E080E041
:104780000E947E2B883E9E4F11F00E94F11682E01F
:1047900090E00E94702B80938A020E949A1490935A
:1047A0007C0280937B0283E090E00E94702B90E07B
:1047B0000E94D10D82E08093DF0280E8809356034F
:1047C0000E9438286DE070E08FEB92E00E942E117D
:1047D000892BE9F58091DF0263E070E081FDCFC0B5
:1047E0008CEB92E00E942E11892B89F56DE070E030
:1047F0008CEA92E00E942E11892B49F50E9426092D
:10480000605A75418F4F9F4F60932803709329031F
:1048100080932A0390932B03E9E5F3E080E094E092
:10482000DF018C011D9201501040E1F7F093600709
:10483000E0935F078FEF9FEF9093580380935703A8
:1048400081E080932D0380932C031092E0028091ED
:104850007D02811139C090E080E00E947E2B883E6D
:104860009E4F21F00E94F1160E94821488E090E091
:104870000E94782B60932303709324038093250375
:10488000909326038091E60283608093E6026E7F18
:1048900071F40E94821488E090E00E94782B60936B
:1048A00023037093240380932503909326030E948F
:1048B00094098091230380FF04C060E086950E94E4
:1048C000501481E080937D029091440181E098270B
:1048D00090939702282F291B20937F0290914401E7
:1048E000809398029091440180937E0280914401CC
:1048F000811106C085EF8093520184EF80935101AE
:1049000020915201E22FE295EF70F0E061A12F704B
:1049100081E090E0AC0101C0440F2A95EAF7342F02
:104920003095362331A322A1242B22A320915101BB
:10493000E22FE295EF70F0E031A12F7001C0880FF7
:104940002A95EAF7982F9095932391A392A1892B0A
:1049500082A38FE891E00197F1F700C00000109169
:10496000980269E972E042E551E081E5E82E81E0D4
:10497000F82EFB012FC08AE080935A01A1CE89EB6B
:1049800092E030CFDA012D91AD01822F82958F70A8
:1049900090E0DC0190968C9190E02F7002C095958C
:1049A00087952A95E2F78170D7019D917D01292F86
:1049B00022952F7030E0D90190962C9130E09F70B5
:1049C00002C0359527959A95E2F790E020FD92E098
:1049D000892B81938E2F861B8117A0F20E947B1258
:1049E000811102C00E94812985E491E090933103F6
:1049F00080933003A0E4DA2E8091490300E112E1B4
:104A0000853009F49BC00E94DB207BE8E72E72E032
:104A1000F72EE2E88E2EE2E09E2EFBE9AF2EF1E0CB
:104A2000BF2E43E952E085019401F7019191D9012C
:104A30008D919D01D8016D918D0186234E175F07E1
:104A400009F486C0981791F30E947B12582E00E05B
:104A5000F40111914F01D5018D915D011823F701EA
:104A600061907F01611629F1C12C7724739461262E
:104A7000862D8721B1F05520A1F0C9860A8791E0E3
:104A8000872D812309F490E09B870E94C5188160DF
:104A9000782F9D878C8749855A856B858D850E94E7
:104AA0005720C394770CF8E0CF12E2CFF70131978B
:104AB00010830F5F083061F60E942609EE24E3940C
:104AC00068C080914903843029F10E9458111092E6
:104AD0003403E8E1F0E00FB6F894A895E0936000A5
:104AE0000FBED092600083B7817F846083BF83B79D
:104AF000816083BF7894889583B78E7F83BF0FB61C
:104B0000F894A8958091600088618093600010926D
:104B100060000FBE80914803882381F00E94DB2053
:104B2000E2E8F2E0ABE9B1E081919D91892309F0DF
:104B300089C22AE832E02E173F07B1F78091490376
:104B4000853009F4BECF0E94D80D0E949E125BCF23
:104B500098137ACF0E94C5188C01809180029091A1
:104B6000810208171907A1F08FEF89838A831B82BE
:104B70000E94C5188160782F9D838C8349815A815A
:104B80006B818D810E9457201093810200938002D7
:104B9000E12C0E947B12B12CF12C80919802B81666
:104BA00008F442C0F1100E949A0B80912D038823D3
:104BB00051F18091E1029091E2020E94B618C297F1
:104BC00008F0A3C0209157033091580321153105F7
:104BD00009F066C180912C038823A9F00E94260960
:104BE000009128031091290320912A0330912B036F
:104BF000601B710B820B930B6F3F7F4F8F4F9F4753
:104C000010F40E945811E11001C0F1100E947311BC
:104C10000E949E129091E302891709F4EDCE8093D1
:104C2000E3020E942609E8CE0B2D10E0F801EE5AAF
:104C3000FE4F8081E82FE295EF70F0E0E0A1F0E018
:104C40008F7002C0F595E7958A95E2F7E170D8017B
:104C5000AF5ABE4F2C91A22FA295AF70B0E09096A4
:104C60008C9190E02F7002C0959587952A95E2F778
:104C700080FD49C080E08E2BD801A756BD4FEC9136
:104C80009E2F93708917E9F1EE0FEE0FE82BEC934E
:104C9000C0909702CB0CEF70F0E0ED55FE4F0B5635
:104CA0001D4F8081D8019C91890F8C9320E0843026
:104CB00064F0EC2DF0E0ED56FD4F80818F5F808336
:104CC00060E08C2D0E94C71221E0F80180818D3FA9
:104CD00064F4EC2DF0E0ED56FD4F8081815080832F
:104CE00061E08C2D0E94C71221E0D8018C91082E22
:104CF000000C990B64E070E00E94372BF801808370
:104D0000F22AB3944ACF82E0B6CF0E94C51890939E
:104D1000E2028093E10289E593E09093600780933B
:104D20005F070E947B12882309F47CC085E597E029
:104D30000E94340D8EE497E00E94340D87E497E0E2
:104D40000E94340D8FE397E00E94340D80919D0204
:104D500090919E0220919B0230919C02822B932B7A
:104D6000292F3327E0E02115310511F0C901E8E0D2
:104D70009C0154E0369527955A95E1F721153105A8
:104D800011F0EC5FC9019C01369527953695279562
:104D90002115310511F0EE5FC90196958795892B94
:104DA00009F0EF5F8CEF96E0E73038F4F0E0E05385
:104DB000F44D0C944B2B87E397E00E94340D0E9436
:104DC0009E12182F8CEE96E010FF02C084EF96E042
:104DD0000E94340D8CED96E011FF02C084EE96E047
:104DE0000E94340D8CEC96E012FF02C084ED96E038
:104DF0000E94340D80912D03882309F4EBCEE2CE7E
:104E00008FE297E0DACF83E297E0D7CF8EE197E0A9
:104E1000D4CF89E197E0D1CF8FE097E0CECF87E084
:104E200097E0CBCF80915F079091600789559340C1
:104E30009C013C5F21303440B0F020E034E0281B7E
:104E4000390B4091570350915803ECECF2E0280FD6
:104E5000391F61E070E08217930740F050935803C8
:104E600040935703C7CF20E034E0EBCF1491DC012F
:104E7000A75ABC4F0C91101781F01C93DC0116E06F
:104E8000B695A7951A95E1F78B0102C0000F111F87
:104E9000AA95E2F7D801402B5B2B01963196DBCF28
:104EA0008091E00261E070E0811194CE082F10E063
:104EB0002B01082E02C0440C551C0A94E2F7A901EC
:104EC00044215521452B09F447C09091DF0290FD04
:104ED00045C08295880F880F807480935501980192
:104EE0003695279520935801815C80935601109246
:104EF000590124E630E047E050E063E571E088E7DF
:104F00000E94D828892B09F065CEA80136E0440F0D
:104F1000551F3A95E1F78091DF0280FD2DC0475A79
:104F20005C4F04E610E020E430E060E488E70E9493
:104F3000F928892B09F04ECE0E947311C201809589
:104F40009095409057035090580348225922509210
:104F50005803409257033ECE8F5FA8CF880F880F2B
:104F6000880F8093550110925801895F80935601F4
:104F700087E080935901BDCFEFE9F2E0DF010D2D0D
:104F80001D920A95E9F72BEB31E03F872E8703EB63
:104F900011E023EC822E21E0922EAE85BF852D916B
:104FA000BF87AE87F80121908F01240E352E311C6A
:104FB000C101875A9C4F1C01E22FF0E0E156FD4FE2
:104FC00030E020E097E0692E621ACC24C394022ED0
:104FD00001C0CC0C0A94EAF7510190E0D5018D9103
:104FE0005D018C21662D691B6770762E062E000CE4
:104FF000770BB82F01C0BB0F7A94EAF77B2E71951F
:10500000619571096770772701C086956A95EAF7FF
:10501000782A8081782A70829F5F9830F9F62F5F16
:105020003F4F31962830310569F6EE85FF858E16A3
:105030009F0609F0B2CF04E610E020E430E04FE92B
:1050400052E073CF09BD19BD09B400FEFDCF8091B8
:10505000D8008F7D8093D8008091E000826080939B
:10506000E0008091E00081FDFCCF0E94D80D66CD6C
:105070001092B9008CE08093B8000895B0E0A0E0F1
:10508000E4E4F8E20C94FB2AB82EEB010E94C51868
:105090006C01EE24E394F12CC431D10560F025E0DD
:1050A000E22EF12CCF3FDC0731F0CE0164E170E05D
:1050B0000E94E02A7B0184EAA82E94E8992E10929F
:1050C000BC00A092BC000E94C5188C018091BC005D
:1050D00087FF0DC08091B900887F8830F9F08091FA
:1050E000B900887F8031D1F00FEF1FEF08C0C801F1
:1050F0000E94B618E816F90648F70EEF1FEFCF3FEB
:10510000DC07E9F2C6010E94B618C817D907B8F63D
:10511000C801CDB7DEB7EBE00C94172BB092BB0003
:105120009092BC000E94C5188C018091BC0087FF42
:105130000AC08091B900887F883111F08034A1F6CF
:1051400010E000E0E5CFC8010E94B618E816F906A5
:1051500060F7D3CF0F931F93CF93DF93EB0180932F
:10516000BB0084E88093BC000E94C5188C0180912C
:10517000BC0087FF11C02091B900287F81E090E03A
:10518000283211F490E080E0919581959109DF91AA
:10519000CF911F910F910895CF3FDC0741F3C801D4
:1051A0000E94B618C817D90710F78EEF9FEFEFCF00
:1051B000B0E0A0E0EEEDF8E20C94FE2A6B018A016B
:1051C0007901B9010E943E28E6010C0D1D1DC01792
:1051D000D10711F097FF08C024E92093BC00CDB798
:1051E000DEB7E8E00C941A2BB70189910E94AA2837
:1051F000EECFB0E0A0E0EFEFF8E20C94FE2AC62F6D
:105200006A017901B8010E943E2897FD0CC0B801DF
:105210008C2F0E94AA28E601EC0CFD1CCE15DF05A0
:1052200011F097FF08C024E92093BC00CDB7DEB78A
:10523000E8E00C941A2BB80189910E94AA28EECFBD
:1052400084E98093BC0008958EE14A9B02C081509E
:10525000E1F74A9BFECF08955A9880E28A95F1F7CC
:105260005A9A0895FC013BE03A95F1F798E020E066
:1052700080E031E040E14A95F1F7880F4A9B02C097
:105280008160232742E04A95F1F7000040E14A950A
:10529000F1F7915079F790E19A95F1F799B132E0F1
:1052A0003A95F1F7000040E14A95F1F792FB992712
:1052B00090F992272081920F90830895A1E0B0E0A9
:1052C000E4E6F9E20C94002B19828C017C01E60ED5
:1052D000F11C0E151F0541F481E09981911180E0C8
:1052E0002196E6E00C941C2B0E942429CE01019605
:1052F0000E943229F80181938F01EBCF529A5A9A7A
:10530000089552985A9AEA9AE9E6F0E080818F7CF3
:10531000808308956150770B91E001C0990F6A95E1
:10532000EAF720E031E0911108C0222391F05A9A67
:1053300080E28A95F1F75A980895492F482339F069
:105340005A9A232740E24A95F1F79695ECCF5A985E
:10535000F9CF5A98EDCFFF920F931F93CF93DF931E
:10536000EC018C01060F111DC017D10729F4CDB730
:10537000DEB7E5E00C941D2BF9900E942C2968E023
:105380008F2D0E948A29F0CF1F920F920FB60F9295
:1053900011240F931F932F933F934F935F936F931A
:1053A0007F938F939F93AF93BF93EF93FF93CF938D
:1053B000DF930F92CDB7DEB719820E942429CE0168
:1053C00001960E943229082F069506950695282FEA
:1053D00022952570902F9570290F922F9370269506
:1053E0002695920F982797708981982B09F05CC0B9
:1053F000083008F059C080E18A95F1F75A9A529A1C
:1054000082E08A95F1F700C05A9888E0089F8001F1
:105410001124D801A050BF4F1696ED91FC9117971B
:105420003097A9F06091990170919A0114962D918D
:105430003C911597260F371F11968D919C911297CD
:10544000680F791F13964C9113978C910995F80169
:10545000E050FF4F6381662351F020919901309114
:105460009A0184819581820F931F0E94AB290E942B
:105470002C2980E18A95F1F75A9852985A9A80E13E
:105480008A95F1F7F801E050FF4F6081662351F0F3
:105490002091990130919A0181819281820F931F0D
:1054A0000E945E290E9424290F90DF91CF91FF91E5
:1054B000EF91BF91AF919F918F917F916F915F918C
:1054C0004F913F912F911F910F910F900FBE0F9011
:1054D0001F9018950F931F93CF93DF93EC010897BC
:1054E0000CF04CC0F894529A5A9885E08A95F1F7DE
:1054F00000009C2F969595708C2F8570980F892FA2
:1055000083709695969523E0CC0FDD1F2A95E1F7E1
:10551000980F8E01092B0E942C2900C068E0802F73
:105520000E948A2980E18A95F1F752985A9A4A9BFB
:105530001EC087E090E04A991CC0FE01E050FF4F7A
:1055400063816623F9F02091990130919A01848159
:105550009581820F931F0E945E29811113C0529A78
:105560005A9A7894DF91CF911F910F91089500C0BE
:10557000DECF019729F4529A5A9A789480E0F2CFBC
:1055800000C0D9CF0E94242980E28A95F1F75A9869
:10559000529A80E18A95F1F7C050DF4F6881662307
:1055A00051F02091990130919A0189819A81820F5D
:1055B000931F0E94AB290E942C29789481E0D2CFBE
:1055C000AA1BBB1B51E107C0AA1FBB1FA617B70729
:1055D00010F0A61BB70B881F991F5A95A9F7809545
:1055E0009095BC01CD0108952F923F924F925F920A
:1055F0006F927F928F929F92AF92BF92CF92DF92E3
:10560000EF92FF920F931F93CF93DF93CDB7DEB747
:10561000CA1BDB0B0FB6F894DEBF0FBECDBF0994DB
:105620002A88398848885F846E847D848C849B8432
:10563000AA84B984C884DF80EE80FD800C811B8140
:10564000AA81B981CE0FD11D0FB6F894DEBF0FBE6F
:10565000CDBFED010895991B79E004C0991F9617FD
:1056600008F0961B881F7A95C9F78095089597FBD7
:10567000072E16F4009407D077FD09D00E94E02A87
:1056800007FC05D03EF4909581959F4F0895709545
:1056900061957F4F0895EE0FFF1F0590F491E02D67
:1056A0000994FB01DC0102C005900D92415050406D
:1056B000D8F70895FB01DC0104C08D910190801999
:1056C00021F441505040C8F7881B990B0895FB0105
:1056D000DC0102C001900D9241505040D8F708956E
:1056E000F999FECF92BD81BDF89A992780B50895AA
:1056F000A6E1B0E044E050E00C94AA2BA8E1B0E0B1
:1057000042E050E00C94AA2B262FF999FECF92BDCF
:1057100081BDF89A019700B4021639F01FBA20BD76
:105720000FB6F894FA9AF99A0FBE08950396272FA8
:105730000E94852B0E94842B252F0E94852B242FCD
:105740000C94852B0196272F0E94852B0C94842B7B
:10575000DC01CB01FC01F999FECF06C0F2BDE1BD31
:10576000F89A319600B40D9241505040B8F7089520
:10577000F894FFCFC30EEB0E8310EB0E83101E0FB9
:105780003F0F83103C104910EE1BEE1B271C271CFB
:10579000C91C551C551C551CE31C6B1D7A1D7A1D1C
:0E57A000DB2600270327062709270C270F27E3
:1057AE0000000001000000000000000401000000E5
:1057BE0000000001050000000000000106000000CE
:1057CE000407000000000000080B000000000000AD
:1057DE00011300000000000032363534C69766947F
:1057EE00F6F73133012309D0112209CB11C611214D
:1057FE0009F5F40021007F220007001400141401A3
:10580E00343536323331F7F6818283E200E900EA2D
:10581E0000B500B600B700CD008301CC008A01921E
:10582E000194012102230224022502260227022AC4
:10583E0002B300B4006F0070004C02FCFCFF2FFCA2
:10584E00FCFF2F00FF0100010000FFFF0000010020
:10585E0001FF000008101820283038383028201892
:06586E001008000001001B
:00000001FF
