:100000000C9463070C949B070C949B070C94EF29AA
:100010000C949B070C949B070C949B070C949B07D8
:100020000C949B070C949B070C94EA170C94A6174E
:100030000C941D230C949B070C949B070C949B071A
:100040000C949B070C949B070C949B070C949B07A8
:100050000C949B070C94C3180C949B070C949B075F
:100060000C949B070C949B070C949B070C949B0788
:100070000C949B070C949B070C949B070C949B0778
:100080000C949B070C949B070C949B070C949B0768
:100090000C949B070C949B070C949B070C949B0758
:1000A0000C949B070C949B070C949B07000000008A
:1000B0001700150008001A001400290000000000B5
:1000C0000A0009000700160004002A00E1002C4184
:1000D0000500190006001B001D00E10002512C4123
:1000E0002800E000E3000000000000000000000025
:1000F0001C0018000C00120013003100000000006A
:100100000B000D000E000F003300340033002B00F5
:10011000110010003600370038002D0003512B006D
:100120004C00E400E30000000000000000000000BC
:10013000310230022F021F021E02290000000000BF
:10014000350027022602210200002A0000002C00B0
:10015000230230002F0000000000E10000002C000E
:100160002002E000E30000000000000000000000AA
:10017000000000000000000000000000000000007F
:1001800024022E022D0025022202000000002B0076
:1001900035022E00360037003800000000002B002A
:1001A0004C00E400E300000000000000000000003C
:1001B0002200210020001F001E0029000000000076
:1001C000A900BB00AE00BC0000002A0000002C000B
:1001D000AA00F100F200F3000000E10000002C0092
:1001E000A800E000E30000000000000000000000A4
:1001F00023002400250026002700FD000000000049
:100200005000510052004F000000FE0000002B0083
:10021000EF00EE00ED00F0000000FF0000002B00FA
:100220004C00E400E70000000000000000000000B7
:10023000CA5CCC5CC85CC45C3D003A0000000000B5
:10024000CB5CCD5CC95CC55C3E003B0000002C0073
:1002500000000000000000003F003C0000002C00F7
:10026000A600E000E3000000000000000000000025
:10027000CE5CCF5CD05CD15C40004300000000004D
:10028000D55CD45CD35CD25C4100440000002B0000
:1002900000000000000000004200450000002B00AC
:1002A000A700E400E70000000000000000DA12816F
:1002B000FFD9F1DB20A4A62EAF00A0C000A1C8008A
:1002C000AED580A83FD300408D1420000000000070
:1002D0000000000000000000008080C0E0F07078A6
:1002E000383C1C1E0E0E0E070707070707070707F7
:1002F000070707070707070E0E0E1E1C3C3878700D
:10030000F0E0C0808000000000000000000000005D
:1003100000000000000000000000000000000000DD
:1003200000000000000000000000000000000000CD
:1003300000000000000000000000000000000000BD
:1003400000000000000000000000000000000000AD
:10035000000000C0E0F07C3E1F0F07030180C0E0FA
:10036000F078383C1C1E0E0E070787E77F1FFFFF43
:100370001F7FE78707070E0E1E1C3C3878F0E0C091
:10038000800103070F1F3E7CF0E0C000000000006A
:10039000000000000000000000000000000000005D
:1003A000000000000000000000000000000000004D
:1003B000000000000000000000000000000000003D
:1003C000000000000000000000000000000000002D
:1003D000F0FCFF1F07010000C0F0FCFEFFF7F3B1C7
:1003E000B03030303030303078FE87010000FFFF11
:1003F00000000187FE7830303030303030B0B1F35B
:10040000F7FFFEFCF0C0000001071FFFFCF000003A
:1004100000000000000000000000000000000000DC
:1004200000000000000000000000000000000000CC
:1004300000000000000000000000000000000000BC
:10044000000000000000000000000000000000FFAD
:10045000FFFF0000000000FEFFFF0101071E78E122
:1004600081838386868C8C9898B1B7FEF8E0FFFF75
:10047000E0F8FEB7B198988C8C8686838381E1780A
:100480001E070101FFFFFE0000000000FFFFFF004C
:10049000000000FFFF0000C0C030300000F0F0009E
:1004A0000000000000F0F00000F0F0C0C03030307C
:1004B00030C0C000003030F3F30000000000003016
:1004C0003030303030C0C00000000000000000FFBD
:1004D000FFFF00000000007FFFFF8080E0781E87A4
:1004E00081C1C16161313119198DED7F1F07FFFF96
:1004F000071F7FED8D191931316161C1C181871EDF
:1005000078E08080FFFF7F0000000000FFFFFF0019
:100510000000003F3F03030C0C30300000000033AC
:1005200033333333330F0F00003F3F000000000030
:10053000000000000030303F3F303000000C0C3332
:1005400033333333333F3F0000000000000000002E
:100550000F3FFFF8E0800000030F3F7FFFEFCF8DDC
:100560000D0C0C0C0C0C0C0C1E7FE1800000FFFF2E
:10057000000080E17F1E0C0C0C0C0C0C0C0D8DCFC0
:10058000EFFF7F3F0F03000080E0F8FF3F0F000008
:10059000000000000000000000000000000000005B
:1005A000000000000000000000000000000000004B
:1005B000000000000000000000000000000000003B
:1005C000000000000000000000000000000000002B
:1005D00000000003070F3E7CF8F0E0C08001030735
:1005E0000F1E1C3C38787070E0E0E1E7FEF8FFFF7A
:1005F000F8FEE7E1E0E0707078383C1C1E0F07035E
:100600000180C0E0F0F87C3E0F070300000000000E
:1006100000000000000000000000000000000000DA
:1006200000000000000000000000000000000000CA
:1006300000000000000000000000000000000000BA
:1006400000000000000000000000000000000000AA
:10065000000000000000000000010103070F0E1E53
:100660001C3C3878707070E0E0E0E0E0E0E0E0E052
:10067000E0E0E0E0E0E0E070707078383C1C1E0ED6
:100680000F0703010100000000000000000000004F
:10069000000000000000000000000000000000005A
:1006A000000000000000000000000000000000004A
:1006B000000000000000000000000000000000003A
:1006C00000000000000000000000000020202020AA
:1006D000202020005343524C434B20002020202058
:1006E000202020004341504C434B2000202020205C
:1006F000202020004E554D4C434B2000556E646524
:1007000066696E65640A0041646A7573740A00461E
:10071000756E6374696F6E0A0053796D0A004E61DD
:10072000760A00436F6C656D616B2D44480A004486
:10073000766F72616B0A005157455254590A004C4A
:10074000617965723A2000726576310A0A004B7948
:100750007269612000808182838485868788898A86
:100760008B8C8D8E8F9091929394A0A1A2A3A4A51F
:10077000A6A7A8A9AAABACADAEAFB0B1B2B3B4C096
:10078000C1C2C3C4C5C6C7C8C9CACBCCCDCECFD0E1
:10079000D1D2D3D400000101010101010101010204
:1007A0000202020202020202030303030303030321
:1007B00004040404040404050505050506060606EC
:1007C00006070707070708080808090909090A0AA8
:1007D0000A0B0B0B0C0C0C0D0D0D0E0E0E0F0F0F4C
:1007E00010101111111212131314141515161617D7
:1007F00017181819191A1A1B1B1C1D1D1E1E1F2045
:1008000020212222232424252626272829292A2B91
:100810002C2D2D2E2F3031323233343536373839B6
:100820003A3B3C3D3E3F40414243444546474849B0
:100830004A4C4D4E4F50515354555658595A5B5D82
:100840005E5F616264656668696B6C6D6F70727320
:100850007577787A7B7D7E8082838587888A8C8E87
:100860008F91939596989A9C9EA0A2A3A5A7A9ABB9
:10087000ADAFB1B3B5B7BABCBEC0C2C4C6C9CBCDAB
:10088000CFD1D4D6D8DBDDDFE2E4E7E9EBEEF0F35D
:10089000F5F8FAFDFF00AF00AE05010980A1018562
:1008A0000319012AB700150126B7009501751081BB
:1008B00000C0050C0901A101850419012AA0021537
:1008C0000126A002950175108100C005010906A14D
:1008D00001050719E029E715002501950875018133
:1008E000029501750881010507190029FF150026E9
:1008F000FF00950675088100050819012905950571
:1009000075019102950175039101C009023B000236
:100910000100A0FA090400000103010100092111EE
:1009200001000122400007058103080001090401BC
:10093000000103000000092111010001223200071B
:1009400005820320000112010002000000081D8D35
:100950009D9D01000102000116034B007900720009
:10096000690061002000720065007600310000001F
:100970001003730070006C00690074006B0062006B
:1009800000000403090407087F0807003E5B4F5B73
:100990003E003E6B4F6B3E001C3E7C3E1C00183CF4
:1009A0007E3C18001C577D571C001C5E7F5E1C009F
:1009B00000183C180000FFE7C3E7FF0000182418E8
:1009C0000000FFE7DBE7FF0030483A060E0026296B
:1009D00079292600407F05050700407F05253F0057
:1009E0005A3CE73C5A007F3E1C1C0800081C1C3E79
:1009F0007F0014227F2214005F5F005F5F00060902
:100A00007F017F00006689956A0060606060600019
:100A100094A2FFA2940008047E04080010207E2007
:100A2000100008082A1C0800081C2A0808001E10CC
:100A3000101010000C1E0C1E0C0030383E38300018
:100A4000060E3E0E060000000000000000005F00E1
:100A50000000000700070000147F147F1400242A00
:100A60007F2A120023130864620036495620500082
:100A7000000807030000001C224100000041221C66
:100A800000002A1C7F1C2A0008083E08080000807D
:100A900070300000080808080800000060600000CE
:100AA0002010080402003E5149453E0000427F40AC
:100AB00000007249494946002141494D330018144C
:100AC000127F10002745454539003C4A494931000D
:100AD000412111090700364949493600464949294B
:100AE0001E00000014000000004034000000000858
:100AF000142241001414141414000041221408009C
:100B00000201590906003E415D594E007C12111246
:100B10007C007F49494936003E41414122007F41E6
:100B200041413E007F49494941007F0909090100CF
:100B30003E41415173007F0808087F0000417F411A
:100B400000002040413F01007F08142241007F4007
:100B5000404040007F021C027F007F0408107F009D
:100B60003E4141413E007F09090906003E415121B5
:100B70005E007F09192946002649494932000301D0
:100B80007F0103003F4040403F001F2040201F00E6
:100B90003F4038403F0063140814630003047804A6
:100BA00003006159494D4300007F41414100020467
:100BB00008102000004141417F00040201020400AE
:100BC0004040404040000003070800002054547893
:100BD00040007F28444438003844444428003844C6
:100BE00044287F0038545454180000087E0902003D
:100BF00018A4A49C78007F080404780000447D4079
:100C000000002040403D00007F10284400000041CB
:100C10007F4000007C04780478007C08040478009D
:100C2000384444443800FC1824241800182424189C
:100C3000FC007C08040408004854545424000404B4
:100C40003F4424003C4040207C001C2040201C00ED
:100C50003C4030403C004428102844004C90909088
:100C60007C004464544C44000008364100000000FD
:100C70007700000000413608000002010204020073
:100C80003C2623263C00000000000000404040F0CD
:100C9000F8F8FF38FFF8F83FF8F8FF38FFF8F8F0F9
:100CA00040404000000000000080C0C0C080000044
:100CB000C0C08000000080C0C000C0C0000080C074
:100CC000C00000000000C0C0C0C0C000C0C0000024
:100CD0000000000000000000000000000000000014
:100CE0000000000000000000000000000000000004
:100CF00000000000000000000000000000000000F4
:100D00000000000000C0F0F8FC3E1E0601000000DC
:100D10007F4141417F007F4141417F000080C0E031
:100D20007E5B4F5BFEC00000C000DCD7DEDEDED79E
:100D3000DC00C00000000000000000000000000017
:100D4000000000000000000000000000494949FFC9
:100D5000FFFFFFE0DFBFBF00BFBFDFE0FFFFFFFF20
:100D600049494900000000001F3F6060E0BF1F00CC
:100D70007F7F071E381E077F7F007F7F0E1F3B711E
:100D80006000000000007F7F0C0C0C007E7E007F66
:100D90007E0303007F7E03037E7E03037F7E000FBE
:100DA0003E703C063C703E0F00327B49493F7E005E
:100DB0007F7E0303001E3F69696F2600000000006C
:100DC0000000000000030F1F3F3C7870600000002F
:100DD0007F4141417F007F4141417F00307B7F78EF
:100DE00030202030787F3B0003000F7F0F0F0F7FF4
:100DF0000F000300000000000000000000000000E1
:100E000000000000000000000000000001010107D8
:100E10000F0F7F0F7F0F0F7E0F0F7F0F7F0F0F07BB
:100E200001010100000000000000000000010100BD
:100E300000000000000000000000000000000000B2
:100E400000000000000000000000000000000000A2
:100E50000000000000000000000000000000000092
:100E60000000000000000000000000000000000082
:100E70000000000000000000000000000000000072
:100E80000000000000000000000000000000000062
:100E90000000000000000000000000000000000052
:100EA0000000000000000000000000000000000042
:100EB0000000000000000000000000000000000032
:100EC00000000000000011241FBECFEFDAE0DEBFFB
:100ED000CDBF04B603FE18C080915B0790915C07FC
:100EE000A0915D07B0915E078730904BA740B04B53
:100EF00059F410925B0710925C0710925D071092F4
:100F00005E07E0E0F8E3099511E0A0E0B1E0E4E07D
:100F1000F8E502C005900D92A63BB107D9F727E08E
:100F2000A6EBB1E001C01D92AB35B207E1F70E941C
:100F300044230C94E32B0C940000E8EDF0E0808156
:100F40008E7F80831092E2001092DA001092E1000E
:100F5000A0EEB0E08C9181608C9380818F7780834C
:100F600019BCA7EDB0E08C918E7F8C9380818F7E31
:100F700080831092360308952091E4003091E500BB
:100F800095E6A9012091EC00822F817020FF06C018
:100F90008091E80080FF06C080E008952091E8007D
:100FA00022FD1AC080914303882389F0853089F09F
:100FB0008091EB0085FD0FC02091E4003091E500A9
:100FC00042175307F9F29150E1F684E0089582E068
:100FD000089583E0089581E00895EF92FF920F93C2
:100FE0001F93CF937C018B010E94BC07C82F8111F6
:100FF00017C08091E80085FD0BC08091E8008E77D6
:101000008093E8000E94BC07882399F3C82F08C08A
:10101000F70181917F018093F1000150110949F797
:101020008C2FCF911F910F91FF90EF900895809199
:10103000450387FF13C08091E80082FF06C08091BE
:10104000E8008B778093E80004C08091430381110E
:10105000F2CF0895809143038823D9F38091E8006B
:1010600080FFF8CF8091E8008E77ECCF982F909397
:10107000E900242F762F50E0891731F07091EC00B1
:101080002091ED005091F00021FD07C09F5F973047
:1010900071F78093E90081E008953091EB003E7F85
:1010A0003093EB003091ED003D7F3093ED003091B7
:1010B000EB0031603093EB007093EC002093ED0077
:1010C0005093F0002091EE0027FDE0CF80E00895DE
:1010D000B0E0A0E0EEE6F8E00C94292BC8EDD0E0FB
:1010E00088818F7E8883E7EDF0E080818160808356
:1010F00084E082BF81E08093360388818E7F88837D
:1011000002EE10E0F80110821092DA0081EEC82E93
:10111000D12CF601108288818F778883888180683E
:10112000888388818F7D888319BC10924303109235
:101130004403109242031092410390EEE92EF12CE9
:10114000F70180818B7F808388818160888342E082
:1011500060E080E00E943608F60180818E7F808307
:10116000F801808181608083808188608083F701BD
:1011700080818E7F8083888180618883CDB7DEB750
:10118000E8E00C94452BFC0180914B0390914C03BB
:1011900086179707A0F06115710529F49091E80072
:1011A0009E779093E80090E06115710551F49111DC
:1011B00008C08091E80082FF34C080E00895BC013F
:1011C000F2CF809143038823C1F18530C1F1809132
:1011D000E80083FD30C08091E80082FDEACF809175
:1011E000E80080FFE1CF8091F3002091F200382FDA
:1011F0006115710519F02830310558F091E028305B
:10120000310509F090E02091E8002E772093E80066
:10121000CBCF81918093F100615071092F5F3F4FD7
:10122000E7CF80914303882341F0853041F08091DE
:10123000E80083FFBECF81E0089582E0089583E057
:101240000895089508958091380308952FB7F8946C
:1012500060912F037091300380913103909132039C
:101260002FBF08959C01FC0132969FEF80E04191D1
:10127000461751F09F3F19F4411101C0982F8F5F1D
:101280008630A9F79F3F09F40895290F311D97FD76
:101290003A95F9016283089520912C0330912D0332
:1012A0002817390771F090932D0380932C03E09158
:1012B0002A03F0912B03309721F00084F185E02D73
:1012C000099508952091280330912903281739079B
:1012D00071F09093290380932803E0912A03F09101
:1012E0002B03309721F00680F781E02D09950895B2
:1012F000FC01680F791F8FEF91E32191822728E08D
:1013000030E087FF09C0880F892721503109C9F7CC
:10131000E617F70791F70895880FF7CFFA018111C3
:1013200001C0FB010995089580911D03982F9E7FB0
:1013300039F480911D038170826080931D030895AC
:101340008430B8F7089580E00895F894E82FE29586
:10135000EF70F0E031A1282F2F7081E090E001C004
:10136000880F2A95EAF7982F9095932391A392A13D
:10137000892B82A3789408959091730292FF06C0FE
:10138000282F28712830F9F4877F846093FF06C0E6
:10139000282F28712831F1F4877E8461209174020E
:1013A00020FF06C0382F38713830D9F4877F81602C
:1013B00021FF06C0282F28712831D1F4877E816152
:1013C00094FD877E0895282F24712430F9F68B7FB1
:1013D0008860DCCF282F2471243101F78B7E88614F
:1013E000DDCF382F3171313019F78E7F8860E0CF33
:1013F000282F2171213121F78E7E8861E1CF78304D
:10140000B0F46830A0F498E0899FF0011124E70F50
:10141000F11D83E0EE0FFF1F8A95E1F7E60FF11D46
:10142000EE0FFF1FE455FF4F85919491089580E0E2
:1014300090E00895CF93DF93EC0182389105A9F1F4
:10144000D8F58133910509F496C048F589329105A4
:1014500009F48AC08A9709F495C0C11522E5D2071C
:1014600008F0B6C0C11531E5D30708F026C1C83E63
:10147000D10508F09CC0C03ED10560F5C83AD10541
:1014800008F087C0C53AD10508F0EFC0C130D105DA
:1014900009F12097F9F0C430D105E0F440C085335C
:1014A000910509F45AC0C997C1F6809173028370FF
:1014B00089F0C0EED0E00EC0833E910599F170F442
:1014C000803E910501F1823E910539F680917302CB
:1014D00082FD21C0CE01DF91CF910895863E910516
:1014E00061F1873E910571F1843E910509F0B5CF18
:1014F0008091740281FFEECF80917302C7EED0E03D
:1015000084FD0DC0E7CF8091730280FD07C19091EB
:10151000740290FFDFCFC3EED0E084FFDBCFD0E0DA
:10152000C0E0D8CF8091730282FDFBC0909174021D
:1015300090FDBFCF84FFCECFF2CF8091730283FDA9
:10154000DDCFC8CF8091730283FDEEC0909174020D
:1015500091FFF0CFC4EED0E0BDCF8091730285FF44
:10156000B9CFC9E2D0E0B6CF8091730285FFB2CF88
:10157000C5E3D0E0AFCF8091730286FFABCFCAE264
:10158000D0E0A8CF8091730286FFA4CFC1E3D0E062
:10159000A1CFCF3BD10518F6C85AD0E0CC0FDD1F44
:1015A000C95ADE4F0990D881C02DD46493CFC1159C
:1015B00040E5D40708F064C0C11580E4D80708F0FE
:1015C0005CC0CE019A9581159F4108F483CFA7CFC7
:1015D000C11536E5D30718F5C11545E5D40708F060
:1015E00084C0C11584E5D80708F07AC09C2F969571
:1015F00096959E0123703327C115D34508F462C028
:10160000C1E0D0E002C0CC0FDD1F2A95E2F730E246
:10161000939FC0011124C82BD92BDA685BCFC11569
:101620008AE5D80778F4C11599E5D90708F068C0AC
:10163000C11528E5D20708F472CFDC2FCC27C06F84
:10164000D06A48CFCE0190568115904208F067CFFE
:101650008D2F8F710E94BC0990E0982F88278827D2
:101660009F719C012C2BE90149C0C55AD0E0CC5A8E
:10167000DE4FC881D0E0D0642DCFDF70D06A2ACF92
:10168000CE01E4E096958795EA95E1F783702C2FDB
:1016900026952695237040E2249F90011124382B33
:1016A0008C2F8370C1E0D0E002C0CC0FDD1F8A9583
:1016B000E2F7C22BD32BDC680DCFDC2FCC27C16F18
:1016C000D06A08CFC1E0D0E002C0CC0FDD1F2A9560
:1016D000E2F720E2929FC0011124C82BD92BEBCF57
:1016E000DC2FCC27C46FD06AF5CE8C2F0E94BC09AA
:1016F000C82FD0E0DC2FCC27CC27DF71D062EACE18
:101700008C2F8F700E94BC0934E0D695C7953A950E
:10171000E1F7CF709C2FEC01D069DCCEC9E3D0E0BB
:10172000D9CEC2EED0E0D6CEC6EED0E0D3CE0E9467
:101730002609089580912C02811110922C0208959F
:10174000809590912B02982390932B02089580917D
:1017500020029091EF01981301C008958F5F877068
:10176000FACFB0E0A0E0E7EBFBE00C94282B8C0173
:10177000C0909502D0909602E0909702F090980267
:101780008091910290919202A0919302B091940263
:10179000C82AD92AEA2AFB2ACFE1D0E0BC2ED701F9
:1017A000C6010C2E04C0B695A795979587950A9407
:1017B000D2F780FD09C0219788F7B12C8B2DCDB7CA
:1017C000DEB7E9E00C94442BB8018C2F0E94FF098E
:1017D0000E941A0A019779F3F1CFCF93DF93EC01BE
:1017E0000E94B10BBE010E94FF090E941A0ADF91FC
:1017F000CF910895983088F5883078F548E0949F27
:1018000090011124820F932F911D682F677023E0A0
:10181000969587952A95E1F725E0289FF001299F65
:10182000F00D1124EF53FE4F50E040E080E0219195
:1018300030E0062E02C0369527950A94E2F7217013
:101840003327042E01C0220F0A94EAF7822B4F5F40
:101850005F4F4530510559F7089580E0089598305D
:10186000A8F5883098F548E0949F90011124820FE4
:10187000932F911D282F277041E001C0440F2A9516
:10188000EAF723E0969587952A95E1F725E0289FCA
:10189000F001299FF00D1124EF53FE4F30E020E0BE
:1018A00070E05191DF011197CB01022E02C0969595
:1018B00087950A94E2F7817081958527842385278F
:1018C0008C932F5F3F4F2530310559F70895FC0168
:1018D000808191810E94ED0B92959F70963091F0DE
:1018E00058F4925F9F70923058F4803F19F030F4B2
:1018F000883E30F481E008959A5FF4CF843FD1F3BD
:1019000080E00895883EB0F3813FD1F7F3CFCF93C5
:10191000DF93C0915907D0915A078A30C1F42091C2
:101920005003CE0183559340622F70E00E940B2B31
:10193000281B822F66E00E94562BC82FC15018F436
:10194000DF91CF91089580E20E94870CF7CF8D3010
:10195000E9F4C355D34020915003622F70E0CE01CB
:101960000E940B2B281B822F9E01280F311D211551
:10197000344018F080E0D0E0C0E0C80FD11DCD5A4F
:10198000DC4FD0935A07C0935907DACF96E0FE0197
:10199000A3E5B7E001900D929A95E1F7803E08F437
:1019A00058C086E0FE0111928A95E9F7C091590767
:1019B000D0915A0746E050E0BE0183E597E00E94CF
:1019C000852B9E0123553340892B41F1C90146E007
:1019D000969587954A95E1F741E050E0BA0102C03B
:1019E000660F771F8A95E2F7CB01609151037091E2
:1019F0005203862B972BB9016B5F7F4FE6E07695FC
:101A00006795EA95E1F702C0440F551F6A95E2F722
:101A1000842B952B90935203809351032A5F3F4F61
:101A200040915003642F70E0C9010E940B2B481BAA
:101A3000463010F4240F311D211574E0370710F0E3
:101A400030E020E02D5A3C4F30935A07209359073D
:101A500077CFF6E08F9FB00111246A57764F46E0AA
:101A600050E0CE010E947C2BA1CFCF93DF93EC01FD
:101A7000FE018491811103C0DF91CF9108950E94EE
:101A8000870C2196F5CF80912B0290912A02892B09
:101A90008093B80190912C02992391F0892B809327
:101AA000B80120E08AEB91E0FC013191CF013111C6
:101AB0002F5FF1E0803C9F07B9F721110E949A0B3C
:101AC00048E050E062E272E088EB91E00E94852BF2
:101AD000892BA9F088E0E8EBF1E0A2E2B2E0019006
:101AE0000D928A95E1F7E0912A03F0912B0330974C
:101AF00031F00280F381E02D88EB91E009950895A3
:101B000090E080E00E94620990E080E00E944C0931
:101B100010922A020E94430D0895609395027093DB
:101B2000960280939702909398020E94800D0895E8
:101B30000F931F9341E050E060E070E004C0440F59
:101B4000551F661F771F8A95D2F7CB01BA016095A2
:101B50007095809590950091950210919602209134
:101B600097023091980260237123822393230E946D
:101B70008D0D1F910F9108959091210280958923D9
:101B800080932102282F277091F4282F082E000C13
:101B9000330B9217130659F09091740292FF07C00D
:101BA0008595859585950E94980D1092210208953E
:101BB0000F931F9341E050E060E070E004C0440FD9
:101BC000551F661F771F8A95D2F7809195029091D5
:101BD0009602A0919702B09198028A019B01082B6E
:101BE000192B2A2B3B2BC901B8010E948D0D1F9187
:101BF0000F910895609391027093920280939302E3
:101C0000909394020E94800D089510922B02EAEBAB
:101C1000F1E086E0DF011D928A95E9F70E94800DD0
:101C20000895AAE2B0E0E7E1FEE00C942E2B85E4F3
:101C300093E02091F100FC012193CF01F3E08D347A
:101C40009F07B9F780914603833009F470C0B8F458
:101C5000813009F447C0823009F4B1C08091E800B6
:101C600083FF7EC280914503909146039A3008F02D
:101C700077C2E92FF0E0EB51F44D0C94762B8A30CB
:101C800009F48CC08B3009F46FC0893039F780912A
:101C90004503813219F78091490390914A030297D5
:101CA000E8F68091E800877F8093E8008091E80063
:101CB00082FF38C09091F3008091F200029731F4D6
:101CC0008091F100813011F0863021F48091F10093
:101CD000809338038091E8008B778093E8000E941E
:101CE0001708BCCF80914503813A09F0B7CF8091A6
:101CF000E800877F8093E8008091490390914A0330
:101D0000892B61F468E089E393E070E00E94C308E6
:101D10008091E8008B778093E800A0CF60E090E0AE
:101D200080E0F3CF809143038111C0CF97CF8091A2
:101D30004503813A09F092CF8091490390914A037B
:101D4000892B09F08BCF8091E800877F8093E80092
:101D50008091E80080FFFCCF809153018093F100D7
:101D60008091E8008E77B9CF80914503813209F0E8
:101D700075CF8091490390914A03892B09F06ECF6A
:101D80008091E800877F8093E8000E941708809187
:101D90004703809353010E94050E60CF8091450355
:101DA000813209F05BCF8091E800877F8093E80063
:101DB0000E94170880914803809337034FCF80918A
:101DC0004503813A09F04ACF8091E800877F8093EC
:101DD000E8008091E80080FFFCCF80913703BECF00
:101DE000803899F0823809F0BBC1809149038F7027
:101DF000873008F0B5C18093E9008091EB0085FB46
:101E0000882780F91092E90006C0809141039091E3
:101E10004203911182609091E800977F9093E800CF
:101E20008093F1001092F1008091E8008E7794C1C8
:101E3000882309F482C1823009F092C1809147035E
:101E4000811185C1809149038F702FEF280F2630B3
:101E500008F086C18093E9002091EB0020FF77C154
:101E6000933031F48091EB0080628093EB006FC17E
:101E70009091EB0090619093EB0021E030E001C085
:101E8000220F8A95EAF72093EA001092EA008091E7
:101E9000EB008860EACF811163C1109147031F777F
:101EA0008091E3008078812B8093E3008091E800AB
:101EB000877F8093E8000E9417088091E80080FFE8
:101EC000FCCF8091E30080688093E30082E01111F1
:101ED00083E08093430344C18058823008F040C1BE
:101EE00080914703909148038C3D23E09207A1F530
:101EF00083E08A838AE289834FB7F894DE011396E0
:101F000020E03EE051E2E32FF0E050935700E491EF
:101F100020FF03C0E295EF703F5FEF708E2F90E0DF
:101F2000EA30C0F0C7968D939D932F5F243159F707
:101F30004FBF8091E800877F8093E8006AE270E0FD
:101F4000CE0101960E94C3088091E8008B778093B0
:101F5000E80006C1C096E7CF4091490350914A037B
:101F6000292F33272330310509F444C078F5213077
:101F7000310509F46FC08BE390E0EBE0F9E022302B
:101F8000310509F0EDC02091E800277F2093E8009B
:101F900020914B0330914C038217930708F49C0166
:101FA00040E02115310509F064C0411162C0809103
:101FB000E80082FDC9CF80914303882329F2853050
:101FC00019F28091E80083FFF2CFBECF21323105B4
:101FD000A9F12232310509F0C3C04115510509F4B8
:101FE00043C04130510509F0BBC082E390E0E9E90C
:101FF000F8E0C9CF992781309105C1F0009759F0D9
:10200000029709F0ADC0E8E5F9E0E4918E2F90E089
:10201000E8E5F9E007C0E2E8F9E0E4918E2F90E00E
:10202000E2E8F9E0009709F49BC0ADCFE0E7F9E002
:10203000E4918E2F90E0E0E7F9E0F4CF41155105EF
:1020400071F04130510509F08BC089E090E0E6E382
:10205000F9E099CF82E190E0E6E4F9E094CF89E0FD
:1020600090E0EDE1F9E08FCF80E490E0EBECF8E078
:102070008ACF80914303882309F466CF853009F421
:1020800063CF8091E80083FD5FCF8091E80082FDFF
:102090008ECF8091E80080FF84CF9091F3008091F3
:1020A000F2002115310519F08830910550F041E01A
:1020B000089709F040E08091E8008E778093E8006F
:1020C00070CF44914093F10031962150310901962F
:1020D000E8CF803809F044C08091E800877F809382
:1020E000E800809144038093F1009ECE811138C0B6
:1020F000109147031230A0F58091E800877F80930C
:10210000E800109344030E941708112311F084E0A3
:1021100005C08091E30087FDFACF81E080934303FF
:1021200042E061EC81E00E94360842E261EC82E02C
:102130000E9436088091430313C080914703813089
:1021400079F481E0933009F080E0809342031092AB
:10215000E9008091E800877F8093E8000E941708DB
:102160008091E80083FF0AC08091E800877F809318
:10217000E8008091EB0080628093EB00AA96E3E098
:102180000C944A2B882321F00E94A00B0E94430D3F
:102190000895882339F090912B02982B90932B026D
:1021A0000E94430D0895882391F19CEF980F913A76
:1021B00080F4EAEBF1E020EC31E09191891303C067
:1021C000DF0111971C922E173F07B9F70E94430DAC
:1021D000089590E2980F983050F4877091E001C014
:1021E000990F8A95EAF7892F0E94A00BEFCF9BE504
:1021F000980F933028F490E080E00E9462090895DF
:10220000885A873120F490E080E00E944C090895BC
:10221000CF93C82F8823B1F08CEF8C0F813A00F553
:10222000EAEBF1E080EC91E0DF012D91C21761F063
:102230008A179B07D1F76C2F88EB91E00E94320937
:102240000E94430DCF9108952191C21303C0DF0175
:1022500011971C928E179F07B9F70E94430DEBCF81
:1022600080E28C0F883068F4C77021E030E001C054
:10227000220FCA95EAF780912B02822B80932B02C2
:10228000DFCFEBE5EC0FE33040F4F0E0EC5AFE4F2B
:10229000808190E00E946209D5CFC85AC73190F67C
:1022A000EC2FF0E0EE0FFF1FE95AFE4F8081918185
:1022B0000E944C09C7CFB0E0A0E0E1E6F1E10C9448
:1022C000292B6C017B0164E670E088E70E94662898
:1022D000EC0197FD12C010E000E0F601E00FF11FE5
:1022E000849164E670E00E94D428EC01892B29F4E3
:1022F0000F5F1F4F0E151F0581F70E944B29CE015E
:10230000CDB7DEB7E8E00C94452B80912603909181
:102310002703911103C091E089270895882369F06C
:1023200062E070E087E998E00E945B11892B19F068
:102330008091260308951092260380912603EBCF07
:10234000CF93C0912603809127038823D1F00E9468
:102350002609605A75418F4F9F4F609322037093F7
:1023600023038093240390932503C11108C062E0E6
:1023700070E085E998E00E945B11892B29F0C091FB
:1023800026038C2FCF91089581E080932603F7CF09
:102390008093330370933503609334038091430338
:1023A000843001F582E08093E9008FEF9091E8009E
:1023B000815095FD06C095ED9A95F1F700008111C9
:1023C000F5CF8091E80085FF0DC050E040E063E06C
:1023D00070E083E393E00E94ED078091E8008E7740
:1023E0008093E8000895BC0184E00E94C81108951C
:1023F000BC0183E00E94C8110895CF93DF93EC01E4
:1024000081E08093E9008FEF9091E800815095FD85
:1024100006C095ED9A95F1F700008111F5CF8091F6
:10242000E80085FF14C050E040E068E070E0CE01B5
:102430000E94ED078091E8008E778093E80088E0A5
:10244000FE01A9E3B3E001900D928A95E1F7DF91D7
:10245000CF91089560914F0180911D0380FF20C0AE
:1024600080914E0143E0849FC00111248F519D4F04
:10247000539A2BB1277F3BB138605FB7F894FC01CA
:10248000649FE00DF11D1124BF0168177907D1F495
:102490005FBF8FE594E00197F1F700C00000089559
:1024A000809150019091510123E0829FF00111240D
:1024B000EF51FD4F8917A0F61182108212828F5FB3
:1024C0003396F8CFFC014191CF01E8E03BB9000021
:1024D00000C047FF2BB9440F000000C000C000C07F
:1024E0002BB900C0EA9591F7D0CFB0E0A0E0EBE7C0
:1024F000F2E10C94272B7C015B016A01809164025C
:1025000001E010E08A3010F40AE010E0C1E0D0E011
:10251000B501C701F6010995811104C021960C1778
:102520001D072CF4CDB7DEB7EAE00C94432BCC9F0B
:102530009001CD9F300D300D112490E080E045E3F7
:102540004A95F1F70000019682179307C1F7E0CF93
:1025500080913702811110C08091D80080618093F2
:10256000D8008AE18A95F1F700C08091D90080FFF8
:102570000AC081E08093370281E090913702913068
:1025800009F080E0089582E0809337020E949D0761
:1025900010924303F1CF0E94A812882359F0E091D2
:1025A0002A03F0912B03309729F00190F081E02D60
:1025B0000995089580E008951F93CF93DF93182F16
:1025C000EB010E940811209739F4812F0E94D3104B
:1025D000DF91CF911F9108958FE99FE00197F1F767
:1025E00000C000002197EFCF81110CC070E066237E
:1025F00031F060E089EA0E94DC1281E0089560E039
:102600008AEAF9CF8130C9F770E0662319F060E0FB
:102610008EE4F1CF60E08BE4EECF0E94050E2FEF49
:1026200084E39CE0215080409040E1F700C000002E
:1026300088E19CE00FB6F894A895809360000FBEE7
:1026400090936000FFCFCF92DF92EF92FF926B01E9
:102650007C010E949409B701A60188E090E00E94E5
:10266000C12BFF90EF90DF90CF900895B0E0A0E0F5
:10267000ECE3F3E10C94252BD82FC62F142F822ED8
:1026800000911D0300FF49C0E02FE695F0E0ED54F6
:10269000FE4F80818093DE02802F8E7F8230D1F4C6
:1026A000E42FF0E0EB56F84F61113CC02491F22F7B
:1026B000E22F00FF0FC0809150019091510133E053
:1026C000839FD0011124AF51BD4F891708F49FC0DB
:1026D0000E942A1280911E038D1308C080911F034F
:1026E0008C1304C080912003811729F08091E002AF
:1026F00082608093E002D0931E03C0931F03109367
:102700002003882051F060911D0370911E03809179
:102710001F03909120030E942313CDB7DEB7ECE096
:102720000C94412BE62EF12CE4919E2ECE2ED12C32
:1027300026E0D29FC00111242FEF30E0B9010E94A2
:102740000B2B8D2F90E0880F991FF5E5F69FA001C8
:10275000F79F500D1124841B950BB82EBB0CB80E9F
:10276000A9014E195F094C9DC0014D9D900D5C9DC6
:10277000900D1124F92FCB9DA0011124452F552731
:10278000D901A41BB50BAC9DA001AD9D500DBC9D06
:10279000500D1124D901AB19B1095D01AE9CD001D6
:1027A000AF9CB00DBE9CB00D1124AB2FBB272A1BD4
:1027B0003B0B2C9DD0012D9DB00D3C9DB00D1124E7
:1027C0002B2F62307105A1F050F46115710509F4E9
:1027D00070CF6130710581F0292FF52F6ACF6430F9
:1027E000710569F080F06630710509F462CFF4CFAD
:1027F0002E2FE92FFB2F5DCF2E2FE52F5ACF292F1C
:10280000FE2FEB2F56CFE92FF92D252F52CF119602
:10281000EC9311972C931296FC9312978F5F13965B
:1028200054CFEDE1F3E0438121E1421B08F440E0A5
:1028300021E0628181810E9436130895EDE1F3E089
:10284000438121E1420F08F44FEF21E06281818151
:102850000E9436130895EDE1F3E0628121E1621BED
:1028600008F460E021E0438181810E9436130895DD
:10287000EDE1F3E0628121E1620F08F46FEF21E006
:10288000438181810E9436130895EDE1F3E0818157
:1028900021E04381628188500E9436130895EDE162
:1028A000F3E0818121E043816281885F0E943613D9
:1028B000089580912103882319F08150809321038A
:1028C00060911D0370911E0380911F03909120035E
:1028D0000E942313089580912103833018F48F5FA1
:1028E0008093210360911D0370911E0380911F034B
:1028F000909120030E942313089580911D0380FF6F
:102900001EC08170826080931D038091E00281600F
:102910008093E002662351F060911D0370911E03C5
:1029200080911F03909120030E94231320E0409187
:10293000200360911F0380911E030E9436130895A7
:1029400080911D038695815009F481E061E00E9429
:102950007D14089561E081E00E947D140895EDE109
:10296000F3E083E0808311828FEF8283838314827C
:10297000AEEDB2E012968C911297836012968C9312
:1029800060817181828193810E9423130895CF9386
:1029900084E090E00E949B2BC82F82E290E00E948E
:1029A0009B2B982F8C2FCF910895A4E0B0E0EBEDF6
:1029B000F4E10C942D2B40915802509159026091F2
:1029C0005A0270915B022FB7F89480912F03909177
:1029D0003003A0913103B09132032FBF841B950BBC
:1029E000A60BB70B11E084369105A105B10590F156
:1029F0000E94A812882399F10E9426096E5F7F4FDA
:102A00008F4F9F4F69837A838B839C8380912101B1
:102A1000909122018C5B9D4F4091200150E0453008
:102A2000510510F044E050E0BE016F5F7F4F0E94FF
:102A3000922B84E090E00E94952A182F882351F071
:102A40000E942609609358027093590280935A029B
:102A500090935B02812F2496E4E00C94492B0E9412
:102A6000260900916502109166022091670230915B
:102A70006802600F711F821F931FC0CF4F925F9239
:102A80006F927F928F929F92AF92BF92EF92FF923E
:102A90000F931F93CF93DF937B01FB014080518005
:102AA000628073809FB7F89480902F0390903003DA
:102AB000A0903103B09032039FBF84189508A608F8
:102AC000B708F4E68F169104A104B10418F4C1E02C
:102AD000442329F1C82F880FDD0BFE0183E0EE0FA0
:102AE000FF1F8A95E1F7E050FF4F818192818C5B57
:102AF0009D4F408150E00417150708F4A801B90163
:102B00000E94922BCE010E94952AC82F882339F06B
:102B10000E942609F70160837183828393838C2F3F
:102B2000DF91CF911F910F91FF90EF90BF90AF90E9
:102B30009F908F907F906F905F904F900895A1E04D
:102B4000B0E0E5EAF5E10C942D2B80912603898312
:102B50002091570290E041E02817190609F440E05F
:102B600001E010E09E012F5F3F4F60E672E086E0DB
:102B70000E943E152196E4E00C94492BA8E0B0E0B9
:102B8000E4ECF5E10C942D2B85E0EDE1F3E0DE01C2
:102B9000119601900D928A95E1F78091DE02909155
:102BA000DF02A091E0028E839F83A88741E08885A1
:102BB000811101C040E008E010E09E012F5F3F4F0F
:102BC0006CE572E085E00E943E1581111092E002F2
:102BD0002896E4E00C94492B4F925F927F928F925B
:102BE0009F92AF92BF92CF92DF92EF92FF920F939C
:102BF0001F93CF93DF930F92CDB7DEB7C62E4A0156
:102C00005901482E880F5508C2010E94952A782E36
:102C1000882309F480C0C20133E0880F991F3A95D8
:102C2000E1F7FC01E050FF4F438150E041155105B1
:102C300011F041E050E080509F4FFC0164817581AC
:102C40006C5B7D4FCE0101960E94922BF401408176
:102C50005181628173812FB7F89480912F039091F5
:102C60003003A0913103B09132032FBF841B950B29
:102C7000A60BB70B84369105A105B10540F4B70149
:102C8000C8010E9478099981891709F444C00C2C65
:102C9000000CDD08C6010E94952A782E811113C010
:102CA000712C872D0F90DF91CF911F910F91FF9085
:102CB000EF90DF90CF90BF90AF909F908F907F90DC
:102CC0005F904F900895C60123E0880F991F2A95C1
:102CD000E1F7FC01E050FF4F438150E0E416F506B8
:102CE00008F4A70180509F4FFC01648175816C5BE3
:102CF0007D4FC5010E94922BB701C8010E9478093F
:102D000099818913CDCF0E942609F40160837183D4
:102D100082839383C6CFA701B801C5010E94922B7D
:102D2000C0CFA1E0B0E0E7E9F6E10C94282BEE2457
:102D3000E394F12C0AE412E09E012F5F3F4F40E440
:102D400052E063E082E00E94EC15C82E882339F13E
:102D500000E080E01DC0D0907702D00E2D2D30E035
:102D6000A90147575D4F7A01E1E0F0E0EC0FFD1F4C
:102D7000E00FF11D1081FA019081191BB12E1B1477
:102D80009CF0912F17FD90E0191B111118C00F5FD7
:102D9000909176020917F8F281110E94970B8C2D01
:102DA0002196E9E00C94442BBA94F70180818F5F5F
:102DB000808360E08D2D0E94F4128C2DE0CF1F5F88
:102DC000F70180818150808361E08D2D0E94F41293
:102DD0008C2DDBCFA4E0B0E0E0EFF6E10C94292BE2
:102DE0006B0184E0E82EF12C05E412E09E012F5FD8
:102DF0003F4F4CE352E061E080E00E94EC158823F5
:102E000061F049815A816B817C81409338025093F3
:102E1000390260933A0270933B024091380250911C
:102E2000390260913A0270913B02F601408351836E
:102E3000628373832496E8E00C94452B68EE7EEF62
:102E400090E080E00E94CD2B60E082E090E00E9464
:102E5000AF2B60E083E090E00E94AF2B10929102D4
:102E600010929202109293021092940260E084E019
:102E700090E00E94AF2B64E082E290E00E94AF2BD2
:102E800060E085E090E00E94AF2B60E086E090E09B
:102E90000E94AF2B6FEF87E090E00E94AF2B40E0E5
:102EA00050E0BA0188E090E00E94C12B60E08DE024
:102EB00090E00E94AF2B40E050E0BA0188E190E042
:102EC0000E94C12B60E087E190E00E94AF2B40E0C0
:102ED00050E0BA018CE190E00E94C12B70E060E00C
:102EE00080E290E00E94CD2B40E050E0BA0188E102
:102EF00090E00E94C12B40E050E0BA018FE090E0EA
:102F00000E94C12B40E050E0BA0183E190E00E94B2
:102F1000C12B0895CF93C0917402C2FB992790F9F9
:102F2000981791F080FBC2F9C0937402609173020C
:102F300084E090E00E94AF2B6C2F82E290E00E9430
:102F4000AF2B82E00E94BC0DCF9108951F920F928B
:102F50000FB60F9211242F933F934F935F936F936C
:102F60007F938F939F93AF93BF93CF93DF93EF9311
:102F7000FF93D091E900DF708091EC00C82FC17001
:102F800080FDC0E81092E9008091F000877F809377
:102F9000F00078940E94110E1092E9008091F000E8
:102FA00088608093F000CD2BCF70C093E900FF9133
:102FB000EF91DF91CF91BF91AF919F918F917F91D1
:102FC0006F915F914F913F912F910F900FBE0F9096
:102FD0001F9018951F920F920FB60F9211242F93E6
:102FE0003F934F935F936F937F938F939F93AF9391
:102FF000BF93EF93FF938091E10082FF09C080911E
:10300000E20082FF05C08091E1008B7F8093E100A8
:103010008091DA0080FF24C08091D80080FF20C01A
:103020008091DA008E7F8093DA008091D90080FF52
:103030009DC080E189BD82E189BD09B400FEFDCF5C
:1030400081E08093430380913603811109C00E947F
:103050009D070E9468088091E20084608093E200EE
:103060008091E10080FF17C08091E20080FF13C0D3
:103070008091E2008E7F8093E2008091E200806187
:103080008093E2008091D80080628093D80019BCC0
:1030900085E0809343038091E10084FF2BC0809101
:1030A000E20084FF27C080E189BD82E189BD89B546
:1030B000982F917080FFFBCF8091D8008F7D8093F7
:1030C000D8008091E1008F7E8093E1008091E20042
:1030D0008F7E8093E2008091E20081608093E20025
:1030E00080914403882309F447C084E0809343031C
:1030F000809143038091E10083FF27C08091E2002B
:1031000083FF23C08091E100877F8093E10082E00C
:1031100080934303109244038091E1008E7F80935B
:10312000E1008091E2008E7F8093E2008091E200D6
:1031300080618093E20042E060E080E00E94360817
:103140008091F00088608093F000FF91EF91BF9133
:10315000AF919F918F917F916F915F914F913F912F
:103160002F910F900FBE0F901F90189519BC1092C1
:1031700043031092360374CF8091E30087FD93E000
:1031800090934303B5CF78941F921FB61F921124DA
:103190008F939F93AF93BF9380912F0390913003B0
:1031A000A0913103B09132030196A11DB11D80930E
:1031B0002F0390933003A0933103B0933203BF9158
:1031C000AF919F918F911F901FBE1F9018959C01EA
:1031D0004FB7F89480912F0390913003A091310361
:1031E000B09132034FBF821B930B08952FB7F89411
:1031F00080912F0390913003A0913103B09132035D
:103200002FBF08950F931F93CF93DF93C62FD42F13
:10321000022FFC0182818823A9F060934F030E9452
:10322000F61890934E0380934D03C77081E001C060
:10323000880FCA95EAF70E94C910DF91CF911F91BC
:103240000F91089580914F03681334C080914D030E
:1032500090914E030E94E718883C910558F510E2C2
:103260001D0FCD17B9F080E28C0F883040F4C77085
:1032700081E001C0880FCA95EAF70E94C210183099
:1032800048F481E09D2F977001C0880F9A95EAF766
:103290000E94C91070E060E0802F0E94DC1218309C
:1032A00060F6D77081E001C0880FDA95EAF70E94D6
:1032B000C210C3CFC77081E001C0880FCA95EAF77A
:1032C000F6CFA5E0B0E0E7E6F9E10C94212B7C0114
:1032D000FC0183819481892B31F080819181892344
:1032E0008F3F09F0DDC42596E0E10C943D2B0E9450
:1032F000B10B182F682F89819A810E942F0C698148
:103300007A81812F0E94FF098C01843FFCE59F0791
:1033100009F483C018F5893D9C4509F47AC00A3D3B
:103320008CE5180709F489C0083D9CE5190709F5E3
:1033300026E241EE61EEC7010E940219809121024E
:10334000877089F2F7018281882369F28091740283
:1033500082FFC9CF82E00E94BC0DC5CF863FECE55D
:103360009E0709F462C008F45CC0873F9C4509F4DD
:1033700060C0F7018281882309F4A3C410924F032F
:103380000430FDE51F0708F05BC00B3F2CE512077A
:1033900030F4C80182509C45449708F05BC00E94FD
:1033A000C714909374028093730201319CE519074E
:1033B00009F42BC108F0A7C00930FCE51F0709F488
:1033C0000EC108F072C005303CE5130709F4FFC0D8
:1033D00008F057C003309CE5190709F4EEC008F067
:1033E000F2C08091730281600230FCE51F0709F48E
:1033F000E7C0609173021091740284E090E00E9433
:10340000AF2B612F82E290E00E94AF2B0E94050E4D
:1034100095CF27E245EE65EE8ECF26E241EE60EED7
:103420008ACF27E245EE64EE86CF26E241EE62EED9
:1034300082CF27E245EE66EE7ECF28E241E0EBCF79
:1034400002363DE5130709F4AACF063A8DE51807C1
:1034500009F4A5CF06312CE5120709F0B4C4809118
:103460002B028A7A91E009F490E09093C00169E21E
:10347000811165E388EB91E00E9432090E94430DBF
:103480005DCF80917302806207302CE5120709F44A
:1034900097C080917302806108303CE5130708F4FF
:1034A0008FC08091730280648BC00D308CE518074B
:1034B00009F49FC0A0F4809173028E7F0B30ECE57D
:1034C0001E0709F47DC0809173028C600C30FCE50E
:1034D0001F0708F475C0809173028D7F71C08091C1
:1034E00073028F7E0F302CE5120709F469C08091BA
:1034F0007302877F00313CE5130708F461C08091B7
:1035000073028F7D5DC00E3F8CE5180709F479C00A
:1035100058F50531ECE51E0709F481C098F4809157
:103520007302837F03312CE5120709F449C008F4C4
:1035300070C00E94050E90917302892F97FB87F946
:1035400080583EC00C3F8CE5180709F444C008F0D1
:1035500054C08091740281600B3FECE51E0709F0B6
:1035600048CF8093740245CF0230FDE51F0709F470
:1035700062C090F4809174028C7F01153DE51307C1
:1035800081F398F180917402982F909591708E7FBD
:10359000892B90FB81F9E5CF02369DE5190709F4E7
:1035A00050C0063AEDE51E0709F452C00330FDE5B0
:1035B0001F0709F01ECF60E03FC080917302826058
:1035C0008093730216CF809173028460F9CF80914B
:1035D00073028860F5CF809174028260C2CF0E942E
:1035E000050E809173028068EBCF80917402836036
:1035F000B8CF809173028B7FE3CF809174028E7F6E
:10360000B0CF809174028D7FACCF809173028F7B9D
:10361000D7CF0E94050E809173028F77D1CF809112
:10362000730282FB992790F921E0922790FB82F99F
:1036300090FB83F9C5CF61E08EE090E00E94AF2B54
:10364000D8CE90917302892F8F7E94FF8061B8CF7E
:1036500090917302892F8E7F90FF8160B1CF80910E
:10366000C00181110FC089E2EAEBF1E020EC31E00A
:103670009191891303C0DF0111971C922E173F0708
:10368000B9F7FCCE85E3F0CF816080931D0361E044
:1036900086950E947D1452CE40EA54E16AEA74E1B4
:1036A0000E948E094BCE4AEA54E160EA74E1F8CFF9
:1036B00045E454E16FE474E1F3CF41E154E16EE19C
:1036C00074E1EECF61E081E0E4CF0E94050EEFEF00
:1036D000F4E32CE0E150F0402040E1F700C00000AE
:1036E00081E08093E00080E28093D8001092C900CE
:1036F0008FE19EE40197F1F700C0000087E090EBB6
:10370000DC0180935B0790935C07A0935D07B09307
:103710005E0788E19CE00FB6F894A895809360005E
:103720000FBE90936000FFCF8091740282FB8827C8
:1037300080F991E089270E948A17F7018281008130
:103740001181882309F445C0C8010E94B10BD82E0D
:10375000682FC8010E942F0CB8018D2D0E94FF090F
:103760000E941A0A8C01882EF701D28095809294CB
:103770003FE09322809121028770C1F0BD2CDD20B3
:10378000B1F0812F807F803421F080E2800F88307B
:1037900068F08091740282FF09C082E00E94BC0D33
:1037A000809121028770BB24B3948111B12CA12E8A
:1037B000A2942FE0A222FBE0FA1508F476C0EA2DCD
:1037C000F0E0E151F44D0C94762B81E0B4CF80E031
:1037D000B2CFC8010E94FA0BD82EBECF212F2F7076
:1037E000C22E107F19F0C29490EFC922DD20B9F0EB
:1037F000CC2069F080E2800F883010F0811009C081
:1038000080912B02C82AC0922B020E94430D802F68
:103810004AC080912A02C82AC0922A02F6CF802F7D
:103820000E94D310CC2009F440C0005E083010F094
:10383000811004C08C2D0E94A00B06C0C094809102
:103840002A02C822C0922A020E94430D2EC0312FA4
:103850003F70C32E107F103219F0C29480EFC8223F
:10386000882089F081E0881609F477C0DD2009F40A
:1038700081C0992009F477C0F701858180FFC7CF07
:103880008F70858370C02091740222FD43C0DD20BB
:10389000D9F1CC2039F080912B02C82AC0922B029A
:1038A0000E94430D80E00E940811EA2DE850FF0BB2
:1038B000349710F40E94CB12BB20A9F08091210212
:1038C00080FD11C0F70112828595859585950E942E
:1038D000D80DC7010E9461198091210285958595B7
:1038E00085950E94980D85E0F701DE011196019003
:1038F0000D928A95E1F709811A81C8010E94FA0B9D
:10390000B8010E94FF09EFCC80E00E94D310CC20C8
:1039100061F290CFDD20A1F090912C02892F8C29AB
:10392000911003C00E94C910C0CFE1E09E12FACFEF
:1039300022FFBBCF981709F4B8CF80932C02B5CFE4
:10394000911006C00E949A0B8C2D0E94C210ADCF20
:10395000F1E09F1609F4A9CFF5CFDD2031F025E085
:10396000291508F4A2CF8C2DDDCF34E0391508F4E9
:103970009CCFEACF992041F3F9E38F128AC12FEF50
:1039800037EE83E0215030408040E1F700C0000076
:1039900080C1812F86958695837061F0813009F012
:1039A00084CFC8019370D11002C090E080E00E94E3
:1039B0004C097BCFC8019370D11002C090E080E029
:1039C0000E94620972CF812F837009F066C0D11006
:1039D0006CCF802F829586958770880F880F602F17
:1039E0006F70462E512C712C612C082E04C0440C93
:1039F000551C661C771C0A94D2F740E050E0BA01CF
:103A000004FF0FC04FE050E060E070E004C0440FDE
:103A1000551F661F771F8A95D2F740955095609580
:103A20007095812F869586958370823019F1D8F430
:103A30000091910210919202209193023091940290
:103A4000813069F04429552966297729CB01BA01CB
:103A500060237123822393230E94FA0D26CF402AEC
:103A6000512A622A732ACB01BA0164297529862951
:103A70009729F2CF44295529662977290091910287
:103A8000109192022091930230919402CB01BA01DD
:103A90006027712782279327DFCF8695DD2011F0DD
:103AA000812F8170882309F400CF802F829586951D
:103AB0008770880F880F602F6F70462E512C712CE5
:103AC000612C082E04C0440C551C661C771C0A94FB
:103AD000D2F740E050E0BA0104FF0FC04FE050E0E1
:103AE00060E070E004C0440F551F661F771F8A9581
:103AF000D2F74095509560957095812F8695869563
:103B00008370823019F1D8F40091950210919602D9
:103B10002091970230919802813069F0442955290B
:103B200066297729CB01BA0160237123822393236D
:103B30000E948D0DBACE402A512A622A732ACB01E7
:103B4000BA016429752986299729F2CF4429552974
:103B5000662977290091950210919602209197028B
:103B600030919802CB01BA016027712782279327F1
:103B7000DFCF1F70DD2029F0812F0E94D80D802F0C
:103B8000D1CE802F0E94C210812F0E94980D8DCE21
:103B9000802F92EF891609F43FC0981570F0E0EF7E
:103BA0008E16D1F0F1EF8F1691F0DD2009F46CC084
:103BB00091102DCE812F8F7133C023EF821699F192
:103BC00034EF8312F2CF8091740282FD3FC0812FC7
:103BD0008F71DD20D1F224C0DD20C9F084E0891589
:103BE00008F463CE1F7161E070E080E090E004C0F3
:103BF000660F771F881F991F1A95D2F700919502BB
:103C0000109196022091970230919802ADCF95E0E5
:103C1000991508F44ACEE6CF812F8F71D110B5CF18
:103C20000E94D80D42CE60E070E0CB01DD2009F4A7
:103C30007FCF1F7161E070E080E090E004C0660F0C
:103C4000771F881F991F1A95D2F772CFDD2089F050
:103C50001F71812F0E94D80D8091740282FF07C0CE
:103C6000E8E01E9FC0011124836080932102812F10
:103C7000D7CF81E00E94BC0DF1E0F91508F015CE18
:103C800082E00E94BC0D11CE992039F0893309F4ED
:103C900076CE802F0E94D31008CE812F8F7175CFE2
:103CA00085E0DE01119601900D928A95E1F7F7010A
:103CB000228189819A8121111ACB0E94FA0B182F37
:103CC0001ECB0631FCE51F0709F4C9CC80912B02FD
:103CD00082720A3C2CE5120709F4EFCC08F04BC0C5
:103CE000063C9CE5190709F4E3CC70F5043CFCE5BF
:103CF0001F0709F4D1CC08F0D6CC033C3CE51307F0
:103D000009F01BCD80911D0380FFBECC8E7F809378
:103D10001D0360911D0370911E0380911F039091FC
:103D200020030E9423138091E00281608093E002CF
:103D30003FEF80E792E0315080409040E1F700C0D3
:103D400000000E942A12FACA4BE254E168E374E1CF
:103D5000083C9CE5190709F4A3CC4FE454E165E461
:103D600074E1093CECE51E0708F49ACC48E354E101
:103D70006BE274E195CC0E3CFCE51F0709F4A2CC84
:103D8000B8F449E554E16BE674E10C3C3CE51307FB
:103D900009F486CC4EE154E161E174E10D3C9CE50F
:103DA000190708F47DCC4BE654E169E574E178CC61
:103DB000073DECE51E0708F4C1CA0E35FDE51F07F7
:103DC00009F4BCCABACC0B352DE5120709F4FDCCB9
:103DD00068F401158CE5180709F477CC0F3D1C45F4
:103DE00009F0ABCC0E941E170E940D130D35EDE5B6
:103DF0001E0709F499CC08F4EACC083A1D45A1F352
:103E00009CCC1F93CF93DF938091EE01807F09F0CC
:103E100049C08091EB01882309F444C080912002BD
:103E2000D091EF016091E9017091EA01A091EC015C
:103E3000B091ED01C62FC72316E0D81799F190E095
:103E4000109711F0CF3F19F401968770F6CF189FA5
:103E50009001199F300D1124F901E051FE4F41816D
:103E60004713F2CF40814613EFCF42814111ECCF8F
:103E7000438154814A1B5B0B483C510528F78091D4
:103E8000EE018F7080618093EE01F901EB50FE4FDF
:103E900080818F708061808389EE91E00E9461193A
:103EA0000E94A70BDF91CF911F910895A1E1B0E08F
:103EB000ECE5FFE10C94272B8C0185E0F801DE0195
:103EC0001D9601900D928A95E1F7F801E28089EE46
:103ED000A82E81E0B82E6091EC017091ED01611582
:103EE000710509F426C19091E9014091EA01892FF9
:103EF00084238F3F09F41DC120813181C380D48088
:103F0000F090EB01F601E61BF70BFF2009F4DCC093
:103F10008091EE01582F507FE83CF10508F09FC0DA
:103F200051116BC0FE2C431314C0921312C0E11048
:103F300010C08F7080618093EE01C5010E946119ED
:103F40008091EE01F80185838F2D6196EAE00C9453
:103F5000432BC114D10429F0822F83238F3F09F012
:103F600003C180E0F82FF170DF2E80FF3CC080910C
:103F700020024091EF0156E0841315C02D873E8743
:103F80008D859E850E94ED0B292F22952F70223062
:103F9000F0F0243018F59F70F1F0F8019581907FD2
:103FA000D1F4D12C1EC090E0589FF001599FF00D24
:103FB0001124E051FE4F6181361306C06081261343
:103FC00003C06281E6120FC001968770D5CF9F7043
:103FD00011F0882331F3805E883018F3C8010E9405
:103FE0006119FD2CB1CFEE2009F4AECF8091EE0126
:103FF00081608093EE01F12CA7CF431306C092138A
:1040000004C0F801EE2009F479C0C8010E94670CD1
:10401000882309F1EE20F9F08091EE01803270F0F2
:104020002091E9013091EA0138872F831986DB86D8
:10403000CA868C87CE0107960E94611986E0F80136
:10404000A9EEB1E001900D928A95E1F70E94011F5F
:10405000FF24F39479CFC8010E946119F9CF51115F
:104060000AC089EE91E00E94611986E0F501119283
:104070008A95E9F7C0CF43130FC092130DC0E1102A
:104080000BC0F8018583C8010E94611986E0F50123
:1040900011928A95E9F758CFC8010E94670C8823CE
:1040A000D1F2EE20C1F28091EE01803238F22091FF
:1040B000E9013091EA013A8329831B82DD82CC82B7
:1040C0008E83CE010196B8CFE83CF105F8F6FE2CC0
:1040D000EE2009F243131FC092131DC08091EE0120
:1040E00080FD10C0982F907F69F0F8018583903F84
:1040F00031F0982F907F905F8F70892B8583C80156
:104100000E94611986E0F801A9EEB1E001900D92DC
:104110008A95E1F719CFC8010E94670C81118ECFF3
:104120008091EE0181608093EE01C8010E946119C7
:104130000BCFEE2009F48FCFC8010E94670CF82E38
:10414000882309F488CF86E0F801A9EEB1E0019058
:104150000D928A95E1F78091E9019091EA010E9420
:10416000ED0B0E94011FF0CE81E08E25FBCEA7E172
:10417000B0E0EDEBF0E20C942E2B4B8B5C8B6D8B57
:104180007E8B8F8B611110922A021A8A198A85E020
:10419000FE017396DE011D9601900D928A95E1F75E
:1041A00086E0FE013D96DE01179601900D928A95FC
:1041B000E1F7CE0107960E94561F811112C086E0DA
:1041C000FE013796DE01119601900D928A95E1F776
:1041D0008A859B85892B29F088859F8189238F3F3C
:1041E00081F516E0809120029091EF01891317C0AC
:1041F0006796E3E00C944A2B96E0929FD001939F40
:10420000B00D1124A051BE4FFE01319601900D92C8
:104210009A95E1F78093EF010E94A70BE2CF819F6F
:10422000C001112480519E4F0E94561F882301F324
:104230008091200290E00196877099278093200258
:10424000D1CF2091EF0130E0C90101968770992705
:10425000409120024817190679F60E94050E109227
:10426000EF011092200286E0E9EEF1E0DF011D92FD
:104270008A95E9F7B6CFACE0B0E0E1E4F1E20C9466
:10428000242B8E010F5F1F4F88E0D8011D928A9565
:10429000E9F787E8C82E81E0D82EF12CE12CAA247A
:1042A000A394B12C23E9822E21E0922EF601819174
:1042B0006F018F3F09F442C0F894E82FE295EF7048
:1042C000F0E021A18F70A50102C0440F551F8A950F
:1042D000E2F7CA01922F982B91A392A1809589238E
:1042E00082A3789400C0EBE8F1E0712C31E02191D9
:1042F0002F3F09F46EC0A22FA295AF70B0E0909648
:104300008C9190E02F7002C0959587952A95E2F7E1
:1043100080FD5FC0832F782A330F8E169F0639F7F2
:10432000F601319780818F3F11F00E94A50950EA74
:104330005A95F1F7F801EE0DFF1D70828FEFE81A24
:10434000F80A94E0E916F10409F0B0CF48E050E033
:10435000B80189E692E00E94852B7C01892B41F00F
:1043600088E0F801A9E6B2E001900D928A95E1F7A4
:1043700010917202E114F10471F181E080932F0237
:104380000E94F61890932E0280932D0280912D02A8
:1043900090912E020E94E718059790F0E12FF0E02F
:1043A000E858FD4F80916902808380916A02818381
:1043B00080916B02828380916C02838310922F0222
:1043C00081E090E0E114F10451F02C96EDE00C94C2
:1043D000402B80E0A0CF80912F028111D7CF0E9487
:1043E000A812F82EE0917202882309F48EC0198673
:1043F0001A861B861C860E2F10E008581D4F8091D0
:1044000064028A3008F04AC04AEE56E1BE01675F96
:104410007F4FC8010E947512882309F44FC041E9FB
:1044200056E1BE01675F7F4FC8010E947512882365
:1044300009F444C045ED54E1BE01675F7F4FC801F8
:104440000E9475128823D1F14EEB55E1BE01675FE2
:104450007F4FC8010E947512882381F14FE955E111
:10446000BE01675F7F4FC8010E947512882331F13A
:10447000109264028091710290E044E050E0BE012D
:10448000675F7F4F88589D4F0E94852B21E02093C6
:104490003602892B61F5F12C8F2D97CF8091300258
:1044A000909131020E94E718843F914008F0ACCF10
:1044B00080913602811112C080E087CF8091640222
:1044C0008F3F29F08F5F809364028A3098F20E94B8
:1044D000F6189093310280933002EACFFE013996AC
:1044E00084E0DF011D928A95E9F710923602E0918F
:1044F0007102F0E0E858FD4F89859A85AB85BC854F
:1045000080839183A283B383C7CFF0E0E858FD4F47
:1045100084E0A5E4B2E001900D928A95E1F764E0B1
:1045200070E085E492E00E94780980934402409113
:104530008E0250E060918D0270E067577D4FCE0192
:1045400009960E94922B898580934A0261E070E06F
:10455000CE0109960E94780980934902C0904B02CF
:10456000D0904C02E0904D02F0904E0280913202C9
:1045700090913302A0913402B0913502C816D90649
:10458000EA06FB06D1F0C0923202D0923302E092EA
:104590003402F09235020E94A81281110EC00E94CE
:1045A0002609C61AD70AE80AF90AC0926502D0920B
:1045B0006602E0926702F0926802809156028823B8
:1045C000F1F080FF0DC080914F0290911D0380FF9C
:1045D0001DC0916090931D0360E086950E947D143C
:1045E0008091560281FF09C020E040915202609103
:1045F0005102809150020E9436131092560280910F
:1046000057028823B9F00E94A01156CF9E7F909345
:104610001D038091E00281608093E002BFEFE0E73C
:10462000F2E0B150E040F040E1F700C000000E942D
:104630002A12D6CF0E9485113FCF1F921FB61F921C
:1046400011248F939F93AF93BF9380912E03811179
:1046500013C080912F0390913003A0913103B0914A
:1046600032034196A11DB11D80932F039093300317
:10467000A0933103B0933203BF91AF919F918F917B
:104680001F901FBE1F901895CDB7DEB72C970FB6A1
:10469000F894DEBF0FBECDBF85B7806885BF85B7F4
:1046A000806885BF84B7877F84BF0FB6F894A895CC
:1046B00080916000886180936000109260000FBE5E
:1046C00080E890E00FB6F8948093610090936100C9
:1046D0000FBE83EA99E09093B7018093B6010E94E0
:1046E0009D070E9468088091E20084608093E20048
:1046F0007894809143038823A1F01091E9001F7002
:104700009091EC00892F817090FD80E8182B109219
:10471000E9008091E80083FD0E94110E1F70109344
:10472000E90082E084BD93E095BD9AEF97BD809348
:104730006E0010926502109266021092670210924B
:1047400068020E94A8128093380180913801882362
:1047500009F441C110924E018AE080934F010E94FA
:10476000A81281110E94A9298091380180913801F5
:1047700094E0811190E09093720284E0891B809311
:10478000710284E30E94A50986EC0E94A50987E9CD
:104790000E94A50984E90E94A5090BE811E0E3E95C
:1047A000EE2EE1E0FE2ED8018D918D018F3F11F0AC
:1047B0000E94A509E016F106B1F788E0E8E7F2E00B
:1047C000DF01082F1D920A95E9F7E9E6F2E0DF0123
:1047D0001D928A95E9F790E080E00E94A92B883E1F
:1047E0009E4F11F00E941E1782E090E00E949B2BCA
:1047F000809380020E94C714909374028093730286
:1048000083E090E00E949B2B682F70E090E080E0B6
:104810000E94FA0D82E08093D90280E880935003D1
:104820000E9460286DE070E08FEB92E00E945B11C7
:10483000892BE9F58091D90263E070E081FDCFC05A
:104840008CEB92E00E945B11892B89F56DE070E0A2
:104850008CEA92E00E945B11892B49F50E9426099F
:10486000605A75418F4F9F4F6093220370932303CB
:104870008093240390932503E3E5F3E080E094E044
:10488000DF018C011D9201501040E1F7F0935A07AF
:10489000E09359078FEF9FEF90935203809351035A
:1048A00081E080932703809326031092DA0280919F
:1048B0007502811139C090E080E00E94A92B883EEA
:1048C0009E4F21F00E941E170E94AF1488E090E0D6
:1048D0000E94A32B60931D0370931E0380931F03FC
:1048E000909320038091E00283608093E0026E7FCA
:1048F00071F40E94AF1488E090E00E94A32B6093B3
:104900001D0370931E0380931F03909320030E9446
:10491000940980911D0380FF04C060E086950E9489
:104920007D1481E0809375029091380181E0982791
:1049300090938D02282F291B2093770290913801A4
:1049400080938E0290913801809376028091380195
:10495000811106C085E38093460186E68093450178
:1049600020914601E22FE295EF70F0E061A12F70F7
:1049700081E090E0AC0101C0440F2A95EAF7342FA2
:104980003095362331A322A1242B22A32091450167
:10499000E22FE295EF70F0E031A12F7001C0880F97
:1049A0002A95EAF7982F9095932391A392A1892BAA
:1049B00082A38FE891E00197F1F700C00000109109
:1049C0008E026FE872E046E451E085E4E82E81E073
:1049D000F82EFB012FC08AE080934E01BECE89EBFA
:1049E00092E030CFDA012D91AD01822F82958F7048
:1049F00090E0DC0190968C9190E02F7002C095952C
:104A000087952A95E2F78170D7019D917D01292F25
:104A100022952F7030E0D90190962C9130E09F7054
:104A200002C0359527959A95E2F790E020FD92E037
:104A3000892B81938E2F861B8117A0F20E94A812CA
:104A4000811102C00E94AC2989E391E090932B036D
:104A500080932A0368E1862E912C70E4E72E8091E2
:104A6000430300E112E1853009F4B7C00E943B2105
:104A7000D82E81110E942609A8E7B2E0E1E8F2E011
:104A800010E000E0A02ECD9081918C1509F4B4C007
:104A9000B12CFF24F3948C25982F9F2109F4A7C0F3
:104AA0000E94A812882399F0B982AA82CF2081E0BF
:104AB00009F480E08B830E94F6188160782F9D8333
:104AC0008C8349815A816B818D810E94B720F801C6
:104AD000EF57FD4F8081F826F0820E94A812B12C7A
:104AE000F12C80918E02B81608F49DC0F1100E943E
:104AF000970B80912703882351F18091DB029091DD
:104B0000DC020E94E718C29708F0FEC02091510312
:104B1000309152032115310509F0ECC18091260333
:104B20008823A9F00E9426090091220310912303F3
:104B30002091240330912503601B710B820B930B92
:104B40006F3F7F4F8F4F9F4710F40E948511D11008
:104B500001C0F1100E94A0110E94CB129091DD02C1
:104B6000891709F47CCF8093DD0279CF80914303CC
:104B7000843019F10E94851110922E030FB6F8941B
:104B8000A895809260000FBEE092600083B7817F9D
:104B9000846083BF83B7816083BF7894889583B72F
:104BA0008E7F83BF0FB6F894A895809160008861CE
:104BB00080936000109260000FBE809142038823B2
:104BC00061F00E943B21E8E7F2E08191811162C22D
:104BD00020E832E02E173F07C1F78091430385306C
:104BE00009F4C4CF0E94050E0E94CB123FCFB394AC
:104BF000FF0C38E0B31250CF0F5F1F4F0830110584
:104C000009F040CF8FEF8E838F8318860E94F618AD
:104C10008160782F9A8789874E815F8168858A8530
:104C20000E94B7205ACF0B2D10E0F801EA5BFE4F2F
:104C30008081E82FE295EF70F0E0E0A1F0E08F7066
:104C400002C0F595E7958A95E2F7E170D801AB5B74
:104C5000BE4F2C91A22FA295AF70B0E090968C9190
:104C600090E02F7002C0959587952A95E2F780FD18
:104C700049C080E08E2BD801A157BD4FEC919E2FEB
:104C800093708917E9F1EE0FEE0FE82BEC93C090CB
:104C90008D02CB0CEF70F0E0ED56FE4F05571D4F27
:104CA0008081D8019C91890F8C9320E0843064F03E
:104CB000EC2DF0E0E757FD4F80818F5F808360E04F
:104CC0008C2D0E94F41221E0F80180818D3F64F464
:104CD000EC2DF0E0E757FD4F80818150808361E04B
:104CE0008C2D0E94F41221E0D8018C91082E000C2A
:104CF000990B64E070E00E94622BF8018083F22A35
:104D0000B394EFCE82E0B6CF0E94F6189093DC0207
:104D10008093DB0283E593E090935A0780935907D1
:104D20000E94A812882309F4A7C085E597E00E9495
:104D3000350D8EE497E00E94350D87E497E00E94E0
:104D4000350D8FE397E00E94350D4091950250910B
:104D500096026091970270919802809191029091D1
:104D60009202A0919302B0919402842B952BA62BD2
:104D7000B72BAD0166277727E0E0411551056105A6
:104D8000710519F0DB01CA01E0E1492F5A2F6B2FA1
:104D90007727411551056105710519F0E85FDB01C1
:104DA000CA01AC01BD0134E07695679557954795EA
:104DB0003A95D1F7411551056105710519F0EC5F80
:104DC000DB01CA01AC01BD0122E0769567955795DC
:104DD00047952A95D1F7411551056105710519F0DF
:104DE000EE5FDB01CA01B695A79597958795892B4C
:104DF0008A2B8B2B09F0EF5F8CEF96E0E73038F4CD
:104E0000F0E0E550F44D0C94762B87E397E00E9498
:104E1000350D0E94CB12182F8CEE96E010FF02C0C9
:104E200084EF96E00E94350D8CED96E011FF02C0F4
:104E300084EE96E00E94350D8CEC96E012FF02C0E5
:104E400084ED96E00E94350D80912703882309F4B4
:104E500065CE5CCE8FE297E0DACF83E297E0D7CFE2
:104E60008EE197E0D4CF89E197E0D1CF8FE097E052
:104E7000CECF87E097E0CBCF8091590790915A072A
:104E8000835593409C013C5F21303440B0F020E0DA
:104E900034E0281B390B4091510350915203ECEC44
:104EA000F2E0280F391F61E070E08217930740F0AD
:104EB0005093520340935103C7CF20E034E0EBCF2F
:104EC0001491DC01AD5ABC4F0C91101781F01C936A
:104ED000DC0116E0B695A7951A95E1F78B0102C0A3
:104EE000000F111FAA95E2F7D801402B5B2B01960A
:104EF0003196DBCF8091DA0261E070E081110ECE55
:104F0000082F10E02B01082E02C0440C551C0A94F7
:104F1000E2F7A90144215521452B09F447C090919E
:104F2000D90290FD45C08295880F880F80748093C8
:104F3000490198013695279520934C01815C809317
:104F40004A0110924D0124E630E047E050E067E46A
:104F500071E088E70E940329892B09F0DFCDA801C1
:104F600026E0440F551F2A95E1F78091D90280FD74
:104F70002DC04D5A5C4F04E610E020E430E060E4C0
:104F800088E70E942429892B09F0C8CD0E94A0112E
:104F9000C201809590954090510350905203482251
:104FA00059225092520340925103B8CD8F5FA8CF3F
:104FB000880F880F880F8093490110924C01895FF8
:104FC00080934A0187E080934D01BDCFE9E9F2E08B
:104FD000DF010E2D1D920A95E9F72BEA31E03C879F
:104FE0002B8703EA11E0AB85BC852D91BC87AB878D
:104FF000F80121908F01240E352E311CC1018D5AEC
:105000009C4F1C01E22FF0E0E756FD4F30E020E01E
:1050100097E0692E621ACC24C394022E01C0CC0CF6
:105020000A94EAF7510190E0D5018D915D018C2140
:10503000662D691B6770762E062E000C770BB82F35
:1050400001C0BB0F7A94EAF77B2E719561957109C7
:105050006770772701C086956A95EAF7782A80817C
:10506000782A70829F5F9830F9F62F5F3F4F319614
:105070002830310569F6E3EBF1E02B853C85E2173A
:10508000F30709F0B0CF04E610E020E430E049E98E
:1050900052E075CF09BD19BD09B400FEFDCF809166
:1050A000D8008F7D8093D8008091E000826080934B
:1050B000E0008091E00081FDFCCF0E94050E8DCDC7
:1050C0001092B9008CE08093B8000895B0E0A0E0A1
:1050D000ECE6F8E20C94262BB82EEB010E94F618B1
:1050E0006C01EE24E394F12CC431D10560F025E08D
:1050F000E22EF12CCF3FDC0731F0CE0164E170E00D
:105100000E940B2B7B0184EAA82E94E8992E109222
:10511000BC00A092BC000E94F6188C018091BC00DB
:1051200087FF0DC08091B900887F883001F18091A0
:10513000B900887F8031D9F00FEF1FEF09C00E94BE
:10514000F618801B910B8E159F0540F30EEF1FEF95
:10515000CF3FDC07E1F2C6010E94E7188C179D07DC
:10516000B0F2C801CDB7DEB7EBE00C94422BB092A1
:10517000BB009092BC000E94F6188C018091BC008C
:1051800087FF0AC08091B900887F883111F0803490
:1051900099F610E000E0E5CF0E94F618801B910B15
:1051A0008E159F0558F3D2CF0F931F93CF93DF93A4
:1051B000EB018093BB0084E88093BC000E94F6184A
:1051C0008C018091BC0087FF11C02091B900287F1D
:1051D00081E090E0283211F490E080E09195819593
:1051E0009109DF91CF911F910F910895CF3FDC0777
:1051F00041F30E94F618801B910B8C179D0708F352
:105200008EEF9FEFEECFB0E0A0E0E9E0F9E20C9482
:10521000292B6B018A017901B9010E946628E601F8
:105220000C0D1D1DC017D10711F097FF08C024E910
:105230002093BC00CDB7DEB7E8E00C94452BB70156
:1052400089910E94D428EECFB0E0A0E0EAE2F9E232
:105250000C94292BC62F6A017901B8010E94662897
:1052600097FD0CC0B8018C2F0E94D428E601EC0CED
:10527000FD1CCE15DF0511F097FF08C024E920932F
:10528000BC00CDB7DEB7E8E00C94452BB80189919E
:105290000E94D428EECF84E98093BC0008958EE16B
:1052A0004A9B02C08150E1F74A9BFECF08955A986D
:1052B00080E28A95F1F75A9A0895FC013BE03A950D
:1052C000F1F798E020E080E031E040E14A95F1F725
:1052D000880F4A9B02C08160232742E04A95F1F77C
:1052E000000040E14A95F1F7915079F790E19A95E5
:1052F000F1F799B132E03A95F1F7000040E14A95B3
:10530000F1F792FB992790F992272081920F9083D1
:105310000895A1E0B0E0EFE8F9E20C942B2B19829C
:105320008C017C01E60EF11C0E151F0541F481E095
:105330009981911180E02196E6E00C94472B0E9420
:105340004F29CE0101960E945D29F80181938F01BA
:10535000EBCF529A5A9A089552985A9AEA9AE9E6E5
:10536000F0E080818F7C808308956150770B91E01D
:1053700001C0990F6A95EAF720E031E0911108C069
:10538000222391F05A9A80E28A95F1F75A9808956B
:10539000492F482339F05A9A232740E24A95F1F7DA
:1053A0009695ECCF5A98F9CF5A98EDCFFF920F937C
:1053B0001F93CF93DF93EC018C01060F111DC017D3
:1053C000D10729F4CDB7DEB7E5E00C94482BF9906E
:1053D0000E94572968E08F2D0E94B529F0CF1F92B7
:1053E0000F920FB60F9211240F931F932F933F9399
:1053F0004F935F936F937F938F939F93AF93BF93DD
:10540000EF93FF93CF93DF930F92CDB7DEB719825F
:105410000E944F29CE0101960E945D29082F069512
:1054200006950695282F22952570902F9570290FA7
:10543000922F937026952695920F982797708981C1
:10544000982B09F05CC0083008F059C080E18A95BB
:10545000F1F75A9A529A82E08A95F1F700C05A9869
:1054600088E0089F80011124D801A050BF4F1696F4
:10547000ED91FC9117973097A9F06091850170919B
:10548000860114962D913C911597260F371F119682
:105490008D919C911297680F791F13964C911397D9
:1054A0008C910995F801E050FF4F6381662351F01C
:1054B000209185013091860184819581820F931F0F
:1054C0000E94D6290E94572980E18A95F1F75A98BF
:1054D00052985A9A80E18A95F1F7F801E050FF4F0F
:1054E0006081662351F02091850130918601818190
:1054F0009281820F931F0E9489290E944F290F9049
:10550000DF91CF91FF91EF91BF91AF919F918F91DB
:105510007F916F915F914F913F912F911F910F91CB
:105520000F900FBE0F901F9018950F931F93CF935E
:10553000DF93EC0108970CF04CC0F894529A5A98FB
:1055400085E08A95F1F700009C2F969595708C2F39
:105550008570980F892F83709695969523E0CC0FD0
:10556000DD1F2A95E1F7980F8E01092B0E9457291C
:1055700000C068E0802F0E94B52980E18A95F1F78C
:1055800052985A9A4A9B1EC087E090E04A991CC0E4
:10559000FE01E050FF4F63816623F9F02091850101
:1055A0003091860184819581820F931F0E94892901
:1055B000811113C0529A5A9A7894DF91CF911F911A
:1055C0000F91089500C0DECF019729F4529A5A9A9C
:1055D000789480E0F2CF00C0D9CF0E944F2980E2BA
:1055E0008A95F1F75A98529A80E18A95F1F7C0505E
:1055F000DF4F6881662351F020918501309186014B
:1056000089819A81820F931F0E94D6290E9457296F
:10561000789481E0D2CFAA1BBB1B51E107C0AA1F1F
:10562000BB1FA617B70710F0A61BB70B881F991F43
:105630005A95A9F780959095BC01CD0108952F92B8
:105640003F924F925F926F927F928F929F92AF9212
:10565000BF92CF92DF92EF92FF920F931F93CF935F
:10566000DF93CDB7DEB7CA1BDB0B0FB6F894DEBFF6
:105670000FBECDBF09942A88398848885F846E841C
:105680007D848C849B84AA84B984C884DF80EE8066
:10569000FD800C811B81AA81B981CE0FD11D0FB66F
:1056A000F894DEBF0FBECDBFED010895991B79E0E0
:1056B00004C0991F961708F0961B881F7A95C9F7A2
:1056C0008095089597FB072E16F4009407D077FD78
:1056D00009D00E940B2B07FC05D03EF490958195D4
:1056E0009F4F0895709561957F4F0895EE0FFF1FAE
:1056F0000590F491E02D0994FB01DC0102C00590B6
:105700000D9241505040D8F70895FB01DC0104C0D0
:105710008D910190801921F441505040C8F7881BA9
:10572000990B0895FB01DC0102C001900D924150DC
:105730005040D8F70895F999FECF92BD81BDF89AEF
:10574000992780B50895A6E1B0E044E050E00C94BC
:10575000D52BA8E1B0E042E050E00C94D52B262FE9
:10576000F999FECF92BD81BDF89A019700B4021657
:1057700039F01FBA20BD0FB6F894FA9AF99A0FBE05
:1057800008950396272F0E94B02B0E94AF2B252F40
:105790000E94B02B242F0C94B02B0196272F0E942F
:1057A000B02B0C94AF2BDC01CB01FC01F999FECF9F
:1057B00006C0F2BDE1BDF89A319600B40D92415099
:1057C0005040B8F70895F894FFCFF00E180FB010BE
:1057D000180FB0104B0F6C0FB01069107610EE1B45
:1057E000EE1B271C271CC91C551C551C551CE31CF3
:1057F000B91DC81DC81D05272A272D273027332787
:0458000036273927E7
:10580400000000010000000000000004010000008E
:105814000000000105000000000000010600000077
:105824000407000000000000080B00000000000056
:105834000113000000000000012309FD112209F8F2
:1058440011F311210935660021007F22000700149D
:1058540000141401818283E200E900EA00B500B675
:1058640000B700CD008301CC008A0192019401218C
:1058740002230224022502260227022A02B300B4CC
:10588400006F007000440234C6979436323331F707
:10589400F6F5F400FF0100010000FFFF0000010025
:1058A40001FF00000810182028303838302820184C
:0658B400100800000100D5
:00000001FF
